{
	"CallAnything.sol": {
		"CallAnything": {
			"abi": [
				{
					"inputs": [],
					"name": "getselectorOne",
					"outputs": [
						{
							"internalType": "bytes4",
							"name": "selector",
							"type": "bytes4"
						}
					],
					"stateMutability": "pure",
					"type": "function"
				},
				{
					"inputs": [],
					"name": "s_amount",
					"outputs": [
						{
							"internalType": "uint256",
							"name": "",
							"type": "uint256"
						}
					],
					"stateMutability": "view",
					"type": "function"
				},
				{
					"inputs": [],
					"name": "s_someAddress",
					"outputs": [
						{
							"internalType": "address",
							"name": "",
							"type": "address"
						}
					],
					"stateMutability": "view",
					"type": "function"
				},
				{
					"inputs": [
						{
							"internalType": "address",
							"name": "someAddress",
							"type": "address"
						},
						{
							"internalType": "uint256",
							"name": "amount",
							"type": "uint256"
						}
					],
					"name": "transfer",
					"outputs": [],
					"stateMutability": "nonpayable",
					"type": "function"
				}
			],
			"devdoc": {
				"kind": "dev",
				"methods": {},
				"version": 1
			},
			"evm": {
				"assembly": "    /* \"CallAnything.sol\":507:899  contract CallAnything {\r... */\n  mstore(0x40, 0x80)\n  callvalue\n  dup1\n  iszero\n  tag_1\n  jumpi\n  0x00\n  dup1\n  revert\ntag_1:\n  pop\n  dataSize(sub_0)\n  dup1\n  dataOffset(sub_0)\n  0x00\n  codecopy\n  0x00\n  return\nstop\n\nsub_0: assembly {\n        /* \"CallAnything.sol\":507:899  contract CallAnything {\r... */\n      mstore(0x40, 0x80)\n      callvalue\n      dup1\n      iszero\n      tag_1\n      jumpi\n      0x00\n      dup1\n      revert\n    tag_1:\n      pop\n      jumpi(tag_2, lt(calldatasize, 0x04))\n      shr(0xe0, calldataload(0x00))\n      dup1\n      0xa9059cbb\n      eq\n      tag_3\n      jumpi\n      dup1\n      0xaad229d5\n      eq\n      tag_4\n      jumpi\n      dup1\n      0xc6e93bad\n      eq\n      tag_5\n      jumpi\n      dup1\n      0xe41706d5\n      eq\n      tag_6\n      jumpi\n    tag_2:\n      0x00\n      dup1\n      revert\n        /* \"CallAnything.sol\":605:741  function transfer(address someAddress, uint256 amount) public {\r... */\n    tag_3:\n      tag_7\n      0x04\n      dup1\n      calldatasize\n      sub\n      dup2\n      add\n      swap1\n      tag_8\n      swap2\n      swap1\n      tag_9\n      jump\t// in\n    tag_8:\n      tag_10\n      jump\t// in\n    tag_7:\n      stop\n        /* \"CallAnything.sol\":538:566  address public s_someAddress */\n    tag_4:\n      tag_11\n      tag_12\n      jump\t// in\n    tag_11:\n      mload(0x40)\n      tag_13\n      swap2\n      swap1\n      tag_14\n      jump\t// in\n    tag_13:\n      mload(0x40)\n      dup1\n      swap2\n      sub\n      swap1\n      return\n        /* \"CallAnything.sol\":573:596  uint256 public s_amount */\n    tag_5:\n      tag_15\n      tag_16\n      jump\t// in\n    tag_15:\n      mload(0x40)\n      tag_17\n      swap2\n      swap1\n      tag_18\n      jump\t// in\n    tag_17:\n      mload(0x40)\n      dup1\n      swap2\n      sub\n      swap1\n      return\n        /* \"CallAnything.sol\":749:896  function getselectorOne() public pure returns ( bytes4 selector) {\r... */\n    tag_6:\n      tag_19\n      tag_20\n      jump\t// in\n    tag_19:\n      mload(0x40)\n      tag_21\n      swap2\n      swap1\n      tag_22\n      jump\t// in\n    tag_21:\n      mload(0x40)\n      dup1\n      swap2\n      sub\n      swap1\n      return\n        /* \"CallAnything.sol\":605:741  function transfer(address someAddress, uint256 amount) public {\r... */\n    tag_10:\n        /* \"CallAnything.sol\":694:705  someAddress */\n      dup2\n        /* \"CallAnything.sol\":678:691  s_someAddress */\n      0x00\n      dup1\n        /* \"CallAnything.sol\":678:705  s_someAddress = someAddress */\n      0x0100\n      exp\n      dup2\n      sload\n      dup2\n      0xffffffffffffffffffffffffffffffffffffffff\n      mul\n      not\n      and\n      swap1\n      dup4\n      0xffffffffffffffffffffffffffffffffffffffff\n      and\n      mul\n      or\n      swap1\n      sstore\n      pop\n        /* \"CallAnything.sol\":727:733  amount */\n      dup1\n        /* \"CallAnything.sol\":716:724  s_amount */\n      0x01\n        /* \"CallAnything.sol\":716:733  s_amount = amount */\n      dup2\n      swap1\n      sstore\n      pop\n        /* \"CallAnything.sol\":605:741  function transfer(address someAddress, uint256 amount) public {\r... */\n      pop\n      pop\n      jump\t// out\n        /* \"CallAnything.sol\":538:566  address public s_someAddress */\n    tag_12:\n      0x00\n      dup1\n      sload\n      swap1\n      0x0100\n      exp\n      swap1\n      div\n      0xffffffffffffffffffffffffffffffffffffffff\n      and\n      dup2\n      jump\t// out\n        /* \"CallAnything.sol\":573:596  uint256 public s_amount */\n    tag_16:\n      sload(0x01)\n      dup2\n      jump\t// out\n        /* \"CallAnything.sol\":749:896  function getselectorOne() public pure returns ( bytes4 selector) {\r... */\n    tag_20:\n        /* \"CallAnything.sol\":797:812  bytes4 selector */\n      0x00\n        /* \"CallAnything.sol\":853:886  bytes(\"transfer(address,uint256\") */\n      mload(0x40)\n      dup1\n      0x40\n      add\n      0x40\n      mstore\n      dup1\n      0x18\n      dup2\n      mstore\n      0x20\n      add\n      0x7472616e7366657228616464726573732c75696e743235360000000000000000\n      dup2\n      mstore\n      pop\n        /* \"CallAnything.sol\":843:887  keccak256(bytes(\"transfer(address,uint256\")) */\n      dup1\n      mload\n      swap1\n      0x20\n      add\n      keccak256\n        /* \"CallAnything.sol\":825:888  selector = bytes4(keccak256(bytes(\"transfer(address,uint256\"))) */\n      swap1\n      pop\n        /* \"CallAnything.sol\":749:896  function getselectorOne() public pure returns ( bytes4 selector) {\r... */\n      swap1\n      jump\t// out\n        /* \"#utility.yul\":7:146   */\n    tag_26:\n        /* \"#utility.yul\":53:58   */\n      0x00\n        /* \"#utility.yul\":91:97   */\n      dup2\n        /* \"#utility.yul\":78:98   */\n      calldataload\n        /* \"#utility.yul\":69:98   */\n      swap1\n      pop\n        /* \"#utility.yul\":107:140   */\n      tag_28\n        /* \"#utility.yul\":134:139   */\n      dup2\n        /* \"#utility.yul\":107:140   */\n      tag_29\n      jump\t// in\n    tag_28:\n        /* \"#utility.yul\":7:146   */\n      swap3\n      swap2\n      pop\n      pop\n      jump\t// out\n        /* \"#utility.yul\":152:291   */\n    tag_30:\n        /* \"#utility.yul\":198:203   */\n      0x00\n        /* \"#utility.yul\":236:242   */\n      dup2\n        /* \"#utility.yul\":223:243   */\n      calldataload\n        /* \"#utility.yul\":214:243   */\n      swap1\n      pop\n        /* \"#utility.yul\":252:285   */\n      tag_32\n        /* \"#utility.yul\":279:284   */\n      dup2\n        /* \"#utility.yul\":252:285   */\n      tag_33\n      jump\t// in\n    tag_32:\n        /* \"#utility.yul\":152:291   */\n      swap3\n      swap2\n      pop\n      pop\n      jump\t// out\n        /* \"#utility.yul\":297:771   */\n    tag_9:\n        /* \"#utility.yul\":365:371   */\n      0x00\n        /* \"#utility.yul\":373:379   */\n      dup1\n        /* \"#utility.yul\":422:424   */\n      0x40\n        /* \"#utility.yul\":410:419   */\n      dup4\n        /* \"#utility.yul\":401:408   */\n      dup6\n        /* \"#utility.yul\":397:420   */\n      sub\n        /* \"#utility.yul\":393:425   */\n      slt\n        /* \"#utility.yul\":390:509   */\n      iszero\n      tag_35\n      jumpi\n        /* \"#utility.yul\":428:507   */\n      tag_36\n      tag_37\n      jump\t// in\n    tag_36:\n        /* \"#utility.yul\":390:509   */\n    tag_35:\n        /* \"#utility.yul\":548:549   */\n      0x00\n        /* \"#utility.yul\":573:626   */\n      tag_38\n        /* \"#utility.yul\":618:625   */\n      dup6\n        /* \"#utility.yul\":609:615   */\n      dup3\n        /* \"#utility.yul\":598:607   */\n      dup7\n        /* \"#utility.yul\":594:616   */\n      add\n        /* \"#utility.yul\":573:626   */\n      tag_26\n      jump\t// in\n    tag_38:\n        /* \"#utility.yul\":563:626   */\n      swap3\n      pop\n        /* \"#utility.yul\":519:636   */\n      pop\n        /* \"#utility.yul\":675:677   */\n      0x20\n        /* \"#utility.yul\":701:754   */\n      tag_39\n        /* \"#utility.yul\":746:753   */\n      dup6\n        /* \"#utility.yul\":737:743   */\n      dup3\n        /* \"#utility.yul\":726:735   */\n      dup7\n        /* \"#utility.yul\":722:744   */\n      add\n        /* \"#utility.yul\":701:754   */\n      tag_30\n      jump\t// in\n    tag_39:\n        /* \"#utility.yul\":691:754   */\n      swap2\n      pop\n        /* \"#utility.yul\":646:764   */\n      pop\n        /* \"#utility.yul\":297:771   */\n      swap3\n      pop\n      swap3\n      swap1\n      pop\n      jump\t// out\n        /* \"#utility.yul\":777:895   */\n    tag_40:\n        /* \"#utility.yul\":864:888   */\n      tag_42\n        /* \"#utility.yul\":882:887   */\n      dup2\n        /* \"#utility.yul\":864:888   */\n      tag_43\n      jump\t// in\n    tag_42:\n        /* \"#utility.yul\":859:862   */\n      dup3\n        /* \"#utility.yul\":852:889   */\n      mstore\n        /* \"#utility.yul\":777:895   */\n      pop\n      pop\n      jump\t// out\n        /* \"#utility.yul\":901:1016   */\n    tag_44:\n        /* \"#utility.yul\":986:1009   */\n      tag_46\n        /* \"#utility.yul\":1003:1008   */\n      dup2\n        /* \"#utility.yul\":986:1009   */\n      tag_47\n      jump\t// in\n    tag_46:\n        /* \"#utility.yul\":981:984   */\n      dup3\n        /* \"#utility.yul\":974:1010   */\n      mstore\n        /* \"#utility.yul\":901:1016   */\n      pop\n      pop\n      jump\t// out\n        /* \"#utility.yul\":1022:1140   */\n    tag_48:\n        /* \"#utility.yul\":1109:1133   */\n      tag_50\n        /* \"#utility.yul\":1127:1132   */\n      dup2\n        /* \"#utility.yul\":1109:1133   */\n      tag_51\n      jump\t// in\n    tag_50:\n        /* \"#utility.yul\":1104:1107   */\n      dup3\n        /* \"#utility.yul\":1097:1134   */\n      mstore\n        /* \"#utility.yul\":1022:1140   */\n      pop\n      pop\n      jump\t// out\n        /* \"#utility.yul\":1146:1368   */\n    tag_14:\n        /* \"#utility.yul\":1239:1243   */\n      0x00\n        /* \"#utility.yul\":1277:1279   */\n      0x20\n        /* \"#utility.yul\":1266:1275   */\n      dup3\n        /* \"#utility.yul\":1262:1280   */\n      add\n        /* \"#utility.yul\":1254:1280   */\n      swap1\n      pop\n        /* \"#utility.yul\":1290:1361   */\n      tag_53\n        /* \"#utility.yul\":1358:1359   */\n      0x00\n        /* \"#utility.yul\":1347:1356   */\n      dup4\n        /* \"#utility.yul\":1343:1360   */\n      add\n        /* \"#utility.yul\":1334:1340   */\n      dup5\n        /* \"#utility.yul\":1290:1361   */\n      tag_40\n      jump\t// in\n    tag_53:\n        /* \"#utility.yul\":1146:1368   */\n      swap3\n      swap2\n      pop\n      pop\n      jump\t// out\n        /* \"#utility.yul\":1374:1592   */\n    tag_22:\n        /* \"#utility.yul\":1465:1469   */\n      0x00\n        /* \"#utility.yul\":1503:1505   */\n      0x20\n        /* \"#utility.yul\":1492:1501   */\n      dup3\n        /* \"#utility.yul\":1488:1506   */\n      add\n        /* \"#utility.yul\":1480:1506   */\n      swap1\n      pop\n        /* \"#utility.yul\":1516:1585   */\n      tag_55\n        /* \"#utility.yul\":1582:1583   */\n      0x00\n        /* \"#utility.yul\":1571:1580   */\n      dup4\n        /* \"#utility.yul\":1567:1584   */\n      add\n        /* \"#utility.yul\":1558:1564   */\n      dup5\n        /* \"#utility.yul\":1516:1585   */\n      tag_44\n      jump\t// in\n    tag_55:\n        /* \"#utility.yul\":1374:1592   */\n      swap3\n      swap2\n      pop\n      pop\n      jump\t// out\n        /* \"#utility.yul\":1598:1820   */\n    tag_18:\n        /* \"#utility.yul\":1691:1695   */\n      0x00\n        /* \"#utility.yul\":1729:1731   */\n      0x20\n        /* \"#utility.yul\":1718:1727   */\n      dup3\n        /* \"#utility.yul\":1714:1732   */\n      add\n        /* \"#utility.yul\":1706:1732   */\n      swap1\n      pop\n        /* \"#utility.yul\":1742:1813   */\n      tag_57\n        /* \"#utility.yul\":1810:1811   */\n      0x00\n        /* \"#utility.yul\":1799:1808   */\n      dup4\n        /* \"#utility.yul\":1795:1812   */\n      add\n        /* \"#utility.yul\":1786:1792   */\n      dup5\n        /* \"#utility.yul\":1742:1813   */\n      tag_48\n      jump\t// in\n    tag_57:\n        /* \"#utility.yul\":1598:1820   */\n      swap3\n      swap2\n      pop\n      pop\n      jump\t// out\n        /* \"#utility.yul\":1907:2003   */\n    tag_43:\n        /* \"#utility.yul\":1944:1951   */\n      0x00\n        /* \"#utility.yul\":1973:1997   */\n      tag_61\n        /* \"#utility.yul\":1991:1996   */\n      dup3\n        /* \"#utility.yul\":1973:1997   */\n      tag_62\n      jump\t// in\n    tag_61:\n        /* \"#utility.yul\":1962:1997   */\n      swap1\n      pop\n        /* \"#utility.yul\":1907:2003   */\n      swap2\n      swap1\n      pop\n      jump\t// out\n        /* \"#utility.yul\":2009:2158   */\n    tag_47:\n        /* \"#utility.yul\":2045:2052   */\n      0x00\n        /* \"#utility.yul\":2085:2151   */\n      0xffffffff00000000000000000000000000000000000000000000000000000000\n        /* \"#utility.yul\":2078:2083   */\n      dup3\n        /* \"#utility.yul\":2074:2152   */\n      and\n        /* \"#utility.yul\":2063:2152   */\n      swap1\n      pop\n        /* \"#utility.yul\":2009:2158   */\n      swap2\n      swap1\n      pop\n      jump\t// out\n        /* \"#utility.yul\":2164:2290   */\n    tag_62:\n        /* \"#utility.yul\":2201:2208   */\n      0x00\n        /* \"#utility.yul\":2241:2283   */\n      0xffffffffffffffffffffffffffffffffffffffff\n        /* \"#utility.yul\":2234:2239   */\n      dup3\n        /* \"#utility.yul\":2230:2284   */\n      and\n        /* \"#utility.yul\":2219:2284   */\n      swap1\n      pop\n        /* \"#utility.yul\":2164:2290   */\n      swap2\n      swap1\n      pop\n      jump\t// out\n        /* \"#utility.yul\":2296:2373   */\n    tag_51:\n        /* \"#utility.yul\":2333:2340   */\n      0x00\n        /* \"#utility.yul\":2362:2367   */\n      dup2\n        /* \"#utility.yul\":2351:2367   */\n      swap1\n      pop\n        /* \"#utility.yul\":2296:2373   */\n      swap2\n      swap1\n      pop\n      jump\t// out\n        /* \"#utility.yul\":2502:2619   */\n    tag_37:\n        /* \"#utility.yul\":2611:2612   */\n      0x00\n        /* \"#utility.yul\":2608:2609   */\n      dup1\n        /* \"#utility.yul\":2601:2613   */\n      revert\n        /* \"#utility.yul\":2625:2747   */\n    tag_29:\n        /* \"#utility.yul\":2698:2722   */\n      tag_70\n        /* \"#utility.yul\":2716:2721   */\n      dup2\n        /* \"#utility.yul\":2698:2722   */\n      tag_43\n      jump\t// in\n    tag_70:\n        /* \"#utility.yul\":2691:2696   */\n      dup2\n        /* \"#utility.yul\":2688:2723   */\n      eq\n        /* \"#utility.yul\":2678:2741   */\n      tag_71\n      jumpi\n        /* \"#utility.yul\":2737:2738   */\n      0x00\n        /* \"#utility.yul\":2734:2735   */\n      dup1\n        /* \"#utility.yul\":2727:2739   */\n      revert\n        /* \"#utility.yul\":2678:2741   */\n    tag_71:\n        /* \"#utility.yul\":2625:2747   */\n      pop\n      jump\t// out\n        /* \"#utility.yul\":2753:2875   */\n    tag_33:\n        /* \"#utility.yul\":2826:2850   */\n      tag_73\n        /* \"#utility.yul\":2844:2849   */\n      dup2\n        /* \"#utility.yul\":2826:2850   */\n      tag_51\n      jump\t// in\n    tag_73:\n        /* \"#utility.yul\":2819:2824   */\n      dup2\n        /* \"#utility.yul\":2816:2851   */\n      eq\n        /* \"#utility.yul\":2806:2869   */\n      tag_74\n      jumpi\n        /* \"#utility.yul\":2865:2866   */\n      0x00\n        /* \"#utility.yul\":2862:2863   */\n      dup1\n        /* \"#utility.yul\":2855:2867   */\n      revert\n        /* \"#utility.yul\":2806:2869   */\n    tag_74:\n        /* \"#utility.yul\":2753:2875   */\n      pop\n      jump\t// out\n\n    auxdata: 0xa26469706673582212208dd2c36fc328716b086b4a97ad0996af91cab894cd9ab801183ca015bed3ae2464736f6c63430008070033\n}\n",
				"bytecode": {
					"linkReferences": {},
					"object": "608060405234801561001057600080fd5b50610339806100206000396000f3fe608060405234801561001057600080fd5b506004361061004c5760003560e01c8063a9059cbb14610051578063aad229d51461006d578063c6e93bad1461008b578063e41706d5146100a9575b600080fd5b61006b600480360381019061006691906101aa565b6100c7565b005b610075610112565b6040516100829190610217565b60405180910390f35b610093610136565b6040516100a0919061024d565b60405180910390f35b6100b161013c565b6040516100be9190610232565b60405180910390f35b816000806101000a81548173ffffffffffffffffffffffffffffffffffffffff021916908373ffffffffffffffffffffffffffffffffffffffff160217905550806001819055505050565b60008054906101000a900473ffffffffffffffffffffffffffffffffffffffff1681565b60015481565b60006040518060400160405280601881526020017f7472616e7366657228616464726573732c75696e74323536000000000000000081525080519060200120905090565b60008135905061018f816102d5565b92915050565b6000813590506101a4816102ec565b92915050565b600080604083850312156101c1576101c06102d0565b5b60006101cf85828601610180565b92505060206101e085828601610195565b9150509250929050565b6101f381610268565b82525050565b6102028161027a565b82525050565b610211816102c6565b82525050565b600060208201905061022c60008301846101ea565b92915050565b600060208201905061024760008301846101f9565b92915050565b60006020820190506102626000830184610208565b92915050565b6000610273826102a6565b9050919050565b60007fffffffff0000000000000000000000000000000000000000000000000000000082169050919050565b600073ffffffffffffffffffffffffffffffffffffffff82169050919050565b6000819050919050565b600080fd5b6102de81610268565b81146102e957600080fd5b50565b6102f5816102c6565b811461030057600080fd5b5056fea26469706673582212208dd2c36fc328716b086b4a97ad0996af91cab894cd9ab801183ca015bed3ae2464736f6c63430008070033",
					"opcodes": "PUSH1 0x80 PUSH1 0x40 MSTORE CALLVALUE DUP1 ISZERO PUSH2 0x10 JUMPI PUSH1 0x0 DUP1 REVERT JUMPDEST POP PUSH2 0x339 DUP1 PUSH2 0x20 PUSH1 0x0 CODECOPY PUSH1 0x0 RETURN INVALID PUSH1 0x80 PUSH1 0x40 MSTORE CALLVALUE DUP1 ISZERO PUSH2 0x10 JUMPI PUSH1 0x0 DUP1 REVERT JUMPDEST POP PUSH1 0x4 CALLDATASIZE LT PUSH2 0x4C JUMPI PUSH1 0x0 CALLDATALOAD PUSH1 0xE0 SHR DUP1 PUSH4 0xA9059CBB EQ PUSH2 0x51 JUMPI DUP1 PUSH4 0xAAD229D5 EQ PUSH2 0x6D JUMPI DUP1 PUSH4 0xC6E93BAD EQ PUSH2 0x8B JUMPI DUP1 PUSH4 0xE41706D5 EQ PUSH2 0xA9 JUMPI JUMPDEST PUSH1 0x0 DUP1 REVERT JUMPDEST PUSH2 0x6B PUSH1 0x4 DUP1 CALLDATASIZE SUB DUP2 ADD SWAP1 PUSH2 0x66 SWAP2 SWAP1 PUSH2 0x1AA JUMP JUMPDEST PUSH2 0xC7 JUMP JUMPDEST STOP JUMPDEST PUSH2 0x75 PUSH2 0x112 JUMP JUMPDEST PUSH1 0x40 MLOAD PUSH2 0x82 SWAP2 SWAP1 PUSH2 0x217 JUMP JUMPDEST PUSH1 0x40 MLOAD DUP1 SWAP2 SUB SWAP1 RETURN JUMPDEST PUSH2 0x93 PUSH2 0x136 JUMP JUMPDEST PUSH1 0x40 MLOAD PUSH2 0xA0 SWAP2 SWAP1 PUSH2 0x24D JUMP JUMPDEST PUSH1 0x40 MLOAD DUP1 SWAP2 SUB SWAP1 RETURN JUMPDEST PUSH2 0xB1 PUSH2 0x13C JUMP JUMPDEST PUSH1 0x40 MLOAD PUSH2 0xBE SWAP2 SWAP1 PUSH2 0x232 JUMP JUMPDEST PUSH1 0x40 MLOAD DUP1 SWAP2 SUB SWAP1 RETURN JUMPDEST DUP2 PUSH1 0x0 DUP1 PUSH2 0x100 EXP DUP2 SLOAD DUP2 PUSH20 0xFFFFFFFFFFFFFFFFFFFFFFFFFFFFFFFFFFFFFFFF MUL NOT AND SWAP1 DUP4 PUSH20 0xFFFFFFFFFFFFFFFFFFFFFFFFFFFFFFFFFFFFFFFF AND MUL OR SWAP1 SSTORE POP DUP1 PUSH1 0x1 DUP2 SWAP1 SSTORE POP POP POP JUMP JUMPDEST PUSH1 0x0 DUP1 SLOAD SWAP1 PUSH2 0x100 EXP SWAP1 DIV PUSH20 0xFFFFFFFFFFFFFFFFFFFFFFFFFFFFFFFFFFFFFFFF AND DUP2 JUMP JUMPDEST PUSH1 0x1 SLOAD DUP2 JUMP JUMPDEST PUSH1 0x0 PUSH1 0x40 MLOAD DUP1 PUSH1 0x40 ADD PUSH1 0x40 MSTORE DUP1 PUSH1 0x18 DUP2 MSTORE PUSH1 0x20 ADD PUSH32 0x7472616E7366657228616464726573732C75696E743235360000000000000000 DUP2 MSTORE POP DUP1 MLOAD SWAP1 PUSH1 0x20 ADD KECCAK256 SWAP1 POP SWAP1 JUMP JUMPDEST PUSH1 0x0 DUP2 CALLDATALOAD SWAP1 POP PUSH2 0x18F DUP2 PUSH2 0x2D5 JUMP JUMPDEST SWAP3 SWAP2 POP POP JUMP JUMPDEST PUSH1 0x0 DUP2 CALLDATALOAD SWAP1 POP PUSH2 0x1A4 DUP2 PUSH2 0x2EC JUMP JUMPDEST SWAP3 SWAP2 POP POP JUMP JUMPDEST PUSH1 0x0 DUP1 PUSH1 0x40 DUP4 DUP6 SUB SLT ISZERO PUSH2 0x1C1 JUMPI PUSH2 0x1C0 PUSH2 0x2D0 JUMP JUMPDEST JUMPDEST PUSH1 0x0 PUSH2 0x1CF DUP6 DUP3 DUP7 ADD PUSH2 0x180 JUMP JUMPDEST SWAP3 POP POP PUSH1 0x20 PUSH2 0x1E0 DUP6 DUP3 DUP7 ADD PUSH2 0x195 JUMP JUMPDEST SWAP2 POP POP SWAP3 POP SWAP3 SWAP1 POP JUMP JUMPDEST PUSH2 0x1F3 DUP2 PUSH2 0x268 JUMP JUMPDEST DUP3 MSTORE POP POP JUMP JUMPDEST PUSH2 0x202 DUP2 PUSH2 0x27A JUMP JUMPDEST DUP3 MSTORE POP POP JUMP JUMPDEST PUSH2 0x211 DUP2 PUSH2 0x2C6 JUMP JUMPDEST DUP3 MSTORE POP POP JUMP JUMPDEST PUSH1 0x0 PUSH1 0x20 DUP3 ADD SWAP1 POP PUSH2 0x22C PUSH1 0x0 DUP4 ADD DUP5 PUSH2 0x1EA JUMP JUMPDEST SWAP3 SWAP2 POP POP JUMP JUMPDEST PUSH1 0x0 PUSH1 0x20 DUP3 ADD SWAP1 POP PUSH2 0x247 PUSH1 0x0 DUP4 ADD DUP5 PUSH2 0x1F9 JUMP JUMPDEST SWAP3 SWAP2 POP POP JUMP JUMPDEST PUSH1 0x0 PUSH1 0x20 DUP3 ADD SWAP1 POP PUSH2 0x262 PUSH1 0x0 DUP4 ADD DUP5 PUSH2 0x208 JUMP JUMPDEST SWAP3 SWAP2 POP POP JUMP JUMPDEST PUSH1 0x0 PUSH2 0x273 DUP3 PUSH2 0x2A6 JUMP JUMPDEST SWAP1 POP SWAP2 SWAP1 POP JUMP JUMPDEST PUSH1 0x0 PUSH32 0xFFFFFFFF00000000000000000000000000000000000000000000000000000000 DUP3 AND SWAP1 POP SWAP2 SWAP1 POP JUMP JUMPDEST PUSH1 0x0 PUSH20 0xFFFFFFFFFFFFFFFFFFFFFFFFFFFFFFFFFFFFFFFF DUP3 AND SWAP1 POP SWAP2 SWAP1 POP JUMP JUMPDEST PUSH1 0x0 DUP2 SWAP1 POP SWAP2 SWAP1 POP JUMP JUMPDEST PUSH1 0x0 DUP1 REVERT JUMPDEST PUSH2 0x2DE DUP2 PUSH2 0x268 JUMP JUMPDEST DUP2 EQ PUSH2 0x2E9 JUMPI PUSH1 0x0 DUP1 REVERT JUMPDEST POP JUMP JUMPDEST PUSH2 0x2F5 DUP2 PUSH2 0x2C6 JUMP JUMPDEST DUP2 EQ PUSH2 0x300 JUMPI PUSH1 0x0 DUP1 REVERT JUMPDEST POP JUMP INVALID LOG2 PUSH5 0x6970667358 0x22 SLT KECCAK256 DUP14 0xD2 0xC3 PUSH16 0xC328716B086B4A97AD0996AF91CAB894 0xCD SWAP11 0xB8 ADD XOR EXTCODECOPY LOG0 ISZERO 0xBE 0xD3 0xAE 0x24 PUSH5 0x736F6C6343 STOP ADDMOD SMOD STOP CALLER "
				},
				"gasEstimates": {
					"creation": {
						"codeDepositCost": "165000",
						"executionCost": "208",
						"totalCost": "165208"
					},
					"external": {
						"getselectorOne()": "491",
						"s_amount()": "2451",
						"s_someAddress()": "2511",
						"transfer(address,uint256)": "46987"
					}
				},
				"methodIdentifiers": {
					"getselectorOne()": "e41706d5",
					"s_amount()": "c6e93bad",
					"s_someAddress()": "aad229d5",
					"transfer(address,uint256)": "a9059cbb"
				}
			},
			"storageLayout": {
				"storage": [
					{
						"astId": 3,
						"contract": "CallAnything.sol:CallAnything",
						"label": "s_someAddress",
						"offset": 0,
						"slot": "0",
						"type": "t_address"
					},
					{
						"astId": 5,
						"contract": "CallAnything.sol:CallAnything",
						"label": "s_amount",
						"offset": 0,
						"slot": "1",
						"type": "t_uint256"
					}
				],
				"types": {
					"t_address": {
						"encoding": "inplace",
						"label": "address",
						"numberOfBytes": "20"
					},
					"t_uint256": {
						"encoding": "inplace",
						"label": "uint256",
						"numberOfBytes": "32"
					}
				}
			},
			"userdoc": {
				"kind": "user",
				"methods": {},
				"version": 1
			}
		}
	}
}