{
	"FundMe.sol": {
		"FundMe": {
			"abi": [
				{
					"inputs": [],
					"name": "conversion",
					"outputs": [],
					"stateMutability": "nonpayable",
					"type": "function"
				},
				{
					"inputs": [],
					"name": "fund",
					"outputs": [],
					"stateMutability": "payable",
					"type": "function"
				},
				{
					"inputs": [],
					"name": "getPrice",
					"outputs": [],
					"stateMutability": "nonpayable",
					"type": "function"
				},
				{
					"inputs": [],
					"name": "getVersion",
					"outputs": [
						{
							"internalType": "uint256",
							"name": "",
							"type": "uint256"
						}
					],
					"stateMutability": "view",
					"type": "function"
				},
				{
					"inputs": [],
					"name": "withdraw",
					"outputs": [],
					"stateMutability": "nonpayable",
					"type": "function"
				}
			],
			"devdoc": {
				"kind": "dev",
				"methods": {},
				"version": 1
			},
			"evm": {
				"assembly": "    /* \"FundMe.sol\":698:1233  contract FundMe {... */\n  mstore(0x40, 0x80)\n    /* \"FundMe.sol\":744:745  5 */\n  0x05\n    /* \"FundMe.sol\":723:745  uint256 minimumUsd = 5 */\n  0x00\n  sstore\n    /* \"FundMe.sol\":698:1233  contract FundMe {... */\n  callvalue\n  dup1\n  iszero\n  tag_1\n  jumpi\n  0x00\n  dup1\n  revert\ntag_1:\n  pop\n  dataSize(sub_0)\n  dup1\n  dataOffset(sub_0)\n  0x00\n  codecopy\n  0x00\n  return\nstop\n\nsub_0: assembly {\n        /* \"FundMe.sol\":698:1233  contract FundMe {... */\n      mstore(0x40, 0x80)\n      jumpi(tag_1, lt(calldatasize, 0x04))\n      shr(0xe0, calldataload(0x00))\n      dup1\n      0x0d8e6e2c\n      eq\n      tag_2\n      jumpi\n      dup1\n      0x3ccfd60b\n      eq\n      tag_3\n      jumpi\n      dup1\n      0x9311ca69\n      eq\n      tag_4\n      jumpi\n      dup1\n      0x98d5fdca\n      eq\n      tag_5\n      jumpi\n      dup1\n      0xb60d4288\n      eq\n      tag_6\n      jumpi\n    tag_1:\n      0x00\n      dup1\n      revert\n        /* \"FundMe.sol\":1079:1230  function getVersion() public view returns(uint256){... */\n    tag_2:\n      callvalue\n      dup1\n      iszero\n      tag_7\n      jumpi\n      0x00\n      dup1\n      revert\n    tag_7:\n      pop\n      tag_8\n      tag_9\n      jump\t// in\n    tag_8:\n      mload(0x40)\n      tag_10\n      swap2\n      swap1\n      tag_11\n      jump\t// in\n    tag_10:\n      mload(0x40)\n      dup1\n      swap2\n      sub\n      swap1\n      return\n        /* \"FundMe.sol\":872:909  function withdraw() public {... */\n    tag_3:\n      callvalue\n      dup1\n      iszero\n      tag_12\n      jumpi\n      0x00\n      dup1\n      revert\n    tag_12:\n      pop\n      tag_13\n      tag_14\n      jump\t// in\n    tag_13:\n      stop\n        /* \"FundMe.sol\":1025:1073  function conversion () public {... */\n    tag_4:\n      callvalue\n      dup1\n      iszero\n      tag_15\n      jumpi\n      0x00\n      dup1\n      revert\n    tag_15:\n      pop\n      tag_16\n      tag_17\n      jump\t// in\n    tag_16:\n      stop\n        /* \"FundMe.sol\":921:1019  function getPrice () public {... */\n    tag_5:\n      callvalue\n      dup1\n      iszero\n      tag_18\n      jumpi\n      0x00\n      dup1\n      revert\n    tag_18:\n      pop\n      tag_19\n      tag_20\n      jump\t// in\n    tag_19:\n      stop\n        /* \"FundMe.sol\":754:864  function fund() public payable {... */\n    tag_6:\n      tag_21\n      tag_22\n      jump\t// in\n    tag_21:\n      stop\n        /* \"FundMe.sol\":1079:1230  function getVersion() public view returns(uint256){... */\n    tag_9:\n        /* \"FundMe.sol\":1121:1128  uint256 */\n      0x00\n        /* \"FundMe.sol\":1169:1211  0x694AA1769357215DE4FAC081bf1f309aDC325306 */\n      0x694aa1769357215de4fac081bf1f309adc325306\n        /* \"FundMe.sol\":1147:1220  AggregatorV3Interface(0x694AA1769357215DE4FAC081bf1f309aDC325306).version */\n      0xffffffffffffffffffffffffffffffffffffffff\n      and\n      0x54fd4d50\n        /* \"FundMe.sol\":1147:1222  AggregatorV3Interface(0x694AA1769357215DE4FAC081bf1f309aDC325306).version() */\n      mload(0x40)\n      dup2\n      0xffffffff\n      and\n      0xe0\n      shl\n      dup2\n      mstore\n      0x04\n      add\n      0x20\n      mload(0x40)\n      dup1\n      dup4\n      sub\n      dup2\n      dup7\n      gas\n      staticcall\n      iszero\n      dup1\n      iszero\n      tag_25\n      jumpi\n      returndatasize\n      0x00\n      dup1\n      returndatacopy\n      revert(0x00, returndatasize)\n    tag_25:\n      pop\n      pop\n      pop\n      pop\n      mload(0x40)\n      returndatasize\n      not(0x1f)\n      0x1f\n      dup3\n      add\n      and\n      dup3\n      add\n      dup1\n      0x40\n      mstore\n      pop\n      dup2\n      add\n      swap1\n      tag_26\n      swap2\n      swap1\n      tag_27\n      jump\t// in\n    tag_26:\n        /* \"FundMe.sol\":1140:1222  return AggregatorV3Interface(0x694AA1769357215DE4FAC081bf1f309aDC325306).version() */\n      swap1\n      pop\n        /* \"FundMe.sol\":1079:1230  function getVersion() public view returns(uint256){... */\n      swap1\n      jump\t// out\n        /* \"FundMe.sol\":872:909  function withdraw() public {... */\n    tag_14:\n      jump\t// out\n        /* \"FundMe.sol\":1025:1073  function conversion () public {... */\n    tag_17:\n      jump\t// out\n        /* \"FundMe.sol\":921:1019  function getPrice () public {... */\n    tag_20:\n      jump\t// out\n        /* \"FundMe.sol\":754:864  function fund() public payable {... */\n    tag_22:\n        /* \"FundMe.sol\":816:826  minimumUsd */\n      sload(0x00)\n        /* \"FundMe.sol\":804:813  msg.value */\n      callvalue\n        /* \"FundMe.sol\":804:826  msg.value > minimumUsd */\n      gt\n        /* \"FundMe.sol\":796:856  require(msg.value > minimumUsd, \"didn't have enough amount\") */\n      tag_32\n      jumpi\n      mload(0x40)\n      0x08c379a000000000000000000000000000000000000000000000000000000000\n      dup2\n      mstore\n      0x04\n      add\n      tag_33\n      swap1\n      tag_34\n      jump\t// in\n    tag_33:\n      mload(0x40)\n      dup1\n      swap2\n      sub\n      swap1\n      revert\n    tag_32:\n        /* \"FundMe.sol\":754:864  function fund() public payable {... */\n      jump\t// out\n        /* \"#utility.yul\":7:84   */\n    tag_35:\n        /* \"#utility.yul\":44:51   */\n      0x00\n        /* \"#utility.yul\":73:78   */\n      dup2\n        /* \"#utility.yul\":62:78   */\n      swap1\n      pop\n        /* \"#utility.yul\":7:84   */\n      swap2\n      swap1\n      pop\n      jump\t// out\n        /* \"#utility.yul\":90:208   */\n    tag_36:\n        /* \"#utility.yul\":177:201   */\n      tag_48\n        /* \"#utility.yul\":195:200   */\n      dup2\n        /* \"#utility.yul\":177:201   */\n      tag_35\n      jump\t// in\n    tag_48:\n        /* \"#utility.yul\":172:175   */\n      dup3\n        /* \"#utility.yul\":165:202   */\n      mstore\n        /* \"#utility.yul\":90:208   */\n      pop\n      pop\n      jump\t// out\n        /* \"#utility.yul\":214:436   */\n    tag_11:\n        /* \"#utility.yul\":307:311   */\n      0x00\n        /* \"#utility.yul\":345:347   */\n      0x20\n        /* \"#utility.yul\":334:343   */\n      dup3\n        /* \"#utility.yul\":330:348   */\n      add\n        /* \"#utility.yul\":322:348   */\n      swap1\n      pop\n        /* \"#utility.yul\":358:429   */\n      tag_50\n        /* \"#utility.yul\":426:427   */\n      0x00\n        /* \"#utility.yul\":415:424   */\n      dup4\n        /* \"#utility.yul\":411:428   */\n      add\n        /* \"#utility.yul\":402:408   */\n      dup5\n        /* \"#utility.yul\":358:429   */\n      tag_36\n      jump\t// in\n    tag_50:\n        /* \"#utility.yul\":214:436   */\n      swap3\n      swap2\n      pop\n      pop\n      jump\t// out\n        /* \"#utility.yul\":523:640   */\n    tag_38:\n        /* \"#utility.yul\":632:633   */\n      0x00\n        /* \"#utility.yul\":629:630   */\n      dup1\n        /* \"#utility.yul\":622:634   */\n      revert\n        /* \"#utility.yul\":769:891   */\n    tag_40:\n        /* \"#utility.yul\":842:866   */\n      tag_55\n        /* \"#utility.yul\":860:865   */\n      dup2\n        /* \"#utility.yul\":842:866   */\n      tag_35\n      jump\t// in\n    tag_55:\n        /* \"#utility.yul\":835:840   */\n      dup2\n        /* \"#utility.yul\":832:867   */\n      eq\n        /* \"#utility.yul\":822:885   */\n      tag_56\n      jumpi\n        /* \"#utility.yul\":881:882   */\n      0x00\n        /* \"#utility.yul\":878:879   */\n      dup1\n        /* \"#utility.yul\":871:883   */\n      revert\n        /* \"#utility.yul\":822:885   */\n    tag_56:\n        /* \"#utility.yul\":769:891   */\n      pop\n      jump\t// out\n        /* \"#utility.yul\":897:1040   */\n    tag_41:\n        /* \"#utility.yul\":954:959   */\n      0x00\n        /* \"#utility.yul\":985:991   */\n      dup2\n        /* \"#utility.yul\":979:992   */\n      mload\n        /* \"#utility.yul\":970:992   */\n      swap1\n      pop\n        /* \"#utility.yul\":1001:1034   */\n      tag_58\n        /* \"#utility.yul\":1028:1033   */\n      dup2\n        /* \"#utility.yul\":1001:1034   */\n      tag_40\n      jump\t// in\n    tag_58:\n        /* \"#utility.yul\":897:1040   */\n      swap3\n      swap2\n      pop\n      pop\n      jump\t// out\n        /* \"#utility.yul\":1046:1397   */\n    tag_27:\n        /* \"#utility.yul\":1116:1122   */\n      0x00\n        /* \"#utility.yul\":1165:1167   */\n      0x20\n        /* \"#utility.yul\":1153:1162   */\n      dup3\n        /* \"#utility.yul\":1144:1151   */\n      dup5\n        /* \"#utility.yul\":1140:1163   */\n      sub\n        /* \"#utility.yul\":1136:1168   */\n      slt\n        /* \"#utility.yul\":1133:1252   */\n      iszero\n      tag_60\n      jumpi\n        /* \"#utility.yul\":1171:1250   */\n      tag_61\n      tag_38\n      jump\t// in\n    tag_61:\n        /* \"#utility.yul\":1133:1252   */\n    tag_60:\n        /* \"#utility.yul\":1291:1292   */\n      0x00\n        /* \"#utility.yul\":1316:1380   */\n      tag_62\n        /* \"#utility.yul\":1372:1379   */\n      dup5\n        /* \"#utility.yul\":1363:1369   */\n      dup3\n        /* \"#utility.yul\":1352:1361   */\n      dup6\n        /* \"#utility.yul\":1348:1370   */\n      add\n        /* \"#utility.yul\":1316:1380   */\n      tag_41\n      jump\t// in\n    tag_62:\n        /* \"#utility.yul\":1306:1380   */\n      swap2\n      pop\n        /* \"#utility.yul\":1262:1390   */\n      pop\n        /* \"#utility.yul\":1046:1397   */\n      swap3\n      swap2\n      pop\n      pop\n      jump\t// out\n        /* \"#utility.yul\":1403:1572   */\n    tag_42:\n        /* \"#utility.yul\":1487:1498   */\n      0x00\n        /* \"#utility.yul\":1521:1527   */\n      dup3\n        /* \"#utility.yul\":1516:1519   */\n      dup3\n        /* \"#utility.yul\":1509:1528   */\n      mstore\n        /* \"#utility.yul\":1561:1565   */\n      0x20\n        /* \"#utility.yul\":1556:1559   */\n      dup3\n        /* \"#utility.yul\":1552:1566   */\n      add\n        /* \"#utility.yul\":1537:1566   */\n      swap1\n      pop\n        /* \"#utility.yul\":1403:1572   */\n      swap3\n      swap2\n      pop\n      pop\n      jump\t// out\n        /* \"#utility.yul\":1578:1753   */\n    tag_43:\n        /* \"#utility.yul\":1718:1745   */\n      0x6469646e2774206861766520656e6f75676820616d6f756e7400000000000000\n        /* \"#utility.yul\":1714:1715   */\n      0x00\n        /* \"#utility.yul\":1706:1712   */\n      dup3\n        /* \"#utility.yul\":1702:1716   */\n      add\n        /* \"#utility.yul\":1695:1746   */\n      mstore\n        /* \"#utility.yul\":1578:1753   */\n      pop\n      jump\t// out\n        /* \"#utility.yul\":1759:2125   */\n    tag_44:\n        /* \"#utility.yul\":1901:1904   */\n      0x00\n        /* \"#utility.yul\":1922:1989   */\n      tag_66\n        /* \"#utility.yul\":1986:1988   */\n      0x19\n        /* \"#utility.yul\":1981:1984   */\n      dup4\n        /* \"#utility.yul\":1922:1989   */\n      tag_42\n      jump\t// in\n    tag_66:\n        /* \"#utility.yul\":1915:1989   */\n      swap2\n      pop\n        /* \"#utility.yul\":1998:2091   */\n      tag_67\n        /* \"#utility.yul\":2087:2090   */\n      dup3\n        /* \"#utility.yul\":1998:2091   */\n      tag_43\n      jump\t// in\n    tag_67:\n        /* \"#utility.yul\":2116:2118   */\n      0x20\n        /* \"#utility.yul\":2111:2114   */\n      dup3\n        /* \"#utility.yul\":2107:2119   */\n      add\n        /* \"#utility.yul\":2100:2119   */\n      swap1\n      pop\n        /* \"#utility.yul\":1759:2125   */\n      swap2\n      swap1\n      pop\n      jump\t// out\n        /* \"#utility.yul\":2131:2550   */\n    tag_34:\n        /* \"#utility.yul\":2297:2301   */\n      0x00\n        /* \"#utility.yul\":2335:2337   */\n      0x20\n        /* \"#utility.yul\":2324:2333   */\n      dup3\n        /* \"#utility.yul\":2320:2338   */\n      add\n        /* \"#utility.yul\":2312:2338   */\n      swap1\n      pop\n        /* \"#utility.yul\":2384:2393   */\n      dup2\n        /* \"#utility.yul\":2378:2382   */\n      dup2\n        /* \"#utility.yul\":2374:2394   */\n      sub\n        /* \"#utility.yul\":2370:2371   */\n      0x00\n        /* \"#utility.yul\":2359:2368   */\n      dup4\n        /* \"#utility.yul\":2355:2372   */\n      add\n        /* \"#utility.yul\":2348:2395   */\n      mstore\n        /* \"#utility.yul\":2412:2543   */\n      tag_69\n        /* \"#utility.yul\":2538:2542   */\n      dup2\n        /* \"#utility.yul\":2412:2543   */\n      tag_44\n      jump\t// in\n    tag_69:\n        /* \"#utility.yul\":2404:2543   */\n      swap1\n      pop\n        /* \"#utility.yul\":2131:2550   */\n      swap2\n      swap1\n      pop\n      jump\t// out\n\n    auxdata: 0xa26469706673582212207317cd9cc2c257e4c4890f2201dfdf9809531099d9b431ebe062d43afd462ef164736f6c634300081a0033\n}\n",
				"bytecode": {
					"linkReferences": {},
					"object": "608060405260055f553480156012575f80fd5b506102cd806100205f395ff3fe608060405260043610610049575f3560e01c80630d8e6e2c1461004d5780633ccfd60b146100775780639311ca691461008d57806398d5fdca146100a3578063b60d4288146100b9575b5f80fd5b348015610058575f80fd5b506100616100c3565b60405161006e91906101ad565b60405180910390f35b348015610082575f80fd5b5061008b61014a565b005b348015610098575f80fd5b506100a161014c565b005b3480156100ae575f80fd5b506100b761014e565b005b6100c1610150565b005b5f73694aa1769357215de4fac081bf1f309adc32530673ffffffffffffffffffffffffffffffffffffffff166354fd4d506040518163ffffffff1660e01b8152600401602060405180830381865afa158015610121573d5f803e3d5ffd5b505050506040513d601f19601f8201168201806040525081019061014591906101f4565b905090565b565b565b565b5f543411610193576040517f08c379a000000000000000000000000000000000000000000000000000000000815260040161018a90610279565b60405180910390fd5b565b5f819050919050565b6101a781610195565b82525050565b5f6020820190506101c05f83018461019e565b92915050565b5f80fd5b6101d381610195565b81146101dd575f80fd5b50565b5f815190506101ee816101ca565b92915050565b5f60208284031215610209576102086101c6565b5b5f610216848285016101e0565b91505092915050565b5f82825260208201905092915050565b7f6469646e2774206861766520656e6f75676820616d6f756e74000000000000005f82015250565b5f61026360198361021f565b915061026e8261022f565b602082019050919050565b5f6020820190508181035f83015261029081610257565b905091905056fea26469706673582212207317cd9cc2c257e4c4890f2201dfdf9809531099d9b431ebe062d43afd462ef164736f6c634300081a0033",
					"opcodes": "PUSH1 0x80 PUSH1 0x40 MSTORE PUSH1 0x5 PUSH0 SSTORE CALLVALUE DUP1 ISZERO PUSH1 0x12 JUMPI PUSH0 DUP1 REVERT JUMPDEST POP PUSH2 0x2CD DUP1 PUSH2 0x20 PUSH0 CODECOPY PUSH0 RETURN INVALID PUSH1 0x80 PUSH1 0x40 MSTORE PUSH1 0x4 CALLDATASIZE LT PUSH2 0x49 JUMPI PUSH0 CALLDATALOAD PUSH1 0xE0 SHR DUP1 PUSH4 0xD8E6E2C EQ PUSH2 0x4D JUMPI DUP1 PUSH4 0x3CCFD60B EQ PUSH2 0x77 JUMPI DUP1 PUSH4 0x9311CA69 EQ PUSH2 0x8D JUMPI DUP1 PUSH4 0x98D5FDCA EQ PUSH2 0xA3 JUMPI DUP1 PUSH4 0xB60D4288 EQ PUSH2 0xB9 JUMPI JUMPDEST PUSH0 DUP1 REVERT JUMPDEST CALLVALUE DUP1 ISZERO PUSH2 0x58 JUMPI PUSH0 DUP1 REVERT JUMPDEST POP PUSH2 0x61 PUSH2 0xC3 JUMP JUMPDEST PUSH1 0x40 MLOAD PUSH2 0x6E SWAP2 SWAP1 PUSH2 0x1AD JUMP JUMPDEST PUSH1 0x40 MLOAD DUP1 SWAP2 SUB SWAP1 RETURN JUMPDEST CALLVALUE DUP1 ISZERO PUSH2 0x82 JUMPI PUSH0 DUP1 REVERT JUMPDEST POP PUSH2 0x8B PUSH2 0x14A JUMP JUMPDEST STOP JUMPDEST CALLVALUE DUP1 ISZERO PUSH2 0x98 JUMPI PUSH0 DUP1 REVERT JUMPDEST POP PUSH2 0xA1 PUSH2 0x14C JUMP JUMPDEST STOP JUMPDEST CALLVALUE DUP1 ISZERO PUSH2 0xAE JUMPI PUSH0 DUP1 REVERT JUMPDEST POP PUSH2 0xB7 PUSH2 0x14E JUMP JUMPDEST STOP JUMPDEST PUSH2 0xC1 PUSH2 0x150 JUMP JUMPDEST STOP JUMPDEST PUSH0 PUSH20 0x694AA1769357215DE4FAC081BF1F309ADC325306 PUSH20 0xFFFFFFFFFFFFFFFFFFFFFFFFFFFFFFFFFFFFFFFF AND PUSH4 0x54FD4D50 PUSH1 0x40 MLOAD DUP2 PUSH4 0xFFFFFFFF AND PUSH1 0xE0 SHL DUP2 MSTORE PUSH1 0x4 ADD PUSH1 0x20 PUSH1 0x40 MLOAD DUP1 DUP4 SUB DUP2 DUP7 GAS STATICCALL ISZERO DUP1 ISZERO PUSH2 0x121 JUMPI RETURNDATASIZE PUSH0 DUP1 RETURNDATACOPY RETURNDATASIZE PUSH0 REVERT JUMPDEST POP POP POP POP PUSH1 0x40 MLOAD RETURNDATASIZE PUSH1 0x1F NOT PUSH1 0x1F DUP3 ADD AND DUP3 ADD DUP1 PUSH1 0x40 MSTORE POP DUP2 ADD SWAP1 PUSH2 0x145 SWAP2 SWAP1 PUSH2 0x1F4 JUMP JUMPDEST SWAP1 POP SWAP1 JUMP JUMPDEST JUMP JUMPDEST JUMP JUMPDEST JUMP JUMPDEST PUSH0 SLOAD CALLVALUE GT PUSH2 0x193 JUMPI PUSH1 0x40 MLOAD PUSH32 0x8C379A000000000000000000000000000000000000000000000000000000000 DUP2 MSTORE PUSH1 0x4 ADD PUSH2 0x18A SWAP1 PUSH2 0x279 JUMP JUMPDEST PUSH1 0x40 MLOAD DUP1 SWAP2 SUB SWAP1 REVERT JUMPDEST JUMP JUMPDEST PUSH0 DUP2 SWAP1 POP SWAP2 SWAP1 POP JUMP JUMPDEST PUSH2 0x1A7 DUP2 PUSH2 0x195 JUMP JUMPDEST DUP3 MSTORE POP POP JUMP JUMPDEST PUSH0 PUSH1 0x20 DUP3 ADD SWAP1 POP PUSH2 0x1C0 PUSH0 DUP4 ADD DUP5 PUSH2 0x19E JUMP JUMPDEST SWAP3 SWAP2 POP POP JUMP JUMPDEST PUSH0 DUP1 REVERT JUMPDEST PUSH2 0x1D3 DUP2 PUSH2 0x195 JUMP JUMPDEST DUP2 EQ PUSH2 0x1DD JUMPI PUSH0 DUP1 REVERT JUMPDEST POP JUMP JUMPDEST PUSH0 DUP2 MLOAD SWAP1 POP PUSH2 0x1EE DUP2 PUSH2 0x1CA JUMP JUMPDEST SWAP3 SWAP2 POP POP JUMP JUMPDEST PUSH0 PUSH1 0x20 DUP3 DUP5 SUB SLT ISZERO PUSH2 0x209 JUMPI PUSH2 0x208 PUSH2 0x1C6 JUMP JUMPDEST JUMPDEST PUSH0 PUSH2 0x216 DUP5 DUP3 DUP6 ADD PUSH2 0x1E0 JUMP JUMPDEST SWAP2 POP POP SWAP3 SWAP2 POP POP JUMP JUMPDEST PUSH0 DUP3 DUP3 MSTORE PUSH1 0x20 DUP3 ADD SWAP1 POP SWAP3 SWAP2 POP POP JUMP JUMPDEST PUSH32 0x6469646E2774206861766520656E6F75676820616D6F756E7400000000000000 PUSH0 DUP3 ADD MSTORE POP JUMP JUMPDEST PUSH0 PUSH2 0x263 PUSH1 0x19 DUP4 PUSH2 0x21F JUMP JUMPDEST SWAP2 POP PUSH2 0x26E DUP3 PUSH2 0x22F JUMP JUMPDEST PUSH1 0x20 DUP3 ADD SWAP1 POP SWAP2 SWAP1 POP JUMP JUMPDEST PUSH0 PUSH1 0x20 DUP3 ADD SWAP1 POP DUP2 DUP2 SUB PUSH0 DUP4 ADD MSTORE PUSH2 0x290 DUP2 PUSH2 0x257 JUMP JUMPDEST SWAP1 POP SWAP2 SWAP1 POP JUMP INVALID LOG2 PUSH5 0x6970667358 0x22 SLT KECCAK256 PUSH20 0x17CD9CC2C257E4C4890F2201DFDF9809531099D9 0xB4 BALANCE 0xEB 0xE0 PUSH3 0xD43AFD CHAINID 0x2E CALL PUSH5 0x736F6C6343 STOP ADDMOD BYTE STOP CALLER "
				},
				"gasEstimates": {
					"creation": {
						"codeDepositCost": "143400",
						"executionCost": "22293",
						"totalCost": "165693"
					},
					"external": {
						"conversion()": "165",
						"fund()": "2590",
						"getPrice()": "187",
						"getVersion()": "infinite",
						"withdraw()": "143"
					}
				},
				"methodIdentifiers": {
					"conversion()": "9311ca69",
					"fund()": "b60d4288",
					"getPrice()": "98d5fdca",
					"getVersion()": "0d8e6e2c",
					"withdraw()": "3ccfd60b"
				}
			},
			"storageLayout": {
				"storage": [
					{
						"astId": 48,
						"contract": "FundMe.sol:FundMe",
						"label": "minimumUsd",
						"offset": 0,
						"slot": "0",
						"type": "t_uint256"
					}
				],
				"types": {
					"t_uint256": {
						"encoding": "inplace",
						"label": "uint256",
						"numberOfBytes": "32"
					}
				}
			},
			"userdoc": {
				"kind": "user",
				"methods": {},
				"version": 1
			}
		}
	}
}