{
	"CallAnything.sol": {
		"CallAnything": {
			"abi": [
				{
					"inputs": [],
					"name": "callAnotherFunction",
					"outputs": [
						{
							"internalType": "bool",
							"name": "",
							"type": "bool"
						}
					],
					"stateMutability": "view",
					"type": "function"
				},
				{
					"inputs": [
						{
							"internalType": "address",
							"name": "someAddress",
							"type": "address"
						},
						{
							"internalType": "uint256",
							"name": "amount",
							"type": "uint256"
						}
					],
					"name": "callTransferFunctionDirectly",
					"outputs": [
						{
							"internalType": "bytes4",
							"name": "",
							"type": "bytes4"
						},
						{
							"internalType": "bool",
							"name": "",
							"type": "bool"
						}
					],
					"stateMutability": "nonpayable",
					"type": "function"
				},
				{
					"inputs": [
						{
							"internalType": "address",
							"name": "someAddress",
							"type": "address"
						},
						{
							"internalType": "uint256",
							"name": "amount",
							"type": "uint256"
						}
					],
					"name": "callTransferFunctionDirectlySig",
					"outputs": [
						{
							"internalType": "bytes4",
							"name": "",
							"type": "bytes4"
						},
						{
							"internalType": "bool",
							"name": "",
							"type": "bool"
						}
					],
					"stateMutability": "nonpayable",
					"type": "function"
				},
				{
					"inputs": [],
					"name": "getDataToCallCallAnotherFunction",
					"outputs": [
						{
							"internalType": "bytes",
							"name": "",
							"type": "bytes"
						}
					],
					"stateMutability": "pure",
					"type": "function"
				},
				{
					"inputs": [
						{
							"internalType": "address",
							"name": "someAddress",
							"type": "address"
						},
						{
							"internalType": "uint256",
							"name": "amount",
							"type": "uint256"
						}
					],
					"name": "getDataToCallTransfer",
					"outputs": [
						{
							"internalType": "bytes",
							"name": "",
							"type": "bytes"
						}
					],
					"stateMutability": "pure",
					"type": "function"
				},
				{
					"inputs": [],
					"name": "getselectorOne",
					"outputs": [
						{
							"internalType": "bytes4",
							"name": "selector",
							"type": "bytes4"
						}
					],
					"stateMutability": "pure",
					"type": "function"
				},
				{
					"inputs": [],
					"name": "getselectorTwo",
					"outputs": [
						{
							"internalType": "bytes4",
							"name": "selector",
							"type": "bytes4"
						}
					],
					"stateMutability": "pure",
					"type": "function"
				},
				{
					"inputs": [],
					"name": "s_amount",
					"outputs": [
						{
							"internalType": "uint256",
							"name": "",
							"type": "uint256"
						}
					],
					"stateMutability": "view",
					"type": "function"
				},
				{
					"inputs": [],
					"name": "s_someAddress",
					"outputs": [
						{
							"internalType": "address",
							"name": "",
							"type": "address"
						}
					],
					"stateMutability": "view",
					"type": "function"
				},
				{
					"inputs": [
						{
							"internalType": "address",
							"name": "someAddress",
							"type": "address"
						},
						{
							"internalType": "uint256",
							"name": "amount",
							"type": "uint256"
						}
					],
					"name": "transfer",
					"outputs": [],
					"stateMutability": "nonpayable",
					"type": "function"
				}
			],
			"devdoc": {
				"kind": "dev",
				"methods": {},
				"version": 1
			},
			"evm": {
				"assembly": "    /* \"CallAnything.sol\":493:2293  contract CallAnything {... */\n  mstore(0x40, 0x80)\n  callvalue\n  dup1\n  iszero\n  tag_1\n  jumpi\n  0x00\n  dup1\n  revert\ntag_1:\n  pop\n  dataSize(sub_0)\n  dup1\n  dataOffset(sub_0)\n  0x00\n  codecopy\n  0x00\n  return\nstop\n\nsub_0: assembly {\n        /* \"CallAnything.sol\":493:2293  contract CallAnything {... */\n      mstore(0x40, 0x80)\n      callvalue\n      dup1\n      iszero\n      tag_1\n      jumpi\n      0x00\n      dup1\n      revert\n    tag_1:\n      pop\n      jumpi(tag_2, lt(calldatasize, 0x04))\n      shr(0xe0, calldataload(0x00))\n      dup1\n      0xaad229d5\n      gt\n      tag_13\n      jumpi\n      dup1\n      0xaad229d5\n      eq\n      tag_8\n      jumpi\n      dup1\n      0xc6e93bad\n      eq\n      tag_9\n      jumpi\n      dup1\n      0xe41706d5\n      eq\n      tag_10\n      jumpi\n      dup1\n      0xe9cedd14\n      eq\n      tag_11\n      jumpi\n      dup1\n      0xf14cecd6\n      eq\n      tag_12\n      jumpi\n      jump(tag_2)\n    tag_13:\n      dup1\n      0x3104d472\n      eq\n      tag_3\n      jumpi\n      dup1\n      0x7c0c5f23\n      eq\n      tag_4\n      jumpi\n      dup1\n      0x88af190b\n      eq\n      tag_5\n      jumpi\n      dup1\n      0xa5694e4a\n      eq\n      tag_6\n      jumpi\n      dup1\n      0xa9059cbb\n      eq\n      tag_7\n      jumpi\n    tag_2:\n      0x00\n      dup1\n      revert\n        /* \"CallAnything.sol\":1909:1969  function callAnotherFunction() public view returns (bool) {} */\n    tag_3:\n      tag_14\n      tag_15\n      jump\t// in\n    tag_14:\n      mload(0x40)\n      tag_16\n      swap2\n      swap1\n      tag_17\n      jump\t// in\n    tag_16:\n      mload(0x40)\n      dup1\n      swap2\n      sub\n      swap1\n      return\n        /* \"CallAnything.sol\":875:1091  function getDataToCallTransfer(address someAddress, uint256 amount)... */\n    tag_4:\n      tag_18\n      0x04\n      dup1\n      calldatasize\n      sub\n      dup2\n      add\n      swap1\n      tag_19\n      swap2\n      swap1\n      tag_20\n      jump\t// in\n    tag_19:\n      tag_21\n      jump\t// in\n    tag_18:\n      mload(0x40)\n      tag_22\n      swap2\n      swap1\n      tag_23\n      jump\t// in\n    tag_22:\n      mload(0x40)\n      dup1\n      swap2\n      sub\n      swap1\n      return\n        /* \"CallAnything.sol\":1496:1903  function callTransferFunctionDirectlySig(address someAddress, uint256 amount)... */\n    tag_5:\n      tag_24\n      0x04\n      dup1\n      calldatasize\n      sub\n      dup2\n      add\n      swap1\n      tag_25\n      swap2\n      swap1\n      tag_20\n      jump\t// in\n    tag_25:\n      tag_26\n      jump\t// in\n    tag_24:\n      mload(0x40)\n      tag_27\n      swap3\n      swap2\n      swap1\n      tag_28\n      jump\t// in\n    tag_27:\n      mload(0x40)\n      dup1\n      swap2\n      sub\n      swap1\n      return\n        /* \"CallAnything.sol\":1097:1489  function callTransferFunctionDirectly(address someAddress, uint256 amount)... */\n    tag_6:\n      tag_29\n      0x04\n      dup1\n      calldatasize\n      sub\n      dup2\n      add\n      swap1\n      tag_30\n      swap2\n      swap1\n      tag_20\n      jump\t// in\n    tag_30:\n      tag_31\n      jump\t// in\n    tag_29:\n      mload(0x40)\n      tag_32\n      swap3\n      swap2\n      swap1\n      tag_28\n      jump\t// in\n    tag_32:\n      mload(0x40)\n      dup1\n      swap2\n      sub\n      swap1\n      return\n        /* \"CallAnything.sol\":585:718  function transfer(address someAddress, uint256 amount) public {... */\n    tag_7:\n      tag_33\n      0x04\n      dup1\n      calldatasize\n      sub\n      dup2\n      add\n      swap1\n      tag_34\n      swap2\n      swap1\n      tag_20\n      jump\t// in\n    tag_34:\n      tag_35\n      jump\t// in\n    tag_33:\n      stop\n        /* \"CallAnything.sol\":521:549  address public s_someAddress */\n    tag_8:\n      tag_36\n      tag_37\n      jump\t// in\n    tag_36:\n      mload(0x40)\n      tag_38\n      swap2\n      swap1\n      tag_39\n      jump\t// in\n    tag_38:\n      mload(0x40)\n      dup1\n      swap2\n      sub\n      swap1\n      return\n        /* \"CallAnything.sol\":555:578  uint256 public s_amount */\n    tag_9:\n      tag_40\n      tag_41\n      jump\t// in\n    tag_40:\n      mload(0x40)\n      tag_42\n      swap2\n      swap1\n      tag_43\n      jump\t// in\n    tag_42:\n      mload(0x40)\n      dup1\n      swap2\n      sub\n      swap1\n      return\n        /* \"CallAnything.sol\":724:869  function getselectorOne() public pure returns (bytes4 selector) {... */\n    tag_10:\n      tag_44\n      tag_45\n      jump\t// in\n    tag_44:\n      mload(0x40)\n      tag_46\n      swap2\n      swap1\n      tag_47\n      jump\t// in\n    tag_46:\n      mload(0x40)\n      dup1\n      swap2\n      sub\n      swap1\n      return\n        /* \"CallAnything.sol\":2121:2291  function getDataToCallCallAnotherFunction()... */\n    tag_11:\n      tag_48\n      tag_49\n      jump\t// in\n    tag_48:\n      mload(0x40)\n      tag_50\n      swap2\n      swap1\n      tag_23\n      jump\t// in\n    tag_50:\n      mload(0x40)\n      dup1\n      swap2\n      sub\n      swap1\n      return\n        /* \"CallAnything.sol\":1975:2116  function getselectorTwo() public pure returns (bytes4 selector) {... */\n    tag_12:\n      tag_51\n      tag_52\n      jump\t// in\n    tag_51:\n      mload(0x40)\n      tag_53\n      swap2\n      swap1\n      tag_47\n      jump\t// in\n    tag_53:\n      mload(0x40)\n      dup1\n      swap2\n      sub\n      swap1\n      return\n        /* \"CallAnything.sol\":1909:1969  function callAnotherFunction() public view returns (bool) {} */\n    tag_15:\n        /* \"CallAnything.sol\":1961:1965  bool */\n      0x00\n        /* \"CallAnything.sol\":1909:1969  function callAnotherFunction() public view returns (bool) {} */\n      swap1\n      jump\t// out\n        /* \"CallAnything.sol\":875:1091  function getDataToCallTransfer(address someAddress, uint256 amount)... */\n    tag_21:\n        /* \"CallAnything.sol\":988:1000  bytes memory */\n      0x60\n        /* \"CallAnything.sol\":1046:1062  getselectorOne() */\n      tag_56\n        /* \"CallAnything.sol\":1046:1060  getselectorOne */\n      tag_45\n        /* \"CallAnything.sol\":1046:1062  getselectorOne() */\n      jump\t// in\n    tag_56:\n        /* \"CallAnything.sol\":1064:1075  someAddress */\n      dup4\n        /* \"CallAnything.sol\":1077:1083  amount */\n      dup4\n        /* \"CallAnything.sol\":1023:1084  abi.encodeWithSelector(getselectorOne(), someAddress, amount) */\n      add(0x24, mload(0x40))\n      tag_57\n      swap3\n      swap2\n      swap1\n      tag_58\n      jump\t// in\n    tag_57:\n      mload(0x40)\n      0x20\n      dup2\n      dup4\n      sub\n      sub\n      dup2\n      mstore\n      swap1\n      0x40\n      mstore\n      swap1\n      not(0xffffffffffffffffffffffffffffffffffffffffffffffffffffffff)\n      and\n      0x20\n      dup3\n      add\n      dup1\n      mload\n      0xffffffffffffffffffffffffffffffffffffffffffffffffffffffff\n      dup4\n      dup2\n      dup4\n      and\n      or\n      dup4\n      mstore\n      pop\n      pop\n      pop\n      pop\n        /* \"CallAnything.sol\":1016:1084  return abi.encodeWithSelector(getselectorOne(), someAddress, amount) */\n      swap1\n      pop\n        /* \"CallAnything.sol\":875:1091  function getDataToCallTransfer(address someAddress, uint256 amount)... */\n      swap3\n      swap2\n      pop\n      pop\n      jump\t// out\n        /* \"CallAnything.sol\":1496:1903  function callTransferFunctionDirectlySig(address someAddress, uint256 amount)... */\n    tag_26:\n        /* \"CallAnything.sol\":1606:1612  bytes4 */\n      0x00\n        /* \"CallAnything.sol\":1614:1618  bool */\n      dup1\n        /* \"CallAnything.sol\":1635:1647  bool success */\n      0x00\n        /* \"CallAnything.sol\":1649:1672  bytes memory returnData */\n      dup1\n        /* \"CallAnything.sol\":1684:1688  this */\n      address\n        /* \"CallAnything.sol\":1676:1694  address(this).call */\n      0xffffffffffffffffffffffffffffffffffffffff\n      and\n        /* \"CallAnything.sol\":1820:1831  someAddress */\n      dup7\n        /* \"CallAnything.sol\":1833:1839  amount */\n      dup7\n        /* \"CallAnything.sol\":1767:1840  abi.encodeWithSignature(\"transfer(address,uint256)\", someAddress, amount) */\n      add(0x24, mload(0x40))\n      tag_60\n      swap3\n      swap2\n      swap1\n      tag_58\n      jump\t// in\n    tag_60:\n      mload(0x40)\n      0x20\n      dup2\n      dup4\n      sub\n      sub\n      dup2\n      mstore\n      swap1\n      0x40\n      mstore\n      and(not(0xffffffffffffffffffffffffffffffffffffffffffffffffffffffff), 0xa9059cbb00000000000000000000000000000000000000000000000000000000)\n      0x20\n      dup3\n      add\n      dup1\n      mload\n      0xffffffffffffffffffffffffffffffffffffffffffffffffffffffff\n      dup4\n      dup2\n      dup4\n      and\n      or\n      dup4\n      mstore\n      pop\n      pop\n      pop\n      pop\n        /* \"CallAnything.sol\":1676:1850  address(this).call(... */\n      mload(0x40)\n      tag_61\n      swap2\n      swap1\n      tag_62\n      jump\t// in\n    tag_61:\n      0x00\n      mload(0x40)\n      dup1\n      dup4\n      sub\n      dup2\n      0x00\n      dup7\n      gas\n      call\n      swap2\n      pop\n      pop\n      returndatasize\n      dup1\n      0x00\n      dup2\n      eq\n      tag_65\n      jumpi\n      mload(0x40)\n      swap2\n      pop\n      and(add(returndatasize, 0x3f), not(0x1f))\n      dup3\n      add\n      0x40\n      mstore\n      returndatasize\n      dup3\n      mstore\n      returndatasize\n      0x00\n      0x20\n      dup5\n      add\n      returndatacopy\n      jump(tag_64)\n    tag_65:\n      0x60\n      swap2\n      pop\n    tag_64:\n      pop\n        /* \"CallAnything.sol\":1634:1850  (bool success, bytes memory returnData) = address(this).call(... */\n      swap2\n      pop\n      swap2\n      pop\n        /* \"CallAnything.sol\":1875:1885  returnData */\n      dup1\n        /* \"CallAnything.sol\":1868:1886  bytes4(returnData) */\n      tag_66\n      swap1\n      tag_67\n      jump\t// in\n    tag_66:\n        /* \"CallAnything.sol\":1888:1895  success */\n      dup3\n        /* \"CallAnything.sol\":1860:1896  return (bytes4(returnData), success) */\n      swap4\n      pop\n      swap4\n      pop\n      pop\n      pop\n        /* \"CallAnything.sol\":1496:1903  function callTransferFunctionDirectlySig(address someAddress, uint256 amount)... */\n      swap3\n      pop\n      swap3\n      swap1\n      pop\n      jump\t// out\n        /* \"CallAnything.sol\":1097:1489  function callTransferFunctionDirectly(address someAddress, uint256 amount)... */\n    tag_31:\n        /* \"CallAnything.sol\":1204:1210  bytes4 */\n      0x00\n        /* \"CallAnything.sol\":1212:1216  bool */\n      dup1\n        /* \"CallAnything.sol\":1233:1245  bool success */\n      0x00\n        /* \"CallAnything.sol\":1247:1270  bytes memory returnData */\n      dup1\n        /* \"CallAnything.sol\":1282:1286  this */\n      address\n        /* \"CallAnything.sol\":1274:1292  address(this).call */\n      0xffffffffffffffffffffffffffffffffffffffff\n      and\n        /* \"CallAnything.sol\":1388:1404  getselectorOne() */\n      tag_69\n        /* \"CallAnything.sol\":1388:1402  getselectorOne */\n      tag_45\n        /* \"CallAnything.sol\":1388:1404  getselectorOne() */\n      jump\t// in\n    tag_69:\n        /* \"CallAnything.sol\":1406:1417  someAddress */\n      dup8\n        /* \"CallAnything.sol\":1419:1425  amount */\n      dup8\n        /* \"CallAnything.sol\":1365:1426  abi.encodeWithSelector(getselectorOne(), someAddress, amount) */\n      add(0x24, mload(0x40))\n      tag_70\n      swap3\n      swap2\n      swap1\n      tag_58\n      jump\t// in\n    tag_70:\n      mload(0x40)\n      0x20\n      dup2\n      dup4\n      sub\n      sub\n      dup2\n      mstore\n      swap1\n      0x40\n      mstore\n      swap1\n      not(0xffffffffffffffffffffffffffffffffffffffffffffffffffffffff)\n      and\n      0x20\n      dup3\n      add\n      dup1\n      mload\n      0xffffffffffffffffffffffffffffffffffffffffffffffffffffffff\n      dup4\n      dup2\n      dup4\n      and\n      or\n      dup4\n      mstore\n      pop\n      pop\n      pop\n      pop\n        /* \"CallAnything.sol\":1274:1436  address(this).call(... */\n      mload(0x40)\n      tag_71\n      swap2\n      swap1\n      tag_62\n      jump\t// in\n    tag_71:\n      0x00\n      mload(0x40)\n      dup1\n      dup4\n      sub\n      dup2\n      0x00\n      dup7\n      gas\n      call\n      swap2\n      pop\n      pop\n      returndatasize\n      dup1\n      0x00\n      dup2\n      eq\n      tag_74\n      jumpi\n      mload(0x40)\n      swap2\n      pop\n      and(add(returndatasize, 0x3f), not(0x1f))\n      dup3\n      add\n      0x40\n      mstore\n      returndatasize\n      dup3\n      mstore\n      returndatasize\n      0x00\n      0x20\n      dup5\n      add\n      returndatacopy\n      jump(tag_73)\n    tag_74:\n      0x60\n      swap2\n      pop\n    tag_73:\n      pop\n        /* \"CallAnything.sol\":1232:1436  (bool success, bytes memory returnData) = address(this).call(... */\n      swap2\n      pop\n      swap2\n      pop\n        /* \"CallAnything.sol\":1461:1471  returnData */\n      dup1\n        /* \"CallAnything.sol\":1454:1472  bytes4(returnData) */\n      tag_75\n      swap1\n      tag_67\n      jump\t// in\n    tag_75:\n        /* \"CallAnything.sol\":1474:1481  success */\n      dup3\n        /* \"CallAnything.sol\":1446:1482  return (bytes4(returnData), success) */\n      swap4\n      pop\n      swap4\n      pop\n      pop\n      pop\n        /* \"CallAnything.sol\":1097:1489  function callTransferFunctionDirectly(address someAddress, uint256 amount)... */\n      swap3\n      pop\n      swap3\n      swap1\n      pop\n      jump\t// out\n        /* \"CallAnything.sol\":585:718  function transfer(address someAddress, uint256 amount) public {... */\n    tag_35:\n        /* \"CallAnything.sol\":673:684  someAddress */\n      dup2\n        /* \"CallAnything.sol\":657:670  s_someAddress */\n      0x00\n      dup1\n        /* \"CallAnything.sol\":657:684  s_someAddress = someAddress */\n      0x0100\n      exp\n      dup2\n      sload\n      dup2\n      0xffffffffffffffffffffffffffffffffffffffff\n      mul\n      not\n      and\n      swap1\n      dup4\n      0xffffffffffffffffffffffffffffffffffffffff\n      and\n      mul\n      or\n      swap1\n      sstore\n      pop\n        /* \"CallAnything.sol\":705:711  amount */\n      dup1\n        /* \"CallAnything.sol\":694:702  s_amount */\n      0x01\n        /* \"CallAnything.sol\":694:711  s_amount = amount */\n      dup2\n      swap1\n      sstore\n      pop\n        /* \"CallAnything.sol\":585:718  function transfer(address someAddress, uint256 amount) public {... */\n      pop\n      pop\n      jump\t// out\n        /* \"CallAnything.sol\":521:549  address public s_someAddress */\n    tag_37:\n      0x00\n      dup1\n      sload\n      swap1\n      0x0100\n      exp\n      swap1\n      div\n      0xffffffffffffffffffffffffffffffffffffffff\n      and\n      dup2\n      jump\t// out\n        /* \"CallAnything.sol\":555:578  uint256 public s_amount */\n    tag_41:\n      sload(0x01)\n      dup2\n      jump\t// out\n        /* \"CallAnything.sol\":724:869  function getselectorOne() public pure returns (bytes4 selector) {... */\n    tag_45:\n        /* \"CallAnything.sol\":771:786  bytes4 selector */\n      0x00\n        /* \"CallAnything.sol\":826:860  bytes(\"transfer(address,uint256)\") */\n      mload(0x40)\n      dup1\n      0x40\n      add\n      0x40\n      mstore\n      dup1\n      0x19\n      dup2\n      mstore\n      0x20\n      add\n      0x7472616e7366657228616464726573732c75696e743235362900000000000000\n      dup2\n      mstore\n      pop\n        /* \"CallAnything.sol\":816:861  keccak256(bytes(\"transfer(address,uint256)\")) */\n      dup1\n      mload\n      swap1\n      0x20\n      add\n      keccak256\n        /* \"CallAnything.sol\":798:862  selector = bytes4(keccak256(bytes(\"transfer(address,uint256)\"))) */\n      swap1\n      pop\n        /* \"CallAnything.sol\":724:869  function getselectorOne() public pure returns (bytes4 selector) {... */\n      swap1\n      jump\t// out\n        /* \"CallAnything.sol\":2121:2291  function getDataToCallCallAnotherFunction()... */\n    tag_49:\n        /* \"CallAnything.sol\":2210:2222  bytes memory */\n      0x60\n        /* \"CallAnything.sol\":2267:2283  getselectorTwo() */\n      tag_79\n        /* \"CallAnything.sol\":2267:2281  getselectorTwo */\n      tag_52\n        /* \"CallAnything.sol\":2267:2283  getselectorTwo() */\n      jump\t// in\n    tag_79:\n        /* \"CallAnything.sol\":2244:2284  abi.encodeWithSelector(getselectorTwo()) */\n      add(0x24, mload(0x40))\n      mload(0x40)\n      0x20\n      dup2\n      dup4\n      sub\n      sub\n      dup2\n      mstore\n      swap1\n      0x40\n      mstore\n      swap1\n      not(0xffffffffffffffffffffffffffffffffffffffffffffffffffffffff)\n      and\n      0x20\n      dup3\n      add\n      dup1\n      mload\n      0xffffffffffffffffffffffffffffffffffffffffffffffffffffffff\n      dup4\n      dup2\n      dup4\n      and\n      or\n      dup4\n      mstore\n      pop\n      pop\n      pop\n      pop\n        /* \"CallAnything.sol\":2237:2284  return abi.encodeWithSelector(getselectorTwo()) */\n      swap1\n      pop\n        /* \"CallAnything.sol\":2121:2291  function getDataToCallCallAnotherFunction()... */\n      swap1\n      jump\t// out\n        /* \"CallAnything.sol\":1975:2116  function getselectorTwo() public pure returns (bytes4 selector) {... */\n    tag_52:\n        /* \"CallAnything.sol\":2022:2037  bytes4 selector */\n      0x00\n        /* \"CallAnything.sol\":2077:2107  bytes(\"callAnotherFunction()\") */\n      mload(0x40)\n      dup1\n      0x40\n      add\n      0x40\n      mstore\n      dup1\n      0x15\n      dup2\n      mstore\n      0x20\n      add\n      0x63616c6c416e6f7468657246756e6374696f6e28290000000000000000000000\n      dup2\n      mstore\n      pop\n        /* \"CallAnything.sol\":2067:2108  keccak256(bytes(\"callAnotherFunction()\")) */\n      dup1\n      mload\n      swap1\n      0x20\n      add\n      keccak256\n        /* \"CallAnything.sol\":2049:2109  selector = bytes4(keccak256(bytes(\"callAnotherFunction()\"))) */\n      swap1\n      pop\n        /* \"CallAnything.sol\":1975:2116  function getselectorTwo() public pure returns (bytes4 selector) {... */\n      swap1\n      jump\t// out\n        /* \"#utility.yul\":7:146   */\n    tag_82:\n        /* \"#utility.yul\":53:58   */\n      0x00\n        /* \"#utility.yul\":91:97   */\n      dup2\n        /* \"#utility.yul\":78:98   */\n      calldataload\n        /* \"#utility.yul\":69:98   */\n      swap1\n      pop\n        /* \"#utility.yul\":107:140   */\n      tag_84\n        /* \"#utility.yul\":134:139   */\n      dup2\n        /* \"#utility.yul\":107:140   */\n      tag_85\n      jump\t// in\n    tag_84:\n        /* \"#utility.yul\":7:146   */\n      swap3\n      swap2\n      pop\n      pop\n      jump\t// out\n        /* \"#utility.yul\":152:291   */\n    tag_86:\n        /* \"#utility.yul\":198:203   */\n      0x00\n        /* \"#utility.yul\":236:242   */\n      dup2\n        /* \"#utility.yul\":223:243   */\n      calldataload\n        /* \"#utility.yul\":214:243   */\n      swap1\n      pop\n        /* \"#utility.yul\":252:285   */\n      tag_88\n        /* \"#utility.yul\":279:284   */\n      dup2\n        /* \"#utility.yul\":252:285   */\n      tag_89\n      jump\t// in\n    tag_88:\n        /* \"#utility.yul\":152:291   */\n      swap3\n      swap2\n      pop\n      pop\n      jump\t// out\n        /* \"#utility.yul\":297:771   */\n    tag_20:\n        /* \"#utility.yul\":365:371   */\n      0x00\n        /* \"#utility.yul\":373:379   */\n      dup1\n        /* \"#utility.yul\":422:424   */\n      0x40\n        /* \"#utility.yul\":410:419   */\n      dup4\n        /* \"#utility.yul\":401:408   */\n      dup6\n        /* \"#utility.yul\":397:420   */\n      sub\n        /* \"#utility.yul\":393:425   */\n      slt\n        /* \"#utility.yul\":390:509   */\n      iszero\n      tag_91\n      jumpi\n        /* \"#utility.yul\":428:507   */\n      tag_92\n      tag_93\n      jump\t// in\n    tag_92:\n        /* \"#utility.yul\":390:509   */\n    tag_91:\n        /* \"#utility.yul\":548:549   */\n      0x00\n        /* \"#utility.yul\":573:626   */\n      tag_94\n        /* \"#utility.yul\":618:625   */\n      dup6\n        /* \"#utility.yul\":609:615   */\n      dup3\n        /* \"#utility.yul\":598:607   */\n      dup7\n        /* \"#utility.yul\":594:616   */\n      add\n        /* \"#utility.yul\":573:626   */\n      tag_82\n      jump\t// in\n    tag_94:\n        /* \"#utility.yul\":563:626   */\n      swap3\n      pop\n        /* \"#utility.yul\":519:636   */\n      pop\n        /* \"#utility.yul\":675:677   */\n      0x20\n        /* \"#utility.yul\":701:754   */\n      tag_95\n        /* \"#utility.yul\":746:753   */\n      dup6\n        /* \"#utility.yul\":737:743   */\n      dup3\n        /* \"#utility.yul\":726:735   */\n      dup7\n        /* \"#utility.yul\":722:744   */\n      add\n        /* \"#utility.yul\":701:754   */\n      tag_86\n      jump\t// in\n    tag_95:\n        /* \"#utility.yul\":691:754   */\n      swap2\n      pop\n        /* \"#utility.yul\":646:764   */\n      pop\n        /* \"#utility.yul\":297:771   */\n      swap3\n      pop\n      swap3\n      swap1\n      pop\n      jump\t// out\n        /* \"#utility.yul\":777:895   */\n    tag_96:\n        /* \"#utility.yul\":864:888   */\n      tag_98\n        /* \"#utility.yul\":882:887   */\n      dup2\n        /* \"#utility.yul\":864:888   */\n      tag_99\n      jump\t// in\n    tag_98:\n        /* \"#utility.yul\":859:862   */\n      dup3\n        /* \"#utility.yul\":852:889   */\n      mstore\n        /* \"#utility.yul\":777:895   */\n      pop\n      pop\n      jump\t// out\n        /* \"#utility.yul\":901:1010   */\n    tag_100:\n        /* \"#utility.yul\":982:1003   */\n      tag_102\n        /* \"#utility.yul\":997:1002   */\n      dup2\n        /* \"#utility.yul\":982:1003   */\n      tag_103\n      jump\t// in\n    tag_102:\n        /* \"#utility.yul\":977:980   */\n      dup3\n        /* \"#utility.yul\":970:1004   */\n      mstore\n        /* \"#utility.yul\":901:1010   */\n      pop\n      pop\n      jump\t// out\n        /* \"#utility.yul\":1016:1131   */\n    tag_104:\n        /* \"#utility.yul\":1101:1124   */\n      tag_106\n        /* \"#utility.yul\":1118:1123   */\n      dup2\n        /* \"#utility.yul\":1101:1124   */\n      tag_107\n      jump\t// in\n    tag_106:\n        /* \"#utility.yul\":1096:1099   */\n      dup3\n        /* \"#utility.yul\":1089:1125   */\n      mstore\n        /* \"#utility.yul\":1016:1131   */\n      pop\n      pop\n      jump\t// out\n        /* \"#utility.yul\":1137:1497   */\n    tag_108:\n        /* \"#utility.yul\":1223:1226   */\n      0x00\n        /* \"#utility.yul\":1251:1289   */\n      tag_110\n        /* \"#utility.yul\":1283:1288   */\n      dup3\n        /* \"#utility.yul\":1251:1289   */\n      tag_111\n      jump\t// in\n    tag_110:\n        /* \"#utility.yul\":1305:1375   */\n      tag_112\n        /* \"#utility.yul\":1368:1374   */\n      dup2\n        /* \"#utility.yul\":1363:1366   */\n      dup6\n        /* \"#utility.yul\":1305:1375   */\n      tag_113\n      jump\t// in\n    tag_112:\n        /* \"#utility.yul\":1298:1375   */\n      swap4\n      pop\n        /* \"#utility.yul\":1384:1436   */\n      tag_114\n        /* \"#utility.yul\":1429:1435   */\n      dup2\n        /* \"#utility.yul\":1424:1427   */\n      dup6\n        /* \"#utility.yul\":1417:1421   */\n      0x20\n        /* \"#utility.yul\":1410:1415   */\n      dup7\n        /* \"#utility.yul\":1406:1422   */\n      add\n        /* \"#utility.yul\":1384:1436   */\n      tag_115\n      jump\t// in\n    tag_114:\n        /* \"#utility.yul\":1461:1490   */\n      tag_116\n        /* \"#utility.yul\":1483:1489   */\n      dup2\n        /* \"#utility.yul\":1461:1490   */\n      tag_117\n      jump\t// in\n    tag_116:\n        /* \"#utility.yul\":1456:1459   */\n      dup5\n        /* \"#utility.yul\":1452:1491   */\n      add\n        /* \"#utility.yul\":1445:1491   */\n      swap2\n      pop\n        /* \"#utility.yul\":1227:1497   */\n      pop\n        /* \"#utility.yul\":1137:1497   */\n      swap3\n      swap2\n      pop\n      pop\n      jump\t// out\n        /* \"#utility.yul\":1503:1876   */\n    tag_118:\n        /* \"#utility.yul\":1607:1610   */\n      0x00\n        /* \"#utility.yul\":1635:1673   */\n      tag_120\n        /* \"#utility.yul\":1667:1672   */\n      dup3\n        /* \"#utility.yul\":1635:1673   */\n      tag_111\n      jump\t// in\n    tag_120:\n        /* \"#utility.yul\":1689:1777   */\n      tag_121\n        /* \"#utility.yul\":1770:1776   */\n      dup2\n        /* \"#utility.yul\":1765:1768   */\n      dup6\n        /* \"#utility.yul\":1689:1777   */\n      tag_122\n      jump\t// in\n    tag_121:\n        /* \"#utility.yul\":1682:1777   */\n      swap4\n      pop\n        /* \"#utility.yul\":1786:1838   */\n      tag_123\n        /* \"#utility.yul\":1831:1837   */\n      dup2\n        /* \"#utility.yul\":1826:1829   */\n      dup6\n        /* \"#utility.yul\":1819:1823   */\n      0x20\n        /* \"#utility.yul\":1812:1817   */\n      dup7\n        /* \"#utility.yul\":1808:1824   */\n      add\n        /* \"#utility.yul\":1786:1838   */\n      tag_115\n      jump\t// in\n    tag_123:\n        /* \"#utility.yul\":1863:1869   */\n      dup1\n        /* \"#utility.yul\":1858:1861   */\n      dup5\n        /* \"#utility.yul\":1854:1870   */\n      add\n        /* \"#utility.yul\":1847:1870   */\n      swap2\n      pop\n        /* \"#utility.yul\":1611:1876   */\n      pop\n        /* \"#utility.yul\":1503:1876   */\n      swap3\n      swap2\n      pop\n      pop\n      jump\t// out\n        /* \"#utility.yul\":1882:2000   */\n    tag_124:\n        /* \"#utility.yul\":1969:1993   */\n      tag_126\n        /* \"#utility.yul\":1987:1992   */\n      dup2\n        /* \"#utility.yul\":1969:1993   */\n      tag_127\n      jump\t// in\n    tag_126:\n        /* \"#utility.yul\":1964:1967   */\n      dup3\n        /* \"#utility.yul\":1957:1994   */\n      mstore\n        /* \"#utility.yul\":1882:2000   */\n      pop\n      pop\n      jump\t// out\n        /* \"#utility.yul\":2006:2277   */\n    tag_62:\n        /* \"#utility.yul\":2136:2139   */\n      0x00\n        /* \"#utility.yul\":2158:2251   */\n      tag_129\n        /* \"#utility.yul\":2247:2250   */\n      dup3\n        /* \"#utility.yul\":2238:2244   */\n      dup5\n        /* \"#utility.yul\":2158:2251   */\n      tag_118\n      jump\t// in\n    tag_129:\n        /* \"#utility.yul\":2151:2251   */\n      swap2\n      pop\n        /* \"#utility.yul\":2268:2271   */\n      dup2\n        /* \"#utility.yul\":2261:2271   */\n      swap1\n      pop\n        /* \"#utility.yul\":2006:2277   */\n      swap3\n      swap2\n      pop\n      pop\n      jump\t// out\n        /* \"#utility.yul\":2283:2505   */\n    tag_39:\n        /* \"#utility.yul\":2376:2380   */\n      0x00\n        /* \"#utility.yul\":2414:2416   */\n      0x20\n        /* \"#utility.yul\":2403:2412   */\n      dup3\n        /* \"#utility.yul\":2399:2417   */\n      add\n        /* \"#utility.yul\":2391:2417   */\n      swap1\n      pop\n        /* \"#utility.yul\":2427:2498   */\n      tag_131\n        /* \"#utility.yul\":2495:2496   */\n      0x00\n        /* \"#utility.yul\":2484:2493   */\n      dup4\n        /* \"#utility.yul\":2480:2497   */\n      add\n        /* \"#utility.yul\":2471:2477   */\n      dup5\n        /* \"#utility.yul\":2427:2498   */\n      tag_96\n      jump\t// in\n    tag_131:\n        /* \"#utility.yul\":2283:2505   */\n      swap3\n      swap2\n      pop\n      pop\n      jump\t// out\n        /* \"#utility.yul\":2511:2843   */\n    tag_58:\n        /* \"#utility.yul\":2632:2636   */\n      0x00\n        /* \"#utility.yul\":2670:2672   */\n      0x40\n        /* \"#utility.yul\":2659:2668   */\n      dup3\n        /* \"#utility.yul\":2655:2673   */\n      add\n        /* \"#utility.yul\":2647:2673   */\n      swap1\n      pop\n        /* \"#utility.yul\":2683:2754   */\n      tag_133\n        /* \"#utility.yul\":2751:2752   */\n      0x00\n        /* \"#utility.yul\":2740:2749   */\n      dup4\n        /* \"#utility.yul\":2736:2753   */\n      add\n        /* \"#utility.yul\":2727:2733   */\n      dup6\n        /* \"#utility.yul\":2683:2754   */\n      tag_96\n      jump\t// in\n    tag_133:\n        /* \"#utility.yul\":2764:2836   */\n      tag_134\n        /* \"#utility.yul\":2832:2834   */\n      0x20\n        /* \"#utility.yul\":2821:2830   */\n      dup4\n        /* \"#utility.yul\":2817:2835   */\n      add\n        /* \"#utility.yul\":2808:2814   */\n      dup5\n        /* \"#utility.yul\":2764:2836   */\n      tag_124\n      jump\t// in\n    tag_134:\n        /* \"#utility.yul\":2511:2843   */\n      swap4\n      swap3\n      pop\n      pop\n      pop\n      jump\t// out\n        /* \"#utility.yul\":2849:3059   */\n    tag_17:\n        /* \"#utility.yul\":2936:2940   */\n      0x00\n        /* \"#utility.yul\":2974:2976   */\n      0x20\n        /* \"#utility.yul\":2963:2972   */\n      dup3\n        /* \"#utility.yul\":2959:2977   */\n      add\n        /* \"#utility.yul\":2951:2977   */\n      swap1\n      pop\n        /* \"#utility.yul\":2987:3052   */\n      tag_136\n        /* \"#utility.yul\":3049:3050   */\n      0x00\n        /* \"#utility.yul\":3038:3047   */\n      dup4\n        /* \"#utility.yul\":3034:3051   */\n      add\n        /* \"#utility.yul\":3025:3031   */\n      dup5\n        /* \"#utility.yul\":2987:3052   */\n      tag_100\n      jump\t// in\n    tag_136:\n        /* \"#utility.yul\":2849:3059   */\n      swap3\n      swap2\n      pop\n      pop\n      jump\t// out\n        /* \"#utility.yul\":3065:3283   */\n    tag_47:\n        /* \"#utility.yul\":3156:3160   */\n      0x00\n        /* \"#utility.yul\":3194:3196   */\n      0x20\n        /* \"#utility.yul\":3183:3192   */\n      dup3\n        /* \"#utility.yul\":3179:3197   */\n      add\n        /* \"#utility.yul\":3171:3197   */\n      swap1\n      pop\n        /* \"#utility.yul\":3207:3276   */\n      tag_138\n        /* \"#utility.yul\":3273:3274   */\n      0x00\n        /* \"#utility.yul\":3262:3271   */\n      dup4\n        /* \"#utility.yul\":3258:3275   */\n      add\n        /* \"#utility.yul\":3249:3255   */\n      dup5\n        /* \"#utility.yul\":3207:3276   */\n      tag_104\n      jump\t// in\n    tag_138:\n        /* \"#utility.yul\":3065:3283   */\n      swap3\n      swap2\n      pop\n      pop\n      jump\t// out\n        /* \"#utility.yul\":3289:3605   */\n    tag_28:\n        /* \"#utility.yul\":3402:3406   */\n      0x00\n        /* \"#utility.yul\":3440:3442   */\n      0x40\n        /* \"#utility.yul\":3429:3438   */\n      dup3\n        /* \"#utility.yul\":3425:3443   */\n      add\n        /* \"#utility.yul\":3417:3443   */\n      swap1\n      pop\n        /* \"#utility.yul\":3453:3522   */\n      tag_140\n        /* \"#utility.yul\":3519:3520   */\n      0x00\n        /* \"#utility.yul\":3508:3517   */\n      dup4\n        /* \"#utility.yul\":3504:3521   */\n      add\n        /* \"#utility.yul\":3495:3501   */\n      dup6\n        /* \"#utility.yul\":3453:3522   */\n      tag_104\n      jump\t// in\n    tag_140:\n        /* \"#utility.yul\":3532:3598   */\n      tag_141\n        /* \"#utility.yul\":3594:3596   */\n      0x20\n        /* \"#utility.yul\":3583:3592   */\n      dup4\n        /* \"#utility.yul\":3579:3597   */\n      add\n        /* \"#utility.yul\":3570:3576   */\n      dup5\n        /* \"#utility.yul\":3532:3598   */\n      tag_100\n      jump\t// in\n    tag_141:\n        /* \"#utility.yul\":3289:3605   */\n      swap4\n      swap3\n      pop\n      pop\n      pop\n      jump\t// out\n        /* \"#utility.yul\":3611:3920   */\n    tag_23:\n        /* \"#utility.yul\":3722:3726   */\n      0x00\n        /* \"#utility.yul\":3760:3762   */\n      0x20\n        /* \"#utility.yul\":3749:3758   */\n      dup3\n        /* \"#utility.yul\":3745:3763   */\n      add\n        /* \"#utility.yul\":3737:3763   */\n      swap1\n      pop\n        /* \"#utility.yul\":3809:3818   */\n      dup2\n        /* \"#utility.yul\":3803:3807   */\n      dup2\n        /* \"#utility.yul\":3799:3819   */\n      sub\n        /* \"#utility.yul\":3795:3796   */\n      0x00\n        /* \"#utility.yul\":3784:3793   */\n      dup4\n        /* \"#utility.yul\":3780:3797   */\n      add\n        /* \"#utility.yul\":3773:3820   */\n      mstore\n        /* \"#utility.yul\":3837:3913   */\n      tag_143\n        /* \"#utility.yul\":3908:3912   */\n      dup2\n        /* \"#utility.yul\":3899:3905   */\n      dup5\n        /* \"#utility.yul\":3837:3913   */\n      tag_108\n      jump\t// in\n    tag_143:\n        /* \"#utility.yul\":3829:3913   */\n      swap1\n      pop\n        /* \"#utility.yul\":3611:3920   */\n      swap3\n      swap2\n      pop\n      pop\n      jump\t// out\n        /* \"#utility.yul\":3926:4148   */\n    tag_43:\n        /* \"#utility.yul\":4019:4023   */\n      0x00\n        /* \"#utility.yul\":4057:4059   */\n      0x20\n        /* \"#utility.yul\":4046:4055   */\n      dup3\n        /* \"#utility.yul\":4042:4060   */\n      add\n        /* \"#utility.yul\":4034:4060   */\n      swap1\n      pop\n        /* \"#utility.yul\":4070:4141   */\n      tag_145\n        /* \"#utility.yul\":4138:4139   */\n      0x00\n        /* \"#utility.yul\":4127:4136   */\n      dup4\n        /* \"#utility.yul\":4123:4140   */\n      add\n        /* \"#utility.yul\":4114:4120   */\n      dup5\n        /* \"#utility.yul\":4070:4141   */\n      tag_124\n      jump\t// in\n    tag_145:\n        /* \"#utility.yul\":3926:4148   */\n      swap3\n      swap2\n      pop\n      pop\n      jump\t// out\n        /* \"#utility.yul\":4235:4351   */\n    tag_148:\n        /* \"#utility.yul\":4286:4290   */\n      0x00\n        /* \"#utility.yul\":4309:4312   */\n      dup2\n        /* \"#utility.yul\":4301:4312   */\n      swap1\n      pop\n        /* \"#utility.yul\":4339:4343   */\n      0x20\n        /* \"#utility.yul\":4334:4337   */\n      dup3\n        /* \"#utility.yul\":4330:4344   */\n      add\n        /* \"#utility.yul\":4322:4344   */\n      swap1\n      pop\n        /* \"#utility.yul\":4235:4351   */\n      swap2\n      swap1\n      pop\n      jump\t// out\n        /* \"#utility.yul\":4357:4455   */\n    tag_111:\n        /* \"#utility.yul\":4408:4414   */\n      0x00\n        /* \"#utility.yul\":4442:4447   */\n      dup2\n        /* \"#utility.yul\":4436:4448   */\n      mload\n        /* \"#utility.yul\":4426:4448   */\n      swap1\n      pop\n        /* \"#utility.yul\":4357:4455   */\n      swap2\n      swap1\n      pop\n      jump\t// out\n        /* \"#utility.yul\":4461:4629   */\n    tag_113:\n        /* \"#utility.yul\":4544:4555   */\n      0x00\n        /* \"#utility.yul\":4578:4584   */\n      dup3\n        /* \"#utility.yul\":4573:4576   */\n      dup3\n        /* \"#utility.yul\":4566:4585   */\n      mstore\n        /* \"#utility.yul\":4618:4622   */\n      0x20\n        /* \"#utility.yul\":4613:4616   */\n      dup3\n        /* \"#utility.yul\":4609:4623   */\n      add\n        /* \"#utility.yul\":4594:4623   */\n      swap1\n      pop\n        /* \"#utility.yul\":4461:4629   */\n      swap3\n      swap2\n      pop\n      pop\n      jump\t// out\n        /* \"#utility.yul\":4635:4782   */\n    tag_122:\n        /* \"#utility.yul\":4736:4747   */\n      0x00\n        /* \"#utility.yul\":4773:4776   */\n      dup2\n        /* \"#utility.yul\":4758:4776   */\n      swap1\n      pop\n        /* \"#utility.yul\":4635:4782   */\n      swap3\n      swap2\n      pop\n      pop\n      jump\t// out\n        /* \"#utility.yul\":4788:4884   */\n    tag_99:\n        /* \"#utility.yul\":4825:4832   */\n      0x00\n        /* \"#utility.yul\":4854:4878   */\n      tag_154\n        /* \"#utility.yul\":4872:4877   */\n      dup3\n        /* \"#utility.yul\":4854:4878   */\n      tag_155\n      jump\t// in\n    tag_154:\n        /* \"#utility.yul\":4843:4878   */\n      swap1\n      pop\n        /* \"#utility.yul\":4788:4884   */\n      swap2\n      swap1\n      pop\n      jump\t// out\n        /* \"#utility.yul\":4890:4980   */\n    tag_103:\n        /* \"#utility.yul\":4924:4931   */\n      0x00\n        /* \"#utility.yul\":4967:4972   */\n      dup2\n        /* \"#utility.yul\":4960:4973   */\n      iszero\n        /* \"#utility.yul\":4953:4974   */\n      iszero\n        /* \"#utility.yul\":4942:4974   */\n      swap1\n      pop\n        /* \"#utility.yul\":4890:4980   */\n      swap2\n      swap1\n      pop\n      jump\t// out\n        /* \"#utility.yul\":4986:5135   */\n    tag_107:\n        /* \"#utility.yul\":5022:5029   */\n      0x00\n        /* \"#utility.yul\":5062:5128   */\n      0xffffffff00000000000000000000000000000000000000000000000000000000\n        /* \"#utility.yul\":5055:5060   */\n      dup3\n        /* \"#utility.yul\":5051:5129   */\n      and\n        /* \"#utility.yul\":5040:5129   */\n      swap1\n      pop\n        /* \"#utility.yul\":4986:5135   */\n      swap2\n      swap1\n      pop\n      jump\t// out\n        /* \"#utility.yul\":5141:5267   */\n    tag_155:\n        /* \"#utility.yul\":5178:5185   */\n      0x00\n        /* \"#utility.yul\":5218:5260   */\n      0xffffffffffffffffffffffffffffffffffffffff\n        /* \"#utility.yul\":5211:5216   */\n      dup3\n        /* \"#utility.yul\":5207:5261   */\n      and\n        /* \"#utility.yul\":5196:5261   */\n      swap1\n      pop\n        /* \"#utility.yul\":5141:5267   */\n      swap2\n      swap1\n      pop\n      jump\t// out\n        /* \"#utility.yul\":5273:5350   */\n    tag_127:\n        /* \"#utility.yul\":5310:5317   */\n      0x00\n        /* \"#utility.yul\":5339:5344   */\n      dup2\n        /* \"#utility.yul\":5328:5344   */\n      swap1\n      pop\n        /* \"#utility.yul\":5273:5350   */\n      swap2\n      swap1\n      pop\n      jump\t// out\n        /* \"#utility.yul\":5356:5946   */\n    tag_67:\n        /* \"#utility.yul\":5439:5444   */\n      0x00\n        /* \"#utility.yul\":5470:5508   */\n      tag_161\n        /* \"#utility.yul\":5502:5507   */\n      dup3\n        /* \"#utility.yul\":5470:5508   */\n      tag_111\n      jump\t// in\n    tag_161:\n        /* \"#utility.yul\":5533:5538   */\n      dup3\n        /* \"#utility.yul\":5560:5600   */\n      tag_162\n        /* \"#utility.yul\":5594:5599   */\n      dup5\n        /* \"#utility.yul\":5560:5600   */\n      tag_148\n      jump\t// in\n    tag_162:\n        /* \"#utility.yul\":5548:5600   */\n      swap1\n      pop\n        /* \"#utility.yul\":5619:5653   */\n      tag_163\n        /* \"#utility.yul\":5644:5652   */\n      dup2\n        /* \"#utility.yul\":5619:5653   */\n      tag_164\n      jump\t// in\n    tag_163:\n        /* \"#utility.yul\":5610:5653   */\n      swap3\n      pop\n        /* \"#utility.yul\":5677:5678   */\n      0x04\n        /* \"#utility.yul\":5669:5675   */\n      dup3\n        /* \"#utility.yul\":5666:5679   */\n      lt\n        /* \"#utility.yul\":5663:5939   */\n      iszero\n      tag_165\n      jumpi\n        /* \"#utility.yul\":5747:5915   */\n      tag_166\n        /* \"#utility.yul\":5831:5897   */\n      0xffffffff00000000000000000000000000000000000000000000000000000000\n        /* \"#utility.yul\":5801:5807   */\n      dup4\n        /* \"#utility.yul\":5798:5799   */\n      0x04\n        /* \"#utility.yul\":5794:5808   */\n      sub\n        /* \"#utility.yul\":5791:5792   */\n      0x08\n        /* \"#utility.yul\":5787:5809   */\n      mul\n        /* \"#utility.yul\":5747:5915   */\n      tag_167\n      jump\t// in\n    tag_166:\n        /* \"#utility.yul\":5724:5729   */\n      dup4\n        /* \"#utility.yul\":5703:5929   */\n      and\n        /* \"#utility.yul\":5694:5929   */\n      swap3\n      pop\n        /* \"#utility.yul\":5663:5939   */\n    tag_165:\n        /* \"#utility.yul\":5445:5946   */\n      pop\n      pop\n        /* \"#utility.yul\":5356:5946   */\n      swap2\n      swap1\n      pop\n      jump\t// out\n        /* \"#utility.yul\":5952:6259   */\n    tag_115:\n        /* \"#utility.yul\":6020:6021   */\n      0x00\n        /* \"#utility.yul\":6030:6143   */\n    tag_169:\n        /* \"#utility.yul\":6044:6050   */\n      dup4\n        /* \"#utility.yul\":6041:6042   */\n      dup2\n        /* \"#utility.yul\":6038:6051   */\n      lt\n        /* \"#utility.yul\":6030:6143   */\n      iszero\n      tag_171\n      jumpi\n        /* \"#utility.yul\":6129:6130   */\n      dup1\n        /* \"#utility.yul\":6124:6127   */\n      dup3\n        /* \"#utility.yul\":6120:6131   */\n      add\n        /* \"#utility.yul\":6114:6132   */\n      mload\n        /* \"#utility.yul\":6110:6111   */\n      dup2\n        /* \"#utility.yul\":6105:6108   */\n      dup5\n        /* \"#utility.yul\":6101:6112   */\n      add\n        /* \"#utility.yul\":6094:6133   */\n      mstore\n        /* \"#utility.yul\":6066:6068   */\n      0x20\n        /* \"#utility.yul\":6063:6064   */\n      dup2\n        /* \"#utility.yul\":6059:6069   */\n      add\n        /* \"#utility.yul\":6054:6069   */\n      swap1\n      pop\n        /* \"#utility.yul\":6030:6143   */\n      jump(tag_169)\n    tag_171:\n        /* \"#utility.yul\":6161:6167   */\n      dup4\n        /* \"#utility.yul\":6158:6159   */\n      dup2\n        /* \"#utility.yul\":6155:6168   */\n      gt\n        /* \"#utility.yul\":6152:6253   */\n      iszero\n      tag_172\n      jumpi\n        /* \"#utility.yul\":6241:6242   */\n      0x00\n        /* \"#utility.yul\":6232:6238   */\n      dup5\n        /* \"#utility.yul\":6227:6230   */\n      dup5\n        /* \"#utility.yul\":6223:6239   */\n      add\n        /* \"#utility.yul\":6216:6243   */\n      mstore\n        /* \"#utility.yul\":6152:6253   */\n    tag_172:\n        /* \"#utility.yul\":6001:6259   */\n      pop\n        /* \"#utility.yul\":5952:6259   */\n      pop\n      pop\n      pop\n      jump\t// out\n        /* \"#utility.yul\":6265:6417   */\n    tag_164:\n        /* \"#utility.yul\":6307:6318   */\n      0x00\n        /* \"#utility.yul\":6343:6371   */\n      tag_174\n        /* \"#utility.yul\":6366:6369   */\n      dup3\n        /* \"#utility.yul\":6360:6370   */\n      mload\n        /* \"#utility.yul\":6343:6371   */\n      tag_107\n      jump\t// in\n    tag_174:\n        /* \"#utility.yul\":6405:6410   */\n      dup1\n        /* \"#utility.yul\":6381:6410   */\n      swap2\n      pop\n        /* \"#utility.yul\":6319:6417   */\n      pop\n        /* \"#utility.yul\":6265:6417   */\n      swap2\n      swap1\n      pop\n      jump\t// out\n        /* \"#utility.yul\":6546:6663   */\n    tag_93:\n        /* \"#utility.yul\":6655:6656   */\n      0x00\n        /* \"#utility.yul\":6652:6653   */\n      dup1\n        /* \"#utility.yul\":6645:6657   */\n      revert\n        /* \"#utility.yul\":6669:6771   */\n    tag_117:\n        /* \"#utility.yul\":6710:6716   */\n      0x00\n        /* \"#utility.yul\":6761:6763   */\n      0x1f\n        /* \"#utility.yul\":6757:6764   */\n      not\n        /* \"#utility.yul\":6752:6754   */\n      0x1f\n        /* \"#utility.yul\":6745:6750   */\n      dup4\n        /* \"#utility.yul\":6741:6755   */\n      add\n        /* \"#utility.yul\":6737:6765   */\n      and\n        /* \"#utility.yul\":6727:6765   */\n      swap1\n      pop\n        /* \"#utility.yul\":6669:6771   */\n      swap2\n      swap1\n      pop\n      jump\t// out\n        /* \"#utility.yul\":6777:6884   */\n    tag_167:\n        /* \"#utility.yul\":6821:6829   */\n      0x00\n        /* \"#utility.yul\":6871:6876   */\n      dup3\n        /* \"#utility.yul\":6865:6869   */\n      dup3\n        /* \"#utility.yul\":6861:6877   */\n      shl\n        /* \"#utility.yul\":6840:6877   */\n      swap1\n      pop\n        /* \"#utility.yul\":6777:6884   */\n      swap3\n      swap2\n      pop\n      pop\n      jump\t// out\n        /* \"#utility.yul\":6890:7012   */\n    tag_85:\n        /* \"#utility.yul\":6963:6987   */\n      tag_181\n        /* \"#utility.yul\":6981:6986   */\n      dup2\n        /* \"#utility.yul\":6963:6987   */\n      tag_99\n      jump\t// in\n    tag_181:\n        /* \"#utility.yul\":6956:6961   */\n      dup2\n        /* \"#utility.yul\":6953:6988   */\n      eq\n        /* \"#utility.yul\":6943:7006   */\n      tag_182\n      jumpi\n        /* \"#utility.yul\":7002:7003   */\n      0x00\n        /* \"#utility.yul\":6999:7000   */\n      dup1\n        /* \"#utility.yul\":6992:7004   */\n      revert\n        /* \"#utility.yul\":6943:7006   */\n    tag_182:\n        /* \"#utility.yul\":6890:7012   */\n      pop\n      jump\t// out\n        /* \"#utility.yul\":7018:7140   */\n    tag_89:\n        /* \"#utility.yul\":7091:7115   */\n      tag_184\n        /* \"#utility.yul\":7109:7114   */\n      dup2\n        /* \"#utility.yul\":7091:7115   */\n      tag_127\n      jump\t// in\n    tag_184:\n        /* \"#utility.yul\":7084:7089   */\n      dup2\n        /* \"#utility.yul\":7081:7116   */\n      eq\n        /* \"#utility.yul\":7071:7134   */\n      tag_185\n      jumpi\n        /* \"#utility.yul\":7130:7131   */\n      0x00\n        /* \"#utility.yul\":7127:7128   */\n      dup1\n        /* \"#utility.yul\":7120:7132   */\n      revert\n        /* \"#utility.yul\":7071:7134   */\n    tag_185:\n        /* \"#utility.yul\":7018:7140   */\n      pop\n      jump\t// out\n\n    auxdata: 0xa264697066735822122093acc83b321e8bc69b37610ceb68c32351f22f80b3c89d2f95ef6b7e610633f664736f6c63430008070033\n}\n",
				"bytecode": {
					"linkReferences": {},
					"object": "608060405234801561001057600080fd5b506109fd806100206000396000f3fe608060405234801561001057600080fd5b506004361061009e5760003560e01c8063aad229d511610066578063aad229d51461016f578063c6e93bad1461018d578063e41706d5146101ab578063e9cedd14146101c9578063f14cecd6146101e75761009e565b80633104d472146100a35780637c0c5f23146100c157806388af190b146100f1578063a5694e4a14610122578063a9059cbb14610153575b600080fd5b6100ab610205565b6040516100b89190610780565b60405180910390f35b6100db60048036038101906100d6919061063f565b61020a565b6040516100e891906107df565b60405180910390f35b61010b6004803603810190610106919061063f565b61028c565b6040516101199291906107b6565b60405180910390f35b61013c6004803603810190610137919061063f565b6103a5565b60405161014a9291906107b6565b60405180910390f35b61016d6004803603810190610168919061063f565b6104a6565b005b6101776104f1565b604051610184919061073c565b60405180910390f35b610195610515565b6040516101a29190610801565b60405180910390f35b6101b361051b565b6040516101c0919061079b565b60405180910390f35b6101d161055f565b6040516101de91906107df565b60405180910390f35b6101ef6105d1565b6040516101fc919061079b565b60405180910390f35b600090565b606061021461051b565b8383604051602401610227929190610757565b604051602081830303815290604052907bffffffffffffffffffffffffffffffffffffffffffffffffffffffff19166020820180517bffffffffffffffffffffffffffffffffffffffffffffffffffffffff8381831617835250505050905092915050565b6000806000803073ffffffffffffffffffffffffffffffffffffffff1686866040516024016102bc929190610757565b6040516020818303038152906040527fa9059cbb000000000000000000000000000000000000000000000000000000007bffffffffffffffffffffffffffffffffffffffffffffffffffffffff19166020820180517bffffffffffffffffffffffffffffffffffffffffffffffffffffffff83818316178352505050506040516103469190610725565b6000604051808303816000865af19150503d8060008114610383576040519150601f19603f3d011682016040523d82523d6000602084013e610388565b606091505b509150915080610397906108c7565b829350935050509250929050565b6000806000803073ffffffffffffffffffffffffffffffffffffffff166103ca61051b565b87876040516024016103dd929190610757565b604051602081830303815290604052907bffffffffffffffffffffffffffffffffffffffffffffffffffffffff19166020820180517bffffffffffffffffffffffffffffffffffffffffffffffffffffffff83818316178352505050506040516104479190610725565b6000604051808303816000865af19150503d8060008114610484576040519150601f19603f3d011682016040523d82523d6000602084013e610489565b606091505b509150915080610498906108c7565b829350935050509250929050565b816000806101000a81548173ffffffffffffffffffffffffffffffffffffffff021916908373ffffffffffffffffffffffffffffffffffffffff160217905550806001819055505050565b60008054906101000a900473ffffffffffffffffffffffffffffffffffffffff1681565b60015481565b60006040518060400160405280601981526020017f7472616e7366657228616464726573732c75696e74323536290000000000000081525080519060200120905090565b60606105696105d1565b604051602401604051602081830303815290604052907bffffffffffffffffffffffffffffffffffffffffffffffffffffffff19166020820180517bffffffffffffffffffffffffffffffffffffffffffffffffffffffff8381831617835250505050905090565b60006040518060400160405280601581526020017f63616c6c416e6f7468657246756e6374696f6e2829000000000000000000000081525080519060200120905090565b60008135905061062481610999565b92915050565b600081359050610639816109b0565b92915050565b6000806040838503121561065657610655610976565b5b600061066485828601610615565b92505060206106758582860161062a565b9150509250929050565b61068881610853565b82525050565b61069781610865565b82525050565b6106a681610871565b82525050565b60006106b78261082c565b6106c18185610837565b93506106d181856020860161092e565b6106da8161097b565b840191505092915050565b60006106f08261082c565b6106fa8185610848565b935061070a81856020860161092e565b80840191505092915050565b61071f816108bd565b82525050565b600061073182846106e5565b915081905092915050565b6000602082019050610751600083018461067f565b92915050565b600060408201905061076c600083018561067f565b6107796020830184610716565b9392505050565b6000602082019050610795600083018461068e565b92915050565b60006020820190506107b0600083018461069d565b92915050565b60006040820190506107cb600083018561069d565b6107d8602083018461068e565b9392505050565b600060208201905081810360008301526107f981846106ac565b905092915050565b60006020820190506108166000830184610716565b92915050565b6000819050602082019050919050565b600081519050919050565b600082825260208201905092915050565b600081905092915050565b600061085e8261089d565b9050919050565b60008115159050919050565b60007fffffffff0000000000000000000000000000000000000000000000000000000082169050919050565b600073ffffffffffffffffffffffffffffffffffffffff82169050919050565b6000819050919050565b60006108d28261082c565b826108dc8461081c565b90506108e781610961565b92506004821015610927576109227fffffffff000000000000000000000000000000000000000000000000000000008360040360080261098c565b831692505b5050919050565b60005b8381101561094c578082015181840152602081019050610931565b8381111561095b576000848401525b50505050565b600061096d8251610871565b80915050919050565b600080fd5b6000601f19601f8301169050919050565b600082821b905092915050565b6109a281610853565b81146109ad57600080fd5b50565b6109b9816108bd565b81146109c457600080fd5b5056fea264697066735822122093acc83b321e8bc69b37610ceb68c32351f22f80b3c89d2f95ef6b7e610633f664736f6c63430008070033",
					"opcodes": "PUSH1 0x80 PUSH1 0x40 MSTORE CALLVALUE DUP1 ISZERO PUSH2 0x10 JUMPI PUSH1 0x0 DUP1 REVERT JUMPDEST POP PUSH2 0x9FD DUP1 PUSH2 0x20 PUSH1 0x0 CODECOPY PUSH1 0x0 RETURN INVALID PUSH1 0x80 PUSH1 0x40 MSTORE CALLVALUE DUP1 ISZERO PUSH2 0x10 JUMPI PUSH1 0x0 DUP1 REVERT JUMPDEST POP PUSH1 0x4 CALLDATASIZE LT PUSH2 0x9E JUMPI PUSH1 0x0 CALLDATALOAD PUSH1 0xE0 SHR DUP1 PUSH4 0xAAD229D5 GT PUSH2 0x66 JUMPI DUP1 PUSH4 0xAAD229D5 EQ PUSH2 0x16F JUMPI DUP1 PUSH4 0xC6E93BAD EQ PUSH2 0x18D JUMPI DUP1 PUSH4 0xE41706D5 EQ PUSH2 0x1AB JUMPI DUP1 PUSH4 0xE9CEDD14 EQ PUSH2 0x1C9 JUMPI DUP1 PUSH4 0xF14CECD6 EQ PUSH2 0x1E7 JUMPI PUSH2 0x9E JUMP JUMPDEST DUP1 PUSH4 0x3104D472 EQ PUSH2 0xA3 JUMPI DUP1 PUSH4 0x7C0C5F23 EQ PUSH2 0xC1 JUMPI DUP1 PUSH4 0x88AF190B EQ PUSH2 0xF1 JUMPI DUP1 PUSH4 0xA5694E4A EQ PUSH2 0x122 JUMPI DUP1 PUSH4 0xA9059CBB EQ PUSH2 0x153 JUMPI JUMPDEST PUSH1 0x0 DUP1 REVERT JUMPDEST PUSH2 0xAB PUSH2 0x205 JUMP JUMPDEST PUSH1 0x40 MLOAD PUSH2 0xB8 SWAP2 SWAP1 PUSH2 0x780 JUMP JUMPDEST PUSH1 0x40 MLOAD DUP1 SWAP2 SUB SWAP1 RETURN JUMPDEST PUSH2 0xDB PUSH1 0x4 DUP1 CALLDATASIZE SUB DUP2 ADD SWAP1 PUSH2 0xD6 SWAP2 SWAP1 PUSH2 0x63F JUMP JUMPDEST PUSH2 0x20A JUMP JUMPDEST PUSH1 0x40 MLOAD PUSH2 0xE8 SWAP2 SWAP1 PUSH2 0x7DF JUMP JUMPDEST PUSH1 0x40 MLOAD DUP1 SWAP2 SUB SWAP1 RETURN JUMPDEST PUSH2 0x10B PUSH1 0x4 DUP1 CALLDATASIZE SUB DUP2 ADD SWAP1 PUSH2 0x106 SWAP2 SWAP1 PUSH2 0x63F JUMP JUMPDEST PUSH2 0x28C JUMP JUMPDEST PUSH1 0x40 MLOAD PUSH2 0x119 SWAP3 SWAP2 SWAP1 PUSH2 0x7B6 JUMP JUMPDEST PUSH1 0x40 MLOAD DUP1 SWAP2 SUB SWAP1 RETURN JUMPDEST PUSH2 0x13C PUSH1 0x4 DUP1 CALLDATASIZE SUB DUP2 ADD SWAP1 PUSH2 0x137 SWAP2 SWAP1 PUSH2 0x63F JUMP JUMPDEST PUSH2 0x3A5 JUMP JUMPDEST PUSH1 0x40 MLOAD PUSH2 0x14A SWAP3 SWAP2 SWAP1 PUSH2 0x7B6 JUMP JUMPDEST PUSH1 0x40 MLOAD DUP1 SWAP2 SUB SWAP1 RETURN JUMPDEST PUSH2 0x16D PUSH1 0x4 DUP1 CALLDATASIZE SUB DUP2 ADD SWAP1 PUSH2 0x168 SWAP2 SWAP1 PUSH2 0x63F JUMP JUMPDEST PUSH2 0x4A6 JUMP JUMPDEST STOP JUMPDEST PUSH2 0x177 PUSH2 0x4F1 JUMP JUMPDEST PUSH1 0x40 MLOAD PUSH2 0x184 SWAP2 SWAP1 PUSH2 0x73C JUMP JUMPDEST PUSH1 0x40 MLOAD DUP1 SWAP2 SUB SWAP1 RETURN JUMPDEST PUSH2 0x195 PUSH2 0x515 JUMP JUMPDEST PUSH1 0x40 MLOAD PUSH2 0x1A2 SWAP2 SWAP1 PUSH2 0x801 JUMP JUMPDEST PUSH1 0x40 MLOAD DUP1 SWAP2 SUB SWAP1 RETURN JUMPDEST PUSH2 0x1B3 PUSH2 0x51B JUMP JUMPDEST PUSH1 0x40 MLOAD PUSH2 0x1C0 SWAP2 SWAP1 PUSH2 0x79B JUMP JUMPDEST PUSH1 0x40 MLOAD DUP1 SWAP2 SUB SWAP1 RETURN JUMPDEST PUSH2 0x1D1 PUSH2 0x55F JUMP JUMPDEST PUSH1 0x40 MLOAD PUSH2 0x1DE SWAP2 SWAP1 PUSH2 0x7DF JUMP JUMPDEST PUSH1 0x40 MLOAD DUP1 SWAP2 SUB SWAP1 RETURN JUMPDEST PUSH2 0x1EF PUSH2 0x5D1 JUMP JUMPDEST PUSH1 0x40 MLOAD PUSH2 0x1FC SWAP2 SWAP1 PUSH2 0x79B JUMP JUMPDEST PUSH1 0x40 MLOAD DUP1 SWAP2 SUB SWAP1 RETURN JUMPDEST PUSH1 0x0 SWAP1 JUMP JUMPDEST PUSH1 0x60 PUSH2 0x214 PUSH2 0x51B JUMP JUMPDEST DUP4 DUP4 PUSH1 0x40 MLOAD PUSH1 0x24 ADD PUSH2 0x227 SWAP3 SWAP2 SWAP1 PUSH2 0x757 JUMP JUMPDEST PUSH1 0x40 MLOAD PUSH1 0x20 DUP2 DUP4 SUB SUB DUP2 MSTORE SWAP1 PUSH1 0x40 MSTORE SWAP1 PUSH28 0xFFFFFFFFFFFFFFFFFFFFFFFFFFFFFFFFFFFFFFFFFFFFFFFFFFFFFFFF NOT AND PUSH1 0x20 DUP3 ADD DUP1 MLOAD PUSH28 0xFFFFFFFFFFFFFFFFFFFFFFFFFFFFFFFFFFFFFFFFFFFFFFFFFFFFFFFF DUP4 DUP2 DUP4 AND OR DUP4 MSTORE POP POP POP POP SWAP1 POP SWAP3 SWAP2 POP POP JUMP JUMPDEST PUSH1 0x0 DUP1 PUSH1 0x0 DUP1 ADDRESS PUSH20 0xFFFFFFFFFFFFFFFFFFFFFFFFFFFFFFFFFFFFFFFF AND DUP7 DUP7 PUSH1 0x40 MLOAD PUSH1 0x24 ADD PUSH2 0x2BC SWAP3 SWAP2 SWAP1 PUSH2 0x757 JUMP JUMPDEST PUSH1 0x40 MLOAD PUSH1 0x20 DUP2 DUP4 SUB SUB DUP2 MSTORE SWAP1 PUSH1 0x40 MSTORE PUSH32 0xA9059CBB00000000000000000000000000000000000000000000000000000000 PUSH28 0xFFFFFFFFFFFFFFFFFFFFFFFFFFFFFFFFFFFFFFFFFFFFFFFFFFFFFFFF NOT AND PUSH1 0x20 DUP3 ADD DUP1 MLOAD PUSH28 0xFFFFFFFFFFFFFFFFFFFFFFFFFFFFFFFFFFFFFFFFFFFFFFFFFFFFFFFF DUP4 DUP2 DUP4 AND OR DUP4 MSTORE POP POP POP POP PUSH1 0x40 MLOAD PUSH2 0x346 SWAP2 SWAP1 PUSH2 0x725 JUMP JUMPDEST PUSH1 0x0 PUSH1 0x40 MLOAD DUP1 DUP4 SUB DUP2 PUSH1 0x0 DUP7 GAS CALL SWAP2 POP POP RETURNDATASIZE DUP1 PUSH1 0x0 DUP2 EQ PUSH2 0x383 JUMPI PUSH1 0x40 MLOAD SWAP2 POP PUSH1 0x1F NOT PUSH1 0x3F RETURNDATASIZE ADD AND DUP3 ADD PUSH1 0x40 MSTORE RETURNDATASIZE DUP3 MSTORE RETURNDATASIZE PUSH1 0x0 PUSH1 0x20 DUP5 ADD RETURNDATACOPY PUSH2 0x388 JUMP JUMPDEST PUSH1 0x60 SWAP2 POP JUMPDEST POP SWAP2 POP SWAP2 POP DUP1 PUSH2 0x397 SWAP1 PUSH2 0x8C7 JUMP JUMPDEST DUP3 SWAP4 POP SWAP4 POP POP POP SWAP3 POP SWAP3 SWAP1 POP JUMP JUMPDEST PUSH1 0x0 DUP1 PUSH1 0x0 DUP1 ADDRESS PUSH20 0xFFFFFFFFFFFFFFFFFFFFFFFFFFFFFFFFFFFFFFFF AND PUSH2 0x3CA PUSH2 0x51B JUMP JUMPDEST DUP8 DUP8 PUSH1 0x40 MLOAD PUSH1 0x24 ADD PUSH2 0x3DD SWAP3 SWAP2 SWAP1 PUSH2 0x757 JUMP JUMPDEST PUSH1 0x40 MLOAD PUSH1 0x20 DUP2 DUP4 SUB SUB DUP2 MSTORE SWAP1 PUSH1 0x40 MSTORE SWAP1 PUSH28 0xFFFFFFFFFFFFFFFFFFFFFFFFFFFFFFFFFFFFFFFFFFFFFFFFFFFFFFFF NOT AND PUSH1 0x20 DUP3 ADD DUP1 MLOAD PUSH28 0xFFFFFFFFFFFFFFFFFFFFFFFFFFFFFFFFFFFFFFFFFFFFFFFFFFFFFFFF DUP4 DUP2 DUP4 AND OR DUP4 MSTORE POP POP POP POP PUSH1 0x40 MLOAD PUSH2 0x447 SWAP2 SWAP1 PUSH2 0x725 JUMP JUMPDEST PUSH1 0x0 PUSH1 0x40 MLOAD DUP1 DUP4 SUB DUP2 PUSH1 0x0 DUP7 GAS CALL SWAP2 POP POP RETURNDATASIZE DUP1 PUSH1 0x0 DUP2 EQ PUSH2 0x484 JUMPI PUSH1 0x40 MLOAD SWAP2 POP PUSH1 0x1F NOT PUSH1 0x3F RETURNDATASIZE ADD AND DUP3 ADD PUSH1 0x40 MSTORE RETURNDATASIZE DUP3 MSTORE RETURNDATASIZE PUSH1 0x0 PUSH1 0x20 DUP5 ADD RETURNDATACOPY PUSH2 0x489 JUMP JUMPDEST PUSH1 0x60 SWAP2 POP JUMPDEST POP SWAP2 POP SWAP2 POP DUP1 PUSH2 0x498 SWAP1 PUSH2 0x8C7 JUMP JUMPDEST DUP3 SWAP4 POP SWAP4 POP POP POP SWAP3 POP SWAP3 SWAP1 POP JUMP JUMPDEST DUP2 PUSH1 0x0 DUP1 PUSH2 0x100 EXP DUP2 SLOAD DUP2 PUSH20 0xFFFFFFFFFFFFFFFFFFFFFFFFFFFFFFFFFFFFFFFF MUL NOT AND SWAP1 DUP4 PUSH20 0xFFFFFFFFFFFFFFFFFFFFFFFFFFFFFFFFFFFFFFFF AND MUL OR SWAP1 SSTORE POP DUP1 PUSH1 0x1 DUP2 SWAP1 SSTORE POP POP POP JUMP JUMPDEST PUSH1 0x0 DUP1 SLOAD SWAP1 PUSH2 0x100 EXP SWAP1 DIV PUSH20 0xFFFFFFFFFFFFFFFFFFFFFFFFFFFFFFFFFFFFFFFF AND DUP2 JUMP JUMPDEST PUSH1 0x1 SLOAD DUP2 JUMP JUMPDEST PUSH1 0x0 PUSH1 0x40 MLOAD DUP1 PUSH1 0x40 ADD PUSH1 0x40 MSTORE DUP1 PUSH1 0x19 DUP2 MSTORE PUSH1 0x20 ADD PUSH32 0x7472616E7366657228616464726573732C75696E743235362900000000000000 DUP2 MSTORE POP DUP1 MLOAD SWAP1 PUSH1 0x20 ADD KECCAK256 SWAP1 POP SWAP1 JUMP JUMPDEST PUSH1 0x60 PUSH2 0x569 PUSH2 0x5D1 JUMP JUMPDEST PUSH1 0x40 MLOAD PUSH1 0x24 ADD PUSH1 0x40 MLOAD PUSH1 0x20 DUP2 DUP4 SUB SUB DUP2 MSTORE SWAP1 PUSH1 0x40 MSTORE SWAP1 PUSH28 0xFFFFFFFFFFFFFFFFFFFFFFFFFFFFFFFFFFFFFFFFFFFFFFFFFFFFFFFF NOT AND PUSH1 0x20 DUP3 ADD DUP1 MLOAD PUSH28 0xFFFFFFFFFFFFFFFFFFFFFFFFFFFFFFFFFFFFFFFFFFFFFFFFFFFFFFFF DUP4 DUP2 DUP4 AND OR DUP4 MSTORE POP POP POP POP SWAP1 POP SWAP1 JUMP JUMPDEST PUSH1 0x0 PUSH1 0x40 MLOAD DUP1 PUSH1 0x40 ADD PUSH1 0x40 MSTORE DUP1 PUSH1 0x15 DUP2 MSTORE PUSH1 0x20 ADD PUSH32 0x63616C6C416E6F7468657246756E6374696F6E28290000000000000000000000 DUP2 MSTORE POP DUP1 MLOAD SWAP1 PUSH1 0x20 ADD KECCAK256 SWAP1 POP SWAP1 JUMP JUMPDEST PUSH1 0x0 DUP2 CALLDATALOAD SWAP1 POP PUSH2 0x624 DUP2 PUSH2 0x999 JUMP JUMPDEST SWAP3 SWAP2 POP POP JUMP JUMPDEST PUSH1 0x0 DUP2 CALLDATALOAD SWAP1 POP PUSH2 0x639 DUP2 PUSH2 0x9B0 JUMP JUMPDEST SWAP3 SWAP2 POP POP JUMP JUMPDEST PUSH1 0x0 DUP1 PUSH1 0x40 DUP4 DUP6 SUB SLT ISZERO PUSH2 0x656 JUMPI PUSH2 0x655 PUSH2 0x976 JUMP JUMPDEST JUMPDEST PUSH1 0x0 PUSH2 0x664 DUP6 DUP3 DUP7 ADD PUSH2 0x615 JUMP JUMPDEST SWAP3 POP POP PUSH1 0x20 PUSH2 0x675 DUP6 DUP3 DUP7 ADD PUSH2 0x62A JUMP JUMPDEST SWAP2 POP POP SWAP3 POP SWAP3 SWAP1 POP JUMP JUMPDEST PUSH2 0x688 DUP2 PUSH2 0x853 JUMP JUMPDEST DUP3 MSTORE POP POP JUMP JUMPDEST PUSH2 0x697 DUP2 PUSH2 0x865 JUMP JUMPDEST DUP3 MSTORE POP POP JUMP JUMPDEST PUSH2 0x6A6 DUP2 PUSH2 0x871 JUMP JUMPDEST DUP3 MSTORE POP POP JUMP JUMPDEST PUSH1 0x0 PUSH2 0x6B7 DUP3 PUSH2 0x82C JUMP JUMPDEST PUSH2 0x6C1 DUP2 DUP6 PUSH2 0x837 JUMP JUMPDEST SWAP4 POP PUSH2 0x6D1 DUP2 DUP6 PUSH1 0x20 DUP7 ADD PUSH2 0x92E JUMP JUMPDEST PUSH2 0x6DA DUP2 PUSH2 0x97B JUMP JUMPDEST DUP5 ADD SWAP2 POP POP SWAP3 SWAP2 POP POP JUMP JUMPDEST PUSH1 0x0 PUSH2 0x6F0 DUP3 PUSH2 0x82C JUMP JUMPDEST PUSH2 0x6FA DUP2 DUP6 PUSH2 0x848 JUMP JUMPDEST SWAP4 POP PUSH2 0x70A DUP2 DUP6 PUSH1 0x20 DUP7 ADD PUSH2 0x92E JUMP JUMPDEST DUP1 DUP5 ADD SWAP2 POP POP SWAP3 SWAP2 POP POP JUMP JUMPDEST PUSH2 0x71F DUP2 PUSH2 0x8BD JUMP JUMPDEST DUP3 MSTORE POP POP JUMP JUMPDEST PUSH1 0x0 PUSH2 0x731 DUP3 DUP5 PUSH2 0x6E5 JUMP JUMPDEST SWAP2 POP DUP2 SWAP1 POP SWAP3 SWAP2 POP POP JUMP JUMPDEST PUSH1 0x0 PUSH1 0x20 DUP3 ADD SWAP1 POP PUSH2 0x751 PUSH1 0x0 DUP4 ADD DUP5 PUSH2 0x67F JUMP JUMPDEST SWAP3 SWAP2 POP POP JUMP JUMPDEST PUSH1 0x0 PUSH1 0x40 DUP3 ADD SWAP1 POP PUSH2 0x76C PUSH1 0x0 DUP4 ADD DUP6 PUSH2 0x67F JUMP JUMPDEST PUSH2 0x779 PUSH1 0x20 DUP4 ADD DUP5 PUSH2 0x716 JUMP JUMPDEST SWAP4 SWAP3 POP POP POP JUMP JUMPDEST PUSH1 0x0 PUSH1 0x20 DUP3 ADD SWAP1 POP PUSH2 0x795 PUSH1 0x0 DUP4 ADD DUP5 PUSH2 0x68E JUMP JUMPDEST SWAP3 SWAP2 POP POP JUMP JUMPDEST PUSH1 0x0 PUSH1 0x20 DUP3 ADD SWAP1 POP PUSH2 0x7B0 PUSH1 0x0 DUP4 ADD DUP5 PUSH2 0x69D JUMP JUMPDEST SWAP3 SWAP2 POP POP JUMP JUMPDEST PUSH1 0x0 PUSH1 0x40 DUP3 ADD SWAP1 POP PUSH2 0x7CB PUSH1 0x0 DUP4 ADD DUP6 PUSH2 0x69D JUMP JUMPDEST PUSH2 0x7D8 PUSH1 0x20 DUP4 ADD DUP5 PUSH2 0x68E JUMP JUMPDEST SWAP4 SWAP3 POP POP POP JUMP JUMPDEST PUSH1 0x0 PUSH1 0x20 DUP3 ADD SWAP1 POP DUP2 DUP2 SUB PUSH1 0x0 DUP4 ADD MSTORE PUSH2 0x7F9 DUP2 DUP5 PUSH2 0x6AC JUMP JUMPDEST SWAP1 POP SWAP3 SWAP2 POP POP JUMP JUMPDEST PUSH1 0x0 PUSH1 0x20 DUP3 ADD SWAP1 POP PUSH2 0x816 PUSH1 0x0 DUP4 ADD DUP5 PUSH2 0x716 JUMP JUMPDEST SWAP3 SWAP2 POP POP JUMP JUMPDEST PUSH1 0x0 DUP2 SWAP1 POP PUSH1 0x20 DUP3 ADD SWAP1 POP SWAP2 SWAP1 POP JUMP JUMPDEST PUSH1 0x0 DUP2 MLOAD SWAP1 POP SWAP2 SWAP1 POP JUMP JUMPDEST PUSH1 0x0 DUP3 DUP3 MSTORE PUSH1 0x20 DUP3 ADD SWAP1 POP SWAP3 SWAP2 POP POP JUMP JUMPDEST PUSH1 0x0 DUP2 SWAP1 POP SWAP3 SWAP2 POP POP JUMP JUMPDEST PUSH1 0x0 PUSH2 0x85E DUP3 PUSH2 0x89D JUMP JUMPDEST SWAP1 POP SWAP2 SWAP1 POP JUMP JUMPDEST PUSH1 0x0 DUP2 ISZERO ISZERO SWAP1 POP SWAP2 SWAP1 POP JUMP JUMPDEST PUSH1 0x0 PUSH32 0xFFFFFFFF00000000000000000000000000000000000000000000000000000000 DUP3 AND SWAP1 POP SWAP2 SWAP1 POP JUMP JUMPDEST PUSH1 0x0 PUSH20 0xFFFFFFFFFFFFFFFFFFFFFFFFFFFFFFFFFFFFFFFF DUP3 AND SWAP1 POP SWAP2 SWAP1 POP JUMP JUMPDEST PUSH1 0x0 DUP2 SWAP1 POP SWAP2 SWAP1 POP JUMP JUMPDEST PUSH1 0x0 PUSH2 0x8D2 DUP3 PUSH2 0x82C JUMP JUMPDEST DUP3 PUSH2 0x8DC DUP5 PUSH2 0x81C JUMP JUMPDEST SWAP1 POP PUSH2 0x8E7 DUP2 PUSH2 0x961 JUMP JUMPDEST SWAP3 POP PUSH1 0x4 DUP3 LT ISZERO PUSH2 0x927 JUMPI PUSH2 0x922 PUSH32 0xFFFFFFFF00000000000000000000000000000000000000000000000000000000 DUP4 PUSH1 0x4 SUB PUSH1 0x8 MUL PUSH2 0x98C JUMP JUMPDEST DUP4 AND SWAP3 POP JUMPDEST POP POP SWAP2 SWAP1 POP JUMP JUMPDEST PUSH1 0x0 JUMPDEST DUP4 DUP2 LT ISZERO PUSH2 0x94C JUMPI DUP1 DUP3 ADD MLOAD DUP2 DUP5 ADD MSTORE PUSH1 0x20 DUP2 ADD SWAP1 POP PUSH2 0x931 JUMP JUMPDEST DUP4 DUP2 GT ISZERO PUSH2 0x95B JUMPI PUSH1 0x0 DUP5 DUP5 ADD MSTORE JUMPDEST POP POP POP POP JUMP JUMPDEST PUSH1 0x0 PUSH2 0x96D DUP3 MLOAD PUSH2 0x871 JUMP JUMPDEST DUP1 SWAP2 POP POP SWAP2 SWAP1 POP JUMP JUMPDEST PUSH1 0x0 DUP1 REVERT JUMPDEST PUSH1 0x0 PUSH1 0x1F NOT PUSH1 0x1F DUP4 ADD AND SWAP1 POP SWAP2 SWAP1 POP JUMP JUMPDEST PUSH1 0x0 DUP3 DUP3 SHL SWAP1 POP SWAP3 SWAP2 POP POP JUMP JUMPDEST PUSH2 0x9A2 DUP2 PUSH2 0x853 JUMP JUMPDEST DUP2 EQ PUSH2 0x9AD JUMPI PUSH1 0x0 DUP1 REVERT JUMPDEST POP JUMP JUMPDEST PUSH2 0x9B9 DUP2 PUSH2 0x8BD JUMP JUMPDEST DUP2 EQ PUSH2 0x9C4 JUMPI PUSH1 0x0 DUP1 REVERT JUMPDEST POP JUMP INVALID LOG2 PUSH5 0x6970667358 0x22 SLT KECCAK256 SWAP4 0xAC 0xC8 EXTCODESIZE ORIGIN 0x1E DUP12 0xC6 SWAP12 CALLDATACOPY PUSH2 0xCEB PUSH9 0xC32351F22F80B3C89D 0x2F SWAP6 0xEF PUSH12 0x7E610633F664736F6C634300 ADDMOD SMOD STOP CALLER "
				},
				"gasEstimates": {
					"creation": {
						"codeDepositCost": "511400",
						"executionCost": "543",
						"totalCost": "511943"
					},
					"external": {
						"callAnotherFunction()": "336",
						"callTransferFunctionDirectly(address,uint256)": "infinite",
						"callTransferFunctionDirectlySig(address,uint256)": "infinite",
						"getDataToCallCallAnotherFunction()": "infinite",
						"getDataToCallTransfer(address,uint256)": "infinite",
						"getselectorOne()": "491",
						"getselectorTwo()": "535",
						"s_amount()": "2451",
						"s_someAddress()": "2511",
						"transfer(address,uint256)": "47098"
					}
				},
				"methodIdentifiers": {
					"callAnotherFunction()": "3104d472",
					"callTransferFunctionDirectly(address,uint256)": "a5694e4a",
					"callTransferFunctionDirectlySig(address,uint256)": "88af190b",
					"getDataToCallCallAnotherFunction()": "e9cedd14",
					"getDataToCallTransfer(address,uint256)": "7c0c5f23",
					"getselectorOne()": "e41706d5",
					"getselectorTwo()": "f14cecd6",
					"s_amount()": "c6e93bad",
					"s_someAddress()": "aad229d5",
					"transfer(address,uint256)": "a9059cbb"
				}
			},
			"storageLayout": {
				"storage": [
					{
						"astId": 3,
						"contract": "CallAnything.sol:CallAnything",
						"label": "s_someAddress",
						"offset": 0,
						"slot": "0",
						"type": "t_address"
					},
					{
						"astId": 5,
						"contract": "CallAnything.sol:CallAnything",
						"label": "s_amount",
						"offset": 0,
						"slot": "1",
						"type": "t_uint256"
					}
				],
				"types": {
					"t_address": {
						"encoding": "inplace",
						"label": "address",
						"numberOfBytes": "20"
					},
					"t_uint256": {
						"encoding": "inplace",
						"label": "uint256",
						"numberOfBytes": "32"
					}
				}
			},
			"userdoc": {
				"kind": "user",
				"methods": {},
				"version": 1
			}
		}
	}
}