{
	"challenge one.sol": {
		"LessonFive": {
			"abi": [
				{
					"inputs": [
						{
							"internalType": "address",
							"name": "fcn",
							"type": "address"
						}
					],
					"stateMutability": "nonpayable",
					"type": "constructor"
				},
				{
					"inputs": [],
					"name": "AFoundryCourseChallenge__CantBeZeroAddress",
					"type": "error"
				},
				{
					"inputs": [],
					"name": "LessonFive__WrongPassword",
					"type": "error"
				},
				{
					"anonymous": false,
					"inputs": [
						{
							"indexed": true,
							"internalType": "address",
							"name": "previousOwner",
							"type": "address"
						},
						{
							"indexed": true,
							"internalType": "address",
							"name": "newOwner",
							"type": "address"
						}
					],
					"name": "OwnershipTransferred",
					"type": "event"
				},
				{
					"inputs": [],
					"name": "EXPECTED_BYTES",
					"outputs": [
						{
							"internalType": "bytes32",
							"name": "",
							"type": "bytes32"
						}
					],
					"stateMutability": "view",
					"type": "function"
				},
				{
					"inputs": [],
					"name": "attribute",
					"outputs": [
						{
							"internalType": "string",
							"name": "",
							"type": "string"
						}
					],
					"stateMutability": "pure",
					"type": "function"
				},
				{
					"inputs": [],
					"name": "description",
					"outputs": [
						{
							"internalType": "string",
							"name": "",
							"type": "string"
						}
					],
					"stateMutability": "pure",
					"type": "function"
				},
				{
					"inputs": [
						{
							"internalType": "address",
							"name": "",
							"type": "address"
						}
					],
					"name": "extraDescription",
					"outputs": [
						{
							"internalType": "string",
							"name": "",
							"type": "string"
						}
					],
					"stateMutability": "view",
					"type": "function"
				},
				{
					"inputs": [],
					"name": "owner",
					"outputs": [
						{
							"internalType": "address",
							"name": "",
							"type": "address"
						}
					],
					"stateMutability": "view",
					"type": "function"
				},
				{
					"inputs": [],
					"name": "renounceOwnership",
					"outputs": [],
					"stateMutability": "nonpayable",
					"type": "function"
				},
				{
					"inputs": [
						{
							"internalType": "string",
							"name": "password",
							"type": "string"
						},
						{
							"internalType": "string",
							"name": "yourTwitterHandle",
							"type": "string"
						}
					],
					"name": "solveChallenge",
					"outputs": [],
					"stateMutability": "nonpayable",
					"type": "function"
				},
				{
					"inputs": [],
					"name": "specialImage",
					"outputs": [
						{
							"internalType": "string",
							"name": "",
							"type": "string"
						}
					],
					"stateMutability": "pure",
					"type": "function"
				},
				{
					"inputs": [
						{
							"internalType": "address",
							"name": "newOwner",
							"type": "address"
						}
					],
					"name": "transferOwnership",
					"outputs": [],
					"stateMutability": "nonpayable",
					"type": "function"
				}
			],
			"devdoc": {
				"kind": "dev",
				"methods": {
					"owner()": {
						"details": "Returns the address of the current owner."
					},
					"renounceOwnership()": {
						"details": "Leaves the contract without owner. It will not be possible to call `onlyOwner` functions anymore. Can only be called by the current owner. NOTE: Renouncing ownership will leave the contract without an owner, thereby removing any functionality that is only available to the owner."
					},
					"transferOwnership(address)": {
						"details": "Transfers ownership of the contract to a new account (`newOwner`). Can only be called by the current owner."
					}
				},
				"version": 1
			},
			"evm": {
				"assembly": "    /* \"challenge one.sol\":135:1961  contract LessonFive is AFoundryCourseChallenge {... */\n  mstore(0x40, 0xa0)\n    /* \"challenge one.sol\":458:514  constructor(address fcn) AFoundryCourseChallenge(fcn) {} */\n  callvalue\n  dup1\n  iszero\n  tag_1\n  jumpi\n  0x00\n  dup1\n  revert\ntag_1:\n  pop\n  mload(0x40)\n  sub(codesize, bytecodeSize)\n  dup1\n  bytecodeSize\n  dup4\n  codecopy\n  dup2\n  dup2\n  add\n  0x40\n  mstore\n  dup2\n  add\n  swap1\n  tag_2\n  swap2\n  swap1\n  tag_3\n  jump\t// in\ntag_2:\n    /* \"challenge one.sol\":507:510  fcn */\n  dup1\n    /* \"Ownable.sol\":955:987  _transferOwnership(_msgSender()) */\n  tag_8\n    /* \"Ownable.sol\":974:986  _msgSender() */\n  tag_9\n    /* \"Ownable.sol\":974:984  _msgSender */\n  shl(0x20, tag_10)\n    /* \"Ownable.sol\":974:986  _msgSender() */\n  0x20\n  shr\n  jump\t// in\ntag_9:\n    /* \"Ownable.sol\":955:973  _transferOwnership */\n  shl(0x20, tag_11)\n    /* \"Ownable.sol\":955:987  _transferOwnership(_msgSender()) */\n  0x20\n  shr\n  jump\t// in\ntag_8:\n    /* \"AFoundryCourseChallenge.sol\":640:641  0 */\n  0x00\n    /* \"AFoundryCourseChallenge.sol\":609:642  FoundryCourseNftNft == address(0) */\n  0xffffffffffffffffffffffffffffffffffffffff\n  and\n    /* \"AFoundryCourseChallenge.sol\":609:628  FoundryCourseNftNft */\n  dup2\n    /* \"AFoundryCourseChallenge.sol\":609:642  FoundryCourseNftNft == address(0) */\n  0xffffffffffffffffffffffffffffffffffffffff\n  and\n  sub\n    /* \"AFoundryCourseChallenge.sol\":605:722  if (FoundryCourseNftNft == address(0)) {... */\n  tag_13\n  jumpi\n    /* \"AFoundryCourseChallenge.sol\":666:710  AFoundryCourseChallenge__CantBeZeroAddress() */\n  mload(0x40)\n  0x449c81fb00000000000000000000000000000000000000000000000000000000\n  dup2\n  mstore\n  0x04\n  add\n  mload(0x40)\n  dup1\n  swap2\n  sub\n  swap1\n  revert\n    /* \"AFoundryCourseChallenge.sol\":605:722  if (FoundryCourseNftNft == address(0)) {... */\ntag_13:\n    /* \"AFoundryCourseChallenge.sol\":771:790  FoundryCourseNftNft */\n  dup1\n    /* \"AFoundryCourseChallenge.sol\":732:791  i_foundryCourseNft = IFoundryCourseNft(FoundryCourseNftNft) */\n  0xffffffffffffffffffffffffffffffffffffffff\n  and\n  0x80\n  dup2\n  0xffffffffffffffffffffffffffffffffffffffff\n  and\n  dup2\n  mstore\n  pop\n  pop\n    /* \"AFoundryCourseChallenge.sol\":553:799  constructor(address FoundryCourseNftNft) {... */\n  pop\n    /* \"challenge one.sol\":458:514  constructor(address fcn) AFoundryCourseChallenge(fcn) {} */\n  pop\n    /* \"challenge one.sol\":135:1961  contract LessonFive is AFoundryCourseChallenge {... */\n  jump(tag_15)\n    /* \"Context.sol\":656:754  function _msgSender() internal view virtual returns (address) {... */\ntag_10:\n    /* \"Context.sol\":709:716  address */\n  0x00\n    /* \"Context.sol\":736:746  msg.sender */\n  caller\n    /* \"Context.sol\":729:746  return msg.sender */\n  swap1\n  pop\n    /* \"Context.sol\":656:754  function _msgSender() internal view virtual returns (address) {... */\n  swap1\n  jump\t// out\n    /* \"Ownable.sol\":2501:2692  function _transferOwnership(address newOwner) internal virtual {... */\ntag_11:\n    /* \"Ownable.sol\":2575:2591  address oldOwner */\n  0x00\n    /* \"Ownable.sol\":2594:2600  _owner */\n  dup1\n  0x00\n  swap1\n  sload\n  swap1\n  0x0100\n  exp\n  swap1\n  div\n  0xffffffffffffffffffffffffffffffffffffffff\n  and\n    /* \"Ownable.sol\":2575:2600  address oldOwner = _owner */\n  swap1\n  pop\n    /* \"Ownable.sol\":2620:2628  newOwner */\n  dup2\n    /* \"Ownable.sol\":2611:2617  _owner */\n  0x00\n  dup1\n    /* \"Ownable.sol\":2611:2628  _owner = newOwner */\n  0x0100\n  exp\n  dup2\n  sload\n  dup2\n  0xffffffffffffffffffffffffffffffffffffffff\n  mul\n  not\n  and\n  swap1\n  dup4\n  0xffffffffffffffffffffffffffffffffffffffff\n  and\n  mul\n  or\n  swap1\n  sstore\n  pop\n    /* \"Ownable.sol\":2675:2683  newOwner */\n  dup2\n    /* \"Ownable.sol\":2644:2684  OwnershipTransferred(oldOwner, newOwner) */\n  0xffffffffffffffffffffffffffffffffffffffff\n  and\n    /* \"Ownable.sol\":2665:2673  oldOwner */\n  dup2\n    /* \"Ownable.sol\":2644:2684  OwnershipTransferred(oldOwner, newOwner) */\n  0xffffffffffffffffffffffffffffffffffffffff\n  and\n  0x8be0079c531659141344cd1fd0a4f28419497f9722a3daafe3b4186f6b6457e0\n  mload(0x40)\n  mload(0x40)\n  dup1\n  swap2\n  sub\n  swap1\n  log3\n    /* \"Ownable.sol\":2564:2692  {... */\n  pop\n    /* \"Ownable.sol\":2501:2692  function _transferOwnership(address newOwner) internal virtual {... */\n  pop\n  jump\t// out\n    /* \"#utility.yul\":88:205   */\ntag_19:\n    /* \"#utility.yul\":197:198   */\n  0x00\n    /* \"#utility.yul\":194:195   */\n  dup1\n    /* \"#utility.yul\":187:199   */\n  revert\n    /* \"#utility.yul\":334:460   */\ntag_21:\n    /* \"#utility.yul\":371:378   */\n  0x00\n    /* \"#utility.yul\":411:453   */\n  0xffffffffffffffffffffffffffffffffffffffff\n    /* \"#utility.yul\":404:409   */\n  dup3\n    /* \"#utility.yul\":400:454   */\n  and\n    /* \"#utility.yul\":389:454   */\n  swap1\n  pop\n    /* \"#utility.yul\":334:460   */\n  swap2\n  swap1\n  pop\n  jump\t// out\n    /* \"#utility.yul\":466:562   */\ntag_22:\n    /* \"#utility.yul\":503:510   */\n  0x00\n    /* \"#utility.yul\":532:556   */\n  tag_31\n    /* \"#utility.yul\":550:555   */\n  dup3\n    /* \"#utility.yul\":532:556   */\n  tag_21\n  jump\t// in\ntag_31:\n    /* \"#utility.yul\":521:556   */\n  swap1\n  pop\n    /* \"#utility.yul\":466:562   */\n  swap2\n  swap1\n  pop\n  jump\t// out\n    /* \"#utility.yul\":568:690   */\ntag_23:\n    /* \"#utility.yul\":641:665   */\n  tag_33\n    /* \"#utility.yul\":659:664   */\n  dup2\n    /* \"#utility.yul\":641:665   */\n  tag_22\n  jump\t// in\ntag_33:\n    /* \"#utility.yul\":634:639   */\n  dup2\n    /* \"#utility.yul\":631:666   */\n  eq\n    /* \"#utility.yul\":621:684   */\n  tag_34\n  jumpi\n    /* \"#utility.yul\":680:681   */\n  0x00\n    /* \"#utility.yul\":677:678   */\n  dup1\n    /* \"#utility.yul\":670:682   */\n  revert\n    /* \"#utility.yul\":621:684   */\ntag_34:\n    /* \"#utility.yul\":568:690   */\n  pop\n  jump\t// out\n    /* \"#utility.yul\":696:839   */\ntag_24:\n    /* \"#utility.yul\":753:758   */\n  0x00\n    /* \"#utility.yul\":784:790   */\n  dup2\n    /* \"#utility.yul\":778:791   */\n  mload\n    /* \"#utility.yul\":769:791   */\n  swap1\n  pop\n    /* \"#utility.yul\":800:833   */\n  tag_36\n    /* \"#utility.yul\":827:832   */\n  dup2\n    /* \"#utility.yul\":800:833   */\n  tag_23\n  jump\t// in\ntag_36:\n    /* \"#utility.yul\":696:839   */\n  swap3\n  swap2\n  pop\n  pop\n  jump\t// out\n    /* \"#utility.yul\":845:1196   */\ntag_3:\n    /* \"#utility.yul\":915:921   */\n  0x00\n    /* \"#utility.yul\":964:966   */\n  0x20\n    /* \"#utility.yul\":952:961   */\n  dup3\n    /* \"#utility.yul\":943:950   */\n  dup5\n    /* \"#utility.yul\":939:962   */\n  sub\n    /* \"#utility.yul\":935:967   */\n  slt\n    /* \"#utility.yul\":932:1051   */\n  iszero\n  tag_38\n  jumpi\n    /* \"#utility.yul\":970:1049   */\n  tag_39\n  tag_19\n  jump\t// in\ntag_39:\n    /* \"#utility.yul\":932:1051   */\ntag_38:\n    /* \"#utility.yul\":1090:1091   */\n  0x00\n    /* \"#utility.yul\":1115:1179   */\n  tag_40\n    /* \"#utility.yul\":1171:1178   */\n  dup5\n    /* \"#utility.yul\":1162:1168   */\n  dup3\n    /* \"#utility.yul\":1151:1160   */\n  dup6\n    /* \"#utility.yul\":1147:1169   */\n  add\n    /* \"#utility.yul\":1115:1179   */\n  tag_24\n  jump\t// in\ntag_40:\n    /* \"#utility.yul\":1105:1179   */\n  swap2\n  pop\n    /* \"#utility.yul\":1061:1189   */\n  pop\n    /* \"#utility.yul\":845:1196   */\n  swap3\n  swap2\n  pop\n  pop\n  jump\t// out\n    /* \"challenge one.sol\":135:1961  contract LessonFive is AFoundryCourseChallenge {... */\ntag_15:\n  mload(0x80)\n  codecopy(0x00, dataOffset(sub_0), dataSize(sub_0))\n  0x00\n  assignImmutable(\"0xd4d1a59767271eefdc7830a772b9732a11d503531d972ab8c981a6b1c0e666e5\")\n  return(0x00, dataSize(sub_0))\nstop\n\nsub_0: assembly {\n        /* \"challenge one.sol\":135:1961  contract LessonFive is AFoundryCourseChallenge {... */\n      mstore(0x40, 0x80)\n      callvalue\n      dup1\n      iszero\n      tag_1\n      jumpi\n      0x00\n      dup1\n      revert\n    tag_1:\n      pop\n      jumpi(tag_2, lt(calldatasize, 0x04))\n      shr(0xe0, calldataload(0x00))\n      dup1\n      0x715018a6\n      gt\n      tag_12\n      jumpi\n      dup1\n      0x715018a6\n      eq\n      tag_7\n      jumpi\n      dup1\n      0x7284e416\n      eq\n      tag_8\n      jumpi\n      dup1\n      0x8da5cb5b\n      eq\n      tag_9\n      jumpi\n      dup1\n      0xf2fde38b\n      eq\n      tag_10\n      jumpi\n      dup1\n      0xfa455435\n      eq\n      tag_11\n      jumpi\n      jump(tag_2)\n    tag_12:\n      dup1\n      0x14b42c77\n      eq\n      tag_3\n      jumpi\n      dup1\n      0x3702a874\n      eq\n      tag_4\n      jumpi\n      dup1\n      0x51c94ed3\n      eq\n      tag_5\n      jumpi\n      dup1\n      0x70756af2\n      eq\n      tag_6\n      jumpi\n    tag_2:\n      0x00\n      dup1\n      revert\n        /* \"challenge one.sol\":1728:1841  function attribute() external pure override returns (string memory) {... */\n    tag_3:\n      tag_13\n      tag_14\n      jump\t// in\n    tag_13:\n      mload(0x40)\n      tag_15\n      swap2\n      swap1\n      tag_16\n      jump\t// in\n    tag_15:\n      mload(0x40)\n      dup1\n      swap2\n      sub\n      swap1\n      return\n        /* \"challenge one.sol\":342:449  bytes32 public constant EXPECTED_BYTES = 0xb68fe43f0d1a0d7aef123722670be50268e15365401c442f8806ef83b612976b */\n    tag_4:\n      tag_17\n      tag_18\n      jump\t// in\n    tag_17:\n      mload(0x40)\n      tag_19\n      swap2\n      swap1\n      tag_20\n      jump\t// in\n    tag_19:\n      mload(0x40)\n      dup1\n      swap2\n      sub\n      swap1\n      return\n        /* \"AFoundryCourseChallenge.sol\":1112:1256  function extraDescription(address /* user */ ) external view virtual returns (string memory) {... */\n    tag_5:\n      tag_21\n      0x04\n      dup1\n      calldatasize\n      sub\n      dup2\n      add\n      swap1\n      tag_22\n      swap2\n      swap1\n      tag_23\n      jump\t// in\n    tag_22:\n      tag_24\n      jump\t// in\n    tag_21:\n      mload(0x40)\n      tag_25\n      swap2\n      swap1\n      tag_16\n      jump\t// in\n    tag_25:\n      mload(0x40)\n      dup1\n      swap2\n      sub\n      swap1\n      return\n        /* \"challenge one.sol\":1849:1958  function specialImage() external pure override returns (string memory) {... */\n    tag_6:\n      tag_26\n      tag_27\n      jump\t// in\n    tag_26:\n      mload(0x40)\n      tag_28\n      swap2\n      swap1\n      tag_16\n      jump\t// in\n    tag_28:\n      mload(0x40)\n      dup1\n      swap2\n      sub\n      swap1\n      return\n        /* \"Ownable.sol\":1882:1985  function renounceOwnership() public virtual onlyOwner {... */\n    tag_7:\n      tag_29\n      tag_30\n      jump\t// in\n    tag_29:\n      stop\n        /* \"challenge one.sol\":1567:1720  function description() external pure override returns (string memory) {... */\n    tag_8:\n      tag_31\n      tag_32\n      jump\t// in\n    tag_31:\n      mload(0x40)\n      tag_33\n      swap2\n      swap1\n      tag_16\n      jump\t// in\n    tag_33:\n      mload(0x40)\n      dup1\n      swap2\n      sub\n      swap1\n      return\n        /* \"Ownable.sol\":1234:1321  function owner() public view virtual returns (address) {... */\n    tag_9:\n      tag_34\n      tag_35\n      jump\t// in\n    tag_34:\n      mload(0x40)\n      tag_36\n      swap2\n      swap1\n      tag_37\n      jump\t// in\n    tag_36:\n      mload(0x40)\n      dup1\n      swap2\n      sub\n      swap1\n      return\n        /* \"Ownable.sol\":2140:2341  function transferOwnership(address newOwner) public virtual onlyOwner {... */\n    tag_10:\n      tag_38\n      0x04\n      dup1\n      calldatasize\n      sub\n      dup2\n      add\n      swap1\n      tag_39\n      swap2\n      swap1\n      tag_23\n      jump\t// in\n    tag_39:\n      tag_40\n      jump\t// in\n    tag_38:\n      stop\n        /* \"challenge one.sol\":913:1217  function solveChallenge(string memory password, string memory yourTwitterHandle) external {... */\n    tag_11:\n      tag_41\n      0x04\n      dup1\n      calldatasize\n      sub\n      dup2\n      add\n      swap1\n      tag_42\n      swap2\n      swap1\n      tag_43\n      jump\t// in\n    tag_42:\n      tag_44\n      jump\t// in\n    tag_41:\n      stop\n        /* \"challenge one.sol\":1728:1841  function attribute() external pure override returns (string memory) {... */\n    tag_14:\n        /* \"challenge one.sol\":1781:1794  string memory */\n      0x60\n        /* \"challenge one.sol\":1807:1833  return \"One with the bots\" */\n      mload(0x40)\n      dup1\n      0x40\n      add\n      0x40\n      mstore\n      dup1\n      0x11\n      dup2\n      mstore\n      0x20\n      add\n      0x4f6e6520776974682074686520626f7473000000000000000000000000000000\n      dup2\n      mstore\n      pop\n      swap1\n      pop\n        /* \"challenge one.sol\":1728:1841  function attribute() external pure override returns (string memory) {... */\n      swap1\n      jump\t// out\n        /* \"challenge one.sol\":342:449  bytes32 public constant EXPECTED_BYTES = 0xb68fe43f0d1a0d7aef123722670be50268e15365401c442f8806ef83b612976b */\n    tag_18:\n        /* \"challenge one.sol\":383:449  0xb68fe43f0d1a0d7aef123722670be50268e15365401c442f8806ef83b612976b */\n      0xb68fe43f0d1a0d7aef123722670be50268e15365401c442f8806ef83b612976b\n        /* \"challenge one.sol\":342:449  bytes32 public constant EXPECTED_BYTES = 0xb68fe43f0d1a0d7aef123722670be50268e15365401c442f8806ef83b612976b */\n      0x00\n      shl\n      dup2\n      jump\t// out\n        /* \"AFoundryCourseChallenge.sol\":1112:1256  function extraDescription(address /* user */ ) external view virtual returns (string memory) {... */\n    tag_24:\n        /* \"AFoundryCourseChallenge.sol\":1190:1203  string memory */\n      0x60\n        /* \"AFoundryCourseChallenge.sol\":1223:1248  BLANK_SPECIAL_DESCRIPTION */\n      mload(0x40)\n      dup1\n      0x20\n      add\n      0x40\n      mstore\n      dup1\n      0x00\n      dup2\n      mstore\n      pop\n        /* \"AFoundryCourseChallenge.sol\":1216:1248  return BLANK_SPECIAL_DESCRIPTION */\n      swap1\n      pop\n        /* \"AFoundryCourseChallenge.sol\":1112:1256  function extraDescription(address /* user */ ) external view virtual returns (string memory) {... */\n      swap2\n      swap1\n      pop\n      jump\t// out\n        /* \"challenge one.sol\":1849:1958  function specialImage() external pure override returns (string memory) {... */\n    tag_27:\n        /* \"challenge one.sol\":1905:1918  string memory */\n      0x60\n        /* \"challenge one.sol\":1938:1950  LESSON_IMAGE */\n      mload(0x40)\n      dup1\n      0x60\n      add\n      0x40\n      mstore\n      dup1\n      0x35\n      dup2\n      mstore\n      0x20\n      add\n      data_de92b8a89dac12ea52ddec58c03704772ee6c86cd34460d30b76ff2e32e1792f\n      0x35\n      swap2\n      codecopy\n        /* \"challenge one.sol\":1931:1950  return LESSON_IMAGE */\n      swap1\n      pop\n        /* \"challenge one.sol\":1849:1958  function specialImage() external pure override returns (string memory) {... */\n      swap1\n      jump\t// out\n        /* \"Ownable.sol\":1882:1985  function renounceOwnership() public virtual onlyOwner {... */\n    tag_30:\n        /* \"Ownable.sol\":1120:1133  _checkOwner() */\n      tag_49\n        /* \"Ownable.sol\":1120:1131  _checkOwner */\n      tag_50\n        /* \"Ownable.sol\":1120:1133  _checkOwner() */\n      jump\t// in\n    tag_49:\n        /* \"Ownable.sol\":1947:1977  _transferOwnership(address(0)) */\n      tag_52\n        /* \"Ownable.sol\":1974:1975  0 */\n      0x00\n        /* \"Ownable.sol\":1947:1965  _transferOwnership */\n      tag_53\n        /* \"Ownable.sol\":1947:1977  _transferOwnership(address(0)) */\n      jump\t// in\n    tag_52:\n        /* \"Ownable.sol\":1882:1985  function renounceOwnership() public virtual onlyOwner {... */\n      jump\t// out\n        /* \"challenge one.sol\":1567:1720  function description() external pure override returns (string memory) {... */\n    tag_32:\n        /* \"challenge one.sol\":1622:1635  string memory */\n      0x60\n        /* \"challenge one.sol\":1648:1712  return \"Cyfrin Foundry Full Course: I'M PROOMMPPPTTIIINNNGGGGGG\" */\n      mload(0x40)\n      dup1\n      0x60\n      add\n      0x40\n      mstore\n      dup1\n      0x37\n      dup2\n      mstore\n      0x20\n      add\n      data_f3f0243c9f470de3688c78ea3917e06e3b0b8c640611af8b348d9c5afb37be79\n      0x37\n      swap2\n      codecopy\n      swap1\n      pop\n        /* \"challenge one.sol\":1567:1720  function description() external pure override returns (string memory) {... */\n      swap1\n      jump\t// out\n        /* \"Ownable.sol\":1234:1321  function owner() public view virtual returns (address) {... */\n    tag_35:\n        /* \"Ownable.sol\":1280:1287  address */\n      0x00\n        /* \"Ownable.sol\":1307:1313  _owner */\n      dup1\n      0x00\n      swap1\n      sload\n      swap1\n      0x0100\n      exp\n      swap1\n      div\n      0xffffffffffffffffffffffffffffffffffffffff\n      and\n        /* \"Ownable.sol\":1300:1313  return _owner */\n      swap1\n      pop\n        /* \"Ownable.sol\":1234:1321  function owner() public view virtual returns (address) {... */\n      swap1\n      jump\t// out\n        /* \"Ownable.sol\":2140:2341  function transferOwnership(address newOwner) public virtual onlyOwner {... */\n    tag_40:\n        /* \"Ownable.sol\":1120:1133  _checkOwner() */\n      tag_57\n        /* \"Ownable.sol\":1120:1131  _checkOwner */\n      tag_50\n        /* \"Ownable.sol\":1120:1133  _checkOwner() */\n      jump\t// in\n    tag_57:\n        /* \"Ownable.sol\":2249:2250  0 */\n      0x00\n        /* \"Ownable.sol\":2229:2251  newOwner != address(0) */\n      0xffffffffffffffffffffffffffffffffffffffff\n      and\n        /* \"Ownable.sol\":2229:2237  newOwner */\n      dup2\n        /* \"Ownable.sol\":2229:2251  newOwner != address(0) */\n      0xffffffffffffffffffffffffffffffffffffffff\n      and\n      sub\n        /* \"Ownable.sol\":2221:2294  require(newOwner != address(0), \"Ownable: new owner is the zero address\") */\n      tag_59\n      jumpi\n      mload(0x40)\n      0x08c379a000000000000000000000000000000000000000000000000000000000\n      dup2\n      mstore\n      0x04\n      add\n      tag_60\n      swap1\n      tag_61\n      jump\t// in\n    tag_60:\n      mload(0x40)\n      dup1\n      swap2\n      sub\n      swap1\n      revert\n    tag_59:\n        /* \"Ownable.sol\":2305:2333  _transferOwnership(newOwner) */\n      tag_62\n        /* \"Ownable.sol\":2324:2332  newOwner */\n      dup2\n        /* \"Ownable.sol\":2305:2323  _transferOwnership */\n      tag_53\n        /* \"Ownable.sol\":2305:2333  _transferOwnership(newOwner) */\n      jump\t// in\n    tag_62:\n        /* \"Ownable.sol\":2140:2341  function transferOwnership(address newOwner) public virtual onlyOwner {... */\n      pop\n      jump\t// out\n        /* \"challenge one.sol\":913:1217  function solveChallenge(string memory password, string memory yourTwitterHandle) external {... */\n    tag_44:\n        /* \"challenge one.sol\":383:449  0xb68fe43f0d1a0d7aef123722670be50268e15365401c442f8806ef83b612976b */\n      0xb68fe43f0d1a0d7aef123722670be50268e15365401c442f8806ef83b612976b\n        /* \"challenge one.sol\":1059:1073  EXPECTED_BYTES */\n      0x00\n      shl\n        /* \"challenge one.sol\":1045:1053  password */\n      dup3\n        /* \"challenge one.sol\":1028:1054  abi.encodePacked(password) */\n      add(0x20, mload(0x40))\n      tag_64\n      swap2\n      swap1\n      tag_65\n      jump\t// in\n    tag_64:\n      mload(0x40)\n      0x20\n      dup2\n      dup4\n      sub\n      sub\n      dup2\n      mstore\n      swap1\n      0x40\n      mstore\n        /* \"challenge one.sol\":1018:1055  keccak256(abi.encodePacked(password)) */\n      dup1\n      mload\n      swap1\n      0x20\n      add\n      keccak256\n        /* \"challenge one.sol\":1018:1073  keccak256(abi.encodePacked(password)) == EXPECTED_BYTES */\n      sub\n        /* \"challenge one.sol\":1014:1210  if (keccak256(abi.encodePacked(password)) == EXPECTED_BYTES) {... */\n      tag_66\n      jumpi\n        /* \"challenge one.sol\":1090:1131  _updateAndRewardSolver(yourTwitterHandle) */\n      tag_67\n        /* \"challenge one.sol\":1113:1130  yourTwitterHandle */\n      dup2\n        /* \"challenge one.sol\":1090:1112  _updateAndRewardSolver */\n      tag_68\n        /* \"challenge one.sol\":1090:1131  _updateAndRewardSolver(yourTwitterHandle) */\n      jump\t// in\n    tag_67:\n        /* \"challenge one.sol\":1014:1210  if (keccak256(abi.encodePacked(password)) == EXPECTED_BYTES) {... */\n      jump(tag_69)\n    tag_66:\n        /* \"challenge one.sol\":1171:1198  LessonFive__WrongPassword() */\n      mload(0x40)\n      0x739f607400000000000000000000000000000000000000000000000000000000\n      dup2\n      mstore\n      0x04\n      add\n      mload(0x40)\n      dup1\n      swap2\n      sub\n      swap1\n      revert\n        /* \"challenge one.sol\":1014:1210  if (keccak256(abi.encodePacked(password)) == EXPECTED_BYTES) {... */\n    tag_69:\n        /* \"challenge one.sol\":913:1217  function solveChallenge(string memory password, string memory yourTwitterHandle) external {... */\n      pop\n      pop\n      jump\t// out\n        /* \"Ownable.sol\":1399:1531  function _checkOwner() internal view virtual {... */\n    tag_50:\n        /* \"Ownable.sol\":1474:1486  _msgSender() */\n      tag_71\n        /* \"Ownable.sol\":1474:1484  _msgSender */\n      tag_72\n        /* \"Ownable.sol\":1474:1486  _msgSender() */\n      jump\t// in\n    tag_71:\n        /* \"Ownable.sol\":1463:1486  owner() == _msgSender() */\n      0xffffffffffffffffffffffffffffffffffffffff\n      and\n        /* \"Ownable.sol\":1463:1470  owner() */\n      tag_73\n        /* \"Ownable.sol\":1463:1468  owner */\n      tag_35\n        /* \"Ownable.sol\":1463:1470  owner() */\n      jump\t// in\n    tag_73:\n        /* \"Ownable.sol\":1463:1486  owner() == _msgSender() */\n      0xffffffffffffffffffffffffffffffffffffffff\n      and\n      eq\n        /* \"Ownable.sol\":1455:1523  require(owner() == _msgSender(), \"Ownable: caller is not the owner\") */\n      tag_74\n      jumpi\n      mload(0x40)\n      0x08c379a000000000000000000000000000000000000000000000000000000000\n      dup2\n      mstore\n      0x04\n      add\n      tag_75\n      swap1\n      tag_76\n      jump\t// in\n    tag_75:\n      mload(0x40)\n      dup1\n      swap2\n      sub\n      swap1\n      revert\n    tag_74:\n        /* \"Ownable.sol\":1399:1531  function _checkOwner() internal view virtual {... */\n      jump\t// out\n        /* \"Ownable.sol\":2501:2692  function _transferOwnership(address newOwner) internal virtual {... */\n    tag_53:\n        /* \"Ownable.sol\":2575:2591  address oldOwner */\n      0x00\n        /* \"Ownable.sol\":2594:2600  _owner */\n      dup1\n      0x00\n      swap1\n      sload\n      swap1\n      0x0100\n      exp\n      swap1\n      div\n      0xffffffffffffffffffffffffffffffffffffffff\n      and\n        /* \"Ownable.sol\":2575:2600  address oldOwner = _owner */\n      swap1\n      pop\n        /* \"Ownable.sol\":2620:2628  newOwner */\n      dup2\n        /* \"Ownable.sol\":2611:2617  _owner */\n      0x00\n      dup1\n        /* \"Ownable.sol\":2611:2628  _owner = newOwner */\n      0x0100\n      exp\n      dup2\n      sload\n      dup2\n      0xffffffffffffffffffffffffffffffffffffffff\n      mul\n      not\n      and\n      swap1\n      dup4\n      0xffffffffffffffffffffffffffffffffffffffff\n      and\n      mul\n      or\n      swap1\n      sstore\n      pop\n        /* \"Ownable.sol\":2675:2683  newOwner */\n      dup2\n        /* \"Ownable.sol\":2644:2684  OwnershipTransferred(oldOwner, newOwner) */\n      0xffffffffffffffffffffffffffffffffffffffff\n      and\n        /* \"Ownable.sol\":2665:2673  oldOwner */\n      dup2\n        /* \"Ownable.sol\":2644:2684  OwnershipTransferred(oldOwner, newOwner) */\n      0xffffffffffffffffffffffffffffffffffffffff\n      and\n      0x8be0079c531659141344cd1fd0a4f28419497f9722a3daafe3b4186f6b6457e0\n      mload(0x40)\n      mload(0x40)\n      dup1\n      swap2\n      sub\n      swap1\n      log3\n        /* \"Ownable.sol\":2564:2692  {... */\n      pop\n        /* \"Ownable.sol\":2501:2692  function _transferOwnership(address newOwner) internal virtual {... */\n      pop\n      jump\t// out\n        /* \"AFoundryCourseChallenge.sol\":927:1104  function _updateAndRewardSolver(string memory twitterHandleOfSolver) internal {... */\n    tag_68:\n        /* \"AFoundryCourseChallenge.sol\":1034:1052  i_foundryCourseNft */\n      immutable(\"0xd4d1a59767271eefdc7830a772b9732a11d503531d972ab8c981a6b1c0e666e5\")\n        /* \"AFoundryCourseChallenge.sol\":1016:1061  IFoundryCourseNft(i_foundryCourseNft).mintNft */\n      0xffffffffffffffffffffffffffffffffffffffff\n      and\n      0x11f87b19\n        /* \"AFoundryCourseChallenge.sol\":1062:1072  msg.sender */\n      caller\n        /* \"AFoundryCourseChallenge.sol\":1074:1095  twitterHandleOfSolver */\n      dup4\n        /* \"AFoundryCourseChallenge.sol\":1016:1096  IFoundryCourseNft(i_foundryCourseNft).mintNft(msg.sender, twitterHandleOfSolver) */\n      mload(0x40)\n      dup4\n      0xffffffff\n      and\n      0xe0\n      shl\n      dup2\n      mstore\n      0x04\n      add\n      tag_79\n      swap3\n      swap2\n      swap1\n      tag_80\n      jump\t// in\n    tag_79:\n      0x20\n      mload(0x40)\n      dup1\n      dup4\n      sub\n      dup2\n      0x00\n      dup8\n      gas\n      call\n      iszero\n      dup1\n      iszero\n      tag_82\n      jumpi\n      returndatasize\n      0x00\n      dup1\n      returndatacopy\n      revert(0x00, returndatasize)\n    tag_82:\n      pop\n      pop\n      pop\n      pop\n      mload(0x40)\n      returndatasize\n      not(0x1f)\n      0x1f\n      dup3\n      add\n      and\n      dup3\n      add\n      dup1\n      0x40\n      mstore\n      pop\n      dup2\n      add\n      swap1\n      tag_83\n      swap2\n      swap1\n      tag_84\n      jump\t// in\n    tag_83:\n      pop\n        /* \"AFoundryCourseChallenge.sol\":927:1104  function _updateAndRewardSolver(string memory twitterHandleOfSolver) internal {... */\n      pop\n      jump\t// out\n        /* \"Context.sol\":656:754  function _msgSender() internal view virtual returns (address) {... */\n    tag_72:\n        /* \"Context.sol\":709:716  address */\n      0x00\n        /* \"Context.sol\":736:746  msg.sender */\n      caller\n        /* \"Context.sol\":729:746  return msg.sender */\n      swap1\n      pop\n        /* \"Context.sol\":656:754  function _msgSender() internal view virtual returns (address) {... */\n      swap1\n      jump\t// out\n        /* \"#utility.yul\":7:106   */\n    tag_86:\n        /* \"#utility.yul\":59:65   */\n      0x00\n        /* \"#utility.yul\":93:98   */\n      dup2\n        /* \"#utility.yul\":87:99   */\n      mload\n        /* \"#utility.yul\":77:99   */\n      swap1\n      pop\n        /* \"#utility.yul\":7:106   */\n      swap2\n      swap1\n      pop\n      jump\t// out\n        /* \"#utility.yul\":112:281   */\n    tag_87:\n        /* \"#utility.yul\":196:207   */\n      0x00\n        /* \"#utility.yul\":230:236   */\n      dup3\n        /* \"#utility.yul\":225:228   */\n      dup3\n        /* \"#utility.yul\":218:237   */\n      mstore\n        /* \"#utility.yul\":270:274   */\n      0x20\n        /* \"#utility.yul\":265:268   */\n      dup3\n        /* \"#utility.yul\":261:275   */\n      add\n        /* \"#utility.yul\":246:275   */\n      swap1\n      pop\n        /* \"#utility.yul\":112:281   */\n      swap3\n      swap2\n      pop\n      pop\n      jump\t// out\n        /* \"#utility.yul\":287:426   */\n    tag_88:\n        /* \"#utility.yul\":376:382   */\n      dup3\n        /* \"#utility.yul\":371:374   */\n      dup2\n        /* \"#utility.yul\":366:369   */\n      dup4\n        /* \"#utility.yul\":360:383   */\n      mcopy\n        /* \"#utility.yul\":417:418   */\n      0x00\n        /* \"#utility.yul\":408:414   */\n      dup4\n        /* \"#utility.yul\":403:406   */\n      dup4\n        /* \"#utility.yul\":399:415   */\n      add\n        /* \"#utility.yul\":392:419   */\n      mstore\n        /* \"#utility.yul\":287:426   */\n      pop\n      pop\n      pop\n      jump\t// out\n        /* \"#utility.yul\":432:534   */\n    tag_89:\n        /* \"#utility.yul\":473:479   */\n      0x00\n        /* \"#utility.yul\":524:526   */\n      0x1f\n        /* \"#utility.yul\":520:527   */\n      not\n        /* \"#utility.yul\":515:517   */\n      0x1f\n        /* \"#utility.yul\":508:513   */\n      dup4\n        /* \"#utility.yul\":504:518   */\n      add\n        /* \"#utility.yul\":500:528   */\n      and\n        /* \"#utility.yul\":490:528   */\n      swap1\n      pop\n        /* \"#utility.yul\":432:534   */\n      swap2\n      swap1\n      pop\n      jump\t// out\n        /* \"#utility.yul\":540:917   */\n    tag_90:\n        /* \"#utility.yul\":628:631   */\n      0x00\n        /* \"#utility.yul\":656:695   */\n      tag_125\n        /* \"#utility.yul\":689:694   */\n      dup3\n        /* \"#utility.yul\":656:695   */\n      tag_86\n      jump\t// in\n    tag_125:\n        /* \"#utility.yul\":711:782   */\n      tag_126\n        /* \"#utility.yul\":775:781   */\n      dup2\n        /* \"#utility.yul\":770:773   */\n      dup6\n        /* \"#utility.yul\":711:782   */\n      tag_87\n      jump\t// in\n    tag_126:\n        /* \"#utility.yul\":704:782   */\n      swap4\n      pop\n        /* \"#utility.yul\":791:856   */\n      tag_127\n        /* \"#utility.yul\":849:855   */\n      dup2\n        /* \"#utility.yul\":844:847   */\n      dup6\n        /* \"#utility.yul\":837:841   */\n      0x20\n        /* \"#utility.yul\":830:835   */\n      dup7\n        /* \"#utility.yul\":826:842   */\n      add\n        /* \"#utility.yul\":791:856   */\n      tag_88\n      jump\t// in\n    tag_127:\n        /* \"#utility.yul\":881:910   */\n      tag_128\n        /* \"#utility.yul\":903:909   */\n      dup2\n        /* \"#utility.yul\":881:910   */\n      tag_89\n      jump\t// in\n    tag_128:\n        /* \"#utility.yul\":876:879   */\n      dup5\n        /* \"#utility.yul\":872:911   */\n      add\n        /* \"#utility.yul\":865:911   */\n      swap2\n      pop\n        /* \"#utility.yul\":632:917   */\n      pop\n        /* \"#utility.yul\":540:917   */\n      swap3\n      swap2\n      pop\n      pop\n      jump\t// out\n        /* \"#utility.yul\":923:1236   */\n    tag_16:\n        /* \"#utility.yul\":1036:1040   */\n      0x00\n        /* \"#utility.yul\":1074:1076   */\n      0x20\n        /* \"#utility.yul\":1063:1072   */\n      dup3\n        /* \"#utility.yul\":1059:1077   */\n      add\n        /* \"#utility.yul\":1051:1077   */\n      swap1\n      pop\n        /* \"#utility.yul\":1123:1132   */\n      dup2\n        /* \"#utility.yul\":1117:1121   */\n      dup2\n        /* \"#utility.yul\":1113:1133   */\n      sub\n        /* \"#utility.yul\":1109:1110   */\n      0x00\n        /* \"#utility.yul\":1098:1107   */\n      dup4\n        /* \"#utility.yul\":1094:1111   */\n      add\n        /* \"#utility.yul\":1087:1134   */\n      mstore\n        /* \"#utility.yul\":1151:1229   */\n      tag_130\n        /* \"#utility.yul\":1224:1228   */\n      dup2\n        /* \"#utility.yul\":1215:1221   */\n      dup5\n        /* \"#utility.yul\":1151:1229   */\n      tag_90\n      jump\t// in\n    tag_130:\n        /* \"#utility.yul\":1143:1229   */\n      swap1\n      pop\n        /* \"#utility.yul\":923:1236   */\n      swap3\n      swap2\n      pop\n      pop\n      jump\t// out\n        /* \"#utility.yul\":1242:1319   */\n    tag_91:\n        /* \"#utility.yul\":1279:1286   */\n      0x00\n        /* \"#utility.yul\":1308:1313   */\n      dup2\n        /* \"#utility.yul\":1297:1313   */\n      swap1\n      pop\n        /* \"#utility.yul\":1242:1319   */\n      swap2\n      swap1\n      pop\n      jump\t// out\n        /* \"#utility.yul\":1325:1443   */\n    tag_92:\n        /* \"#utility.yul\":1412:1436   */\n      tag_133\n        /* \"#utility.yul\":1430:1435   */\n      dup2\n        /* \"#utility.yul\":1412:1436   */\n      tag_91\n      jump\t// in\n    tag_133:\n        /* \"#utility.yul\":1407:1410   */\n      dup3\n        /* \"#utility.yul\":1400:1437   */\n      mstore\n        /* \"#utility.yul\":1325:1443   */\n      pop\n      pop\n      jump\t// out\n        /* \"#utility.yul\":1449:1671   */\n    tag_20:\n        /* \"#utility.yul\":1542:1546   */\n      0x00\n        /* \"#utility.yul\":1580:1582   */\n      0x20\n        /* \"#utility.yul\":1569:1578   */\n      dup3\n        /* \"#utility.yul\":1565:1583   */\n      add\n        /* \"#utility.yul\":1557:1583   */\n      swap1\n      pop\n        /* \"#utility.yul\":1593:1664   */\n      tag_135\n        /* \"#utility.yul\":1661:1662   */\n      0x00\n        /* \"#utility.yul\":1650:1659   */\n      dup4\n        /* \"#utility.yul\":1646:1663   */\n      add\n        /* \"#utility.yul\":1637:1643   */\n      dup5\n        /* \"#utility.yul\":1593:1664   */\n      tag_92\n      jump\t// in\n    tag_135:\n        /* \"#utility.yul\":1449:1671   */\n      swap3\n      swap2\n      pop\n      pop\n      jump\t// out\n        /* \"#utility.yul\":1677:1752   */\n    tag_93:\n        /* \"#utility.yul\":1710:1716   */\n      0x00\n        /* \"#utility.yul\":1743:1745   */\n      0x40\n        /* \"#utility.yul\":1737:1746   */\n      mload\n        /* \"#utility.yul\":1727:1746   */\n      swap1\n      pop\n        /* \"#utility.yul\":1677:1752   */\n      swap1\n      jump\t// out\n        /* \"#utility.yul\":1758:1875   */\n    tag_94:\n        /* \"#utility.yul\":1867:1868   */\n      0x00\n        /* \"#utility.yul\":1864:1865   */\n      dup1\n        /* \"#utility.yul\":1857:1869   */\n      revert\n        /* \"#utility.yul\":1881:1998   */\n    tag_95:\n        /* \"#utility.yul\":1990:1991   */\n      0x00\n        /* \"#utility.yul\":1987:1988   */\n      dup1\n        /* \"#utility.yul\":1980:1992   */\n      revert\n        /* \"#utility.yul\":2004:2130   */\n    tag_96:\n        /* \"#utility.yul\":2041:2048   */\n      0x00\n        /* \"#utility.yul\":2081:2123   */\n      0xffffffffffffffffffffffffffffffffffffffff\n        /* \"#utility.yul\":2074:2079   */\n      dup3\n        /* \"#utility.yul\":2070:2124   */\n      and\n        /* \"#utility.yul\":2059:2124   */\n      swap1\n      pop\n        /* \"#utility.yul\":2004:2130   */\n      swap2\n      swap1\n      pop\n      jump\t// out\n        /* \"#utility.yul\":2136:2232   */\n    tag_97:\n        /* \"#utility.yul\":2173:2180   */\n      0x00\n        /* \"#utility.yul\":2202:2226   */\n      tag_141\n        /* \"#utility.yul\":2220:2225   */\n      dup3\n        /* \"#utility.yul\":2202:2226   */\n      tag_96\n      jump\t// in\n    tag_141:\n        /* \"#utility.yul\":2191:2226   */\n      swap1\n      pop\n        /* \"#utility.yul\":2136:2232   */\n      swap2\n      swap1\n      pop\n      jump\t// out\n        /* \"#utility.yul\":2238:2360   */\n    tag_98:\n        /* \"#utility.yul\":2311:2335   */\n      tag_143\n        /* \"#utility.yul\":2329:2334   */\n      dup2\n        /* \"#utility.yul\":2311:2335   */\n      tag_97\n      jump\t// in\n    tag_143:\n        /* \"#utility.yul\":2304:2309   */\n      dup2\n        /* \"#utility.yul\":2301:2336   */\n      eq\n        /* \"#utility.yul\":2291:2354   */\n      tag_144\n      jumpi\n        /* \"#utility.yul\":2350:2351   */\n      0x00\n        /* \"#utility.yul\":2347:2348   */\n      dup1\n        /* \"#utility.yul\":2340:2352   */\n      revert\n        /* \"#utility.yul\":2291:2354   */\n    tag_144:\n        /* \"#utility.yul\":2238:2360   */\n      pop\n      jump\t// out\n        /* \"#utility.yul\":2366:2505   */\n    tag_99:\n        /* \"#utility.yul\":2412:2417   */\n      0x00\n        /* \"#utility.yul\":2450:2456   */\n      dup2\n        /* \"#utility.yul\":2437:2457   */\n      calldataload\n        /* \"#utility.yul\":2428:2457   */\n      swap1\n      pop\n        /* \"#utility.yul\":2466:2499   */\n      tag_146\n        /* \"#utility.yul\":2493:2498   */\n      dup2\n        /* \"#utility.yul\":2466:2499   */\n      tag_98\n      jump\t// in\n    tag_146:\n        /* \"#utility.yul\":2366:2505   */\n      swap3\n      swap2\n      pop\n      pop\n      jump\t// out\n        /* \"#utility.yul\":2511:2840   */\n    tag_23:\n        /* \"#utility.yul\":2570:2576   */\n      0x00\n        /* \"#utility.yul\":2619:2621   */\n      0x20\n        /* \"#utility.yul\":2607:2616   */\n      dup3\n        /* \"#utility.yul\":2598:2605   */\n      dup5\n        /* \"#utility.yul\":2594:2617   */\n      sub\n        /* \"#utility.yul\":2590:2622   */\n      slt\n        /* \"#utility.yul\":2587:2706   */\n      iszero\n      tag_148\n      jumpi\n        /* \"#utility.yul\":2625:2704   */\n      tag_149\n      tag_94\n      jump\t// in\n    tag_149:\n        /* \"#utility.yul\":2587:2706   */\n    tag_148:\n        /* \"#utility.yul\":2745:2746   */\n      0x00\n        /* \"#utility.yul\":2770:2823   */\n      tag_150\n        /* \"#utility.yul\":2815:2822   */\n      dup5\n        /* \"#utility.yul\":2806:2812   */\n      dup3\n        /* \"#utility.yul\":2795:2804   */\n      dup6\n        /* \"#utility.yul\":2791:2813   */\n      add\n        /* \"#utility.yul\":2770:2823   */\n      tag_99\n      jump\t// in\n    tag_150:\n        /* \"#utility.yul\":2760:2823   */\n      swap2\n      pop\n        /* \"#utility.yul\":2716:2833   */\n      pop\n        /* \"#utility.yul\":2511:2840   */\n      swap3\n      swap2\n      pop\n      pop\n      jump\t// out\n        /* \"#utility.yul\":2846:2964   */\n    tag_100:\n        /* \"#utility.yul\":2933:2957   */\n      tag_152\n        /* \"#utility.yul\":2951:2956   */\n      dup2\n        /* \"#utility.yul\":2933:2957   */\n      tag_97\n      jump\t// in\n    tag_152:\n        /* \"#utility.yul\":2928:2931   */\n      dup3\n        /* \"#utility.yul\":2921:2958   */\n      mstore\n        /* \"#utility.yul\":2846:2964   */\n      pop\n      pop\n      jump\t// out\n        /* \"#utility.yul\":2970:3192   */\n    tag_37:\n        /* \"#utility.yul\":3063:3067   */\n      0x00\n        /* \"#utility.yul\":3101:3103   */\n      0x20\n        /* \"#utility.yul\":3090:3099   */\n      dup3\n        /* \"#utility.yul\":3086:3104   */\n      add\n        /* \"#utility.yul\":3078:3104   */\n      swap1\n      pop\n        /* \"#utility.yul\":3114:3185   */\n      tag_154\n        /* \"#utility.yul\":3182:3183   */\n      0x00\n        /* \"#utility.yul\":3171:3180   */\n      dup4\n        /* \"#utility.yul\":3167:3184   */\n      add\n        /* \"#utility.yul\":3158:3164   */\n      dup5\n        /* \"#utility.yul\":3114:3185   */\n      tag_100\n      jump\t// in\n    tag_154:\n        /* \"#utility.yul\":2970:3192   */\n      swap3\n      swap2\n      pop\n      pop\n      jump\t// out\n        /* \"#utility.yul\":3198:3315   */\n    tag_101:\n        /* \"#utility.yul\":3307:3308   */\n      0x00\n        /* \"#utility.yul\":3304:3305   */\n      dup1\n        /* \"#utility.yul\":3297:3309   */\n      revert\n        /* \"#utility.yul\":3321:3438   */\n    tag_102:\n        /* \"#utility.yul\":3430:3431   */\n      0x00\n        /* \"#utility.yul\":3427:3428   */\n      dup1\n        /* \"#utility.yul\":3420:3432   */\n      revert\n        /* \"#utility.yul\":3444:3624   */\n    tag_103:\n        /* \"#utility.yul\":3492:3569   */\n      0x4e487b7100000000000000000000000000000000000000000000000000000000\n        /* \"#utility.yul\":3489:3490   */\n      0x00\n        /* \"#utility.yul\":3482:3570   */\n      mstore\n        /* \"#utility.yul\":3589:3593   */\n      0x41\n        /* \"#utility.yul\":3586:3587   */\n      0x04\n        /* \"#utility.yul\":3579:3594   */\n      mstore\n        /* \"#utility.yul\":3613:3617   */\n      0x24\n        /* \"#utility.yul\":3610:3611   */\n      0x00\n        /* \"#utility.yul\":3603:3618   */\n      revert\n        /* \"#utility.yul\":3630:3911   */\n    tag_104:\n        /* \"#utility.yul\":3713:3740   */\n      tag_159\n        /* \"#utility.yul\":3735:3739   */\n      dup3\n        /* \"#utility.yul\":3713:3740   */\n      tag_89\n      jump\t// in\n    tag_159:\n        /* \"#utility.yul\":3705:3711   */\n      dup2\n        /* \"#utility.yul\":3701:3741   */\n      add\n        /* \"#utility.yul\":3843:3849   */\n      dup2\n        /* \"#utility.yul\":3831:3841   */\n      dup2\n        /* \"#utility.yul\":3828:3850   */\n      lt\n        /* \"#utility.yul\":3807:3825   */\n      0xffffffffffffffff\n        /* \"#utility.yul\":3795:3805   */\n      dup3\n        /* \"#utility.yul\":3792:3826   */\n      gt\n        /* \"#utility.yul\":3789:3851   */\n      or\n        /* \"#utility.yul\":3786:3874   */\n      iszero\n      tag_160\n      jumpi\n        /* \"#utility.yul\":3854:3872   */\n      tag_161\n      tag_103\n      jump\t// in\n    tag_161:\n        /* \"#utility.yul\":3786:3874   */\n    tag_160:\n        /* \"#utility.yul\":3894:3904   */\n      dup1\n        /* \"#utility.yul\":3890:3892   */\n      0x40\n        /* \"#utility.yul\":3883:3905   */\n      mstore\n        /* \"#utility.yul\":3673:3911   */\n      pop\n        /* \"#utility.yul\":3630:3911   */\n      pop\n      pop\n      jump\t// out\n        /* \"#utility.yul\":3917:4046   */\n    tag_105:\n        /* \"#utility.yul\":3951:3957   */\n      0x00\n        /* \"#utility.yul\":3978:3998   */\n      tag_163\n      tag_93\n      jump\t// in\n    tag_163:\n        /* \"#utility.yul\":3968:3998   */\n      swap1\n      pop\n        /* \"#utility.yul\":4007:4040   */\n      tag_164\n        /* \"#utility.yul\":4035:4039   */\n      dup3\n        /* \"#utility.yul\":4027:4033   */\n      dup3\n        /* \"#utility.yul\":4007:4040   */\n      tag_104\n      jump\t// in\n    tag_164:\n        /* \"#utility.yul\":3917:4046   */\n      swap2\n      swap1\n      pop\n      jump\t// out\n        /* \"#utility.yul\":4052:4360   */\n    tag_106:\n        /* \"#utility.yul\":4114:4118   */\n      0x00\n        /* \"#utility.yul\":4204:4222   */\n      0xffffffffffffffff\n        /* \"#utility.yul\":4196:4202   */\n      dup3\n        /* \"#utility.yul\":4193:4223   */\n      gt\n        /* \"#utility.yul\":4190:4246   */\n      iszero\n      tag_166\n      jumpi\n        /* \"#utility.yul\":4226:4244   */\n      tag_167\n      tag_103\n      jump\t// in\n    tag_167:\n        /* \"#utility.yul\":4190:4246   */\n    tag_166:\n        /* \"#utility.yul\":4264:4293   */\n      tag_168\n        /* \"#utility.yul\":4286:4292   */\n      dup3\n        /* \"#utility.yul\":4264:4293   */\n      tag_89\n      jump\t// in\n    tag_168:\n        /* \"#utility.yul\":4256:4293   */\n      swap1\n      pop\n        /* \"#utility.yul\":4348:4352   */\n      0x20\n        /* \"#utility.yul\":4342:4346   */\n      dup2\n        /* \"#utility.yul\":4338:4353   */\n      add\n        /* \"#utility.yul\":4330:4353   */\n      swap1\n      pop\n        /* \"#utility.yul\":4052:4360   */\n      swap2\n      swap1\n      pop\n      jump\t// out\n        /* \"#utility.yul\":4366:4514   */\n    tag_107:\n        /* \"#utility.yul\":4464:4470   */\n      dup3\n        /* \"#utility.yul\":4459:4462   */\n      dup2\n        /* \"#utility.yul\":4454:4457   */\n      dup4\n        /* \"#utility.yul\":4441:4471   */\n      calldatacopy\n        /* \"#utility.yul\":4505:4506   */\n      0x00\n        /* \"#utility.yul\":4496:4502   */\n      dup4\n        /* \"#utility.yul\":4491:4494   */\n      dup4\n        /* \"#utility.yul\":4487:4503   */\n      add\n        /* \"#utility.yul\":4480:4507   */\n      mstore\n        /* \"#utility.yul\":4366:4514   */\n      pop\n      pop\n      pop\n      jump\t// out\n        /* \"#utility.yul\":4520:4945   */\n    tag_108:\n        /* \"#utility.yul\":4598:4603   */\n      0x00\n        /* \"#utility.yul\":4623:4689   */\n      tag_171\n        /* \"#utility.yul\":4639:4688   */\n      tag_172\n        /* \"#utility.yul\":4681:4687   */\n      dup5\n        /* \"#utility.yul\":4639:4688   */\n      tag_106\n      jump\t// in\n    tag_172:\n        /* \"#utility.yul\":4623:4689   */\n      tag_105\n      jump\t// in\n    tag_171:\n        /* \"#utility.yul\":4614:4689   */\n      swap1\n      pop\n        /* \"#utility.yul\":4712:4718   */\n      dup3\n        /* \"#utility.yul\":4705:4710   */\n      dup2\n        /* \"#utility.yul\":4698:4719   */\n      mstore\n        /* \"#utility.yul\":4750:4754   */\n      0x20\n        /* \"#utility.yul\":4743:4748   */\n      dup2\n        /* \"#utility.yul\":4739:4755   */\n      add\n        /* \"#utility.yul\":4788:4791   */\n      dup5\n        /* \"#utility.yul\":4779:4785   */\n      dup5\n        /* \"#utility.yul\":4774:4777   */\n      dup5\n        /* \"#utility.yul\":4770:4786   */\n      add\n        /* \"#utility.yul\":4767:4792   */\n      gt\n        /* \"#utility.yul\":4764:4876   */\n      iszero\n      tag_173\n      jumpi\n        /* \"#utility.yul\":4795:4874   */\n      tag_174\n      tag_102\n      jump\t// in\n    tag_174:\n        /* \"#utility.yul\":4764:4876   */\n    tag_173:\n        /* \"#utility.yul\":4885:4939   */\n      tag_175\n        /* \"#utility.yul\":4932:4938   */\n      dup5\n        /* \"#utility.yul\":4927:4930   */\n      dup3\n        /* \"#utility.yul\":4922:4925   */\n      dup6\n        /* \"#utility.yul\":4885:4939   */\n      tag_107\n      jump\t// in\n    tag_175:\n        /* \"#utility.yul\":4604:4945   */\n      pop\n        /* \"#utility.yul\":4520:4945   */\n      swap4\n      swap3\n      pop\n      pop\n      pop\n      jump\t// out\n        /* \"#utility.yul\":4965:5305   */\n    tag_109:\n        /* \"#utility.yul\":5021:5026   */\n      0x00\n        /* \"#utility.yul\":5070:5073   */\n      dup3\n        /* \"#utility.yul\":5063:5067   */\n      0x1f\n        /* \"#utility.yul\":5055:5061   */\n      dup4\n        /* \"#utility.yul\":5051:5068   */\n      add\n        /* \"#utility.yul\":5047:5074   */\n      slt\n        /* \"#utility.yul\":5037:5159   */\n      tag_177\n      jumpi\n        /* \"#utility.yul\":5078:5157   */\n      tag_178\n      tag_101\n      jump\t// in\n    tag_178:\n        /* \"#utility.yul\":5037:5159   */\n    tag_177:\n        /* \"#utility.yul\":5195:5201   */\n      dup2\n        /* \"#utility.yul\":5182:5202   */\n      calldataload\n        /* \"#utility.yul\":5220:5299   */\n      tag_179\n        /* \"#utility.yul\":5295:5298   */\n      dup5\n        /* \"#utility.yul\":5287:5293   */\n      dup3\n        /* \"#utility.yul\":5280:5284   */\n      0x20\n        /* \"#utility.yul\":5272:5278   */\n      dup7\n        /* \"#utility.yul\":5268:5285   */\n      add\n        /* \"#utility.yul\":5220:5299   */\n      tag_108\n      jump\t// in\n    tag_179:\n        /* \"#utility.yul\":5211:5299   */\n      swap2\n      pop\n        /* \"#utility.yul\":5027:5305   */\n      pop\n        /* \"#utility.yul\":4965:5305   */\n      swap3\n      swap2\n      pop\n      pop\n      jump\t// out\n        /* \"#utility.yul\":5311:6145   */\n    tag_43:\n        /* \"#utility.yul\":5399:5405   */\n      0x00\n        /* \"#utility.yul\":5407:5413   */\n      dup1\n        /* \"#utility.yul\":5456:5458   */\n      0x40\n        /* \"#utility.yul\":5444:5453   */\n      dup4\n        /* \"#utility.yul\":5435:5442   */\n      dup6\n        /* \"#utility.yul\":5431:5454   */\n      sub\n        /* \"#utility.yul\":5427:5459   */\n      slt\n        /* \"#utility.yul\":5424:5543   */\n      iszero\n      tag_181\n      jumpi\n        /* \"#utility.yul\":5462:5541   */\n      tag_182\n      tag_94\n      jump\t// in\n    tag_182:\n        /* \"#utility.yul\":5424:5543   */\n    tag_181:\n        /* \"#utility.yul\":5610:5611   */\n      0x00\n        /* \"#utility.yul\":5599:5608   */\n      dup4\n        /* \"#utility.yul\":5595:5612   */\n      add\n        /* \"#utility.yul\":5582:5613   */\n      calldataload\n        /* \"#utility.yul\":5640:5658   */\n      0xffffffffffffffff\n        /* \"#utility.yul\":5632:5638   */\n      dup2\n        /* \"#utility.yul\":5629:5659   */\n      gt\n        /* \"#utility.yul\":5626:5743   */\n      iszero\n      tag_183\n      jumpi\n        /* \"#utility.yul\":5662:5741   */\n      tag_184\n      tag_95\n      jump\t// in\n    tag_184:\n        /* \"#utility.yul\":5626:5743   */\n    tag_183:\n        /* \"#utility.yul\":5767:5830   */\n      tag_185\n        /* \"#utility.yul\":5822:5829   */\n      dup6\n        /* \"#utility.yul\":5813:5819   */\n      dup3\n        /* \"#utility.yul\":5802:5811   */\n      dup7\n        /* \"#utility.yul\":5798:5820   */\n      add\n        /* \"#utility.yul\":5767:5830   */\n      tag_109\n      jump\t// in\n    tag_185:\n        /* \"#utility.yul\":5757:5830   */\n      swap3\n      pop\n        /* \"#utility.yul\":5553:5840   */\n      pop\n        /* \"#utility.yul\":5907:5909   */\n      0x20\n        /* \"#utility.yul\":5896:5905   */\n      dup4\n        /* \"#utility.yul\":5892:5910   */\n      add\n        /* \"#utility.yul\":5879:5911   */\n      calldataload\n        /* \"#utility.yul\":5938:5956   */\n      0xffffffffffffffff\n        /* \"#utility.yul\":5930:5936   */\n      dup2\n        /* \"#utility.yul\":5927:5957   */\n      gt\n        /* \"#utility.yul\":5924:6041   */\n      iszero\n      tag_186\n      jumpi\n        /* \"#utility.yul\":5960:6039   */\n      tag_187\n      tag_95\n      jump\t// in\n    tag_187:\n        /* \"#utility.yul\":5924:6041   */\n    tag_186:\n        /* \"#utility.yul\":6065:6128   */\n      tag_188\n        /* \"#utility.yul\":6120:6127   */\n      dup6\n        /* \"#utility.yul\":6111:6117   */\n      dup3\n        /* \"#utility.yul\":6100:6109   */\n      dup7\n        /* \"#utility.yul\":6096:6118   */\n      add\n        /* \"#utility.yul\":6065:6128   */\n      tag_109\n      jump\t// in\n    tag_188:\n        /* \"#utility.yul\":6055:6128   */\n      swap2\n      pop\n        /* \"#utility.yul\":5850:6138   */\n      pop\n        /* \"#utility.yul\":5311:6145   */\n      swap3\n      pop\n      swap3\n      swap1\n      pop\n      jump\t// out\n        /* \"#utility.yul\":6151:6376   */\n    tag_110:\n        /* \"#utility.yul\":6291:6325   */\n      0x4f776e61626c653a206e6577206f776e657220697320746865207a65726f2061\n        /* \"#utility.yul\":6287:6288   */\n      0x00\n        /* \"#utility.yul\":6279:6285   */\n      dup3\n        /* \"#utility.yul\":6275:6289   */\n      add\n        /* \"#utility.yul\":6268:6326   */\n      mstore\n        /* \"#utility.yul\":6360:6368   */\n      0x6464726573730000000000000000000000000000000000000000000000000000\n        /* \"#utility.yul\":6355:6357   */\n      0x20\n        /* \"#utility.yul\":6347:6353   */\n      dup3\n        /* \"#utility.yul\":6343:6358   */\n      add\n        /* \"#utility.yul\":6336:6369   */\n      mstore\n        /* \"#utility.yul\":6151:6376   */\n      pop\n      jump\t// out\n        /* \"#utility.yul\":6382:6748   */\n    tag_111:\n        /* \"#utility.yul\":6524:6527   */\n      0x00\n        /* \"#utility.yul\":6545:6612   */\n      tag_191\n        /* \"#utility.yul\":6609:6611   */\n      0x26\n        /* \"#utility.yul\":6604:6607   */\n      dup4\n        /* \"#utility.yul\":6545:6612   */\n      tag_87\n      jump\t// in\n    tag_191:\n        /* \"#utility.yul\":6538:6612   */\n      swap2\n      pop\n        /* \"#utility.yul\":6621:6714   */\n      tag_192\n        /* \"#utility.yul\":6710:6713   */\n      dup3\n        /* \"#utility.yul\":6621:6714   */\n      tag_110\n      jump\t// in\n    tag_192:\n        /* \"#utility.yul\":6739:6741   */\n      0x40\n        /* \"#utility.yul\":6734:6737   */\n      dup3\n        /* \"#utility.yul\":6730:6742   */\n      add\n        /* \"#utility.yul\":6723:6742   */\n      swap1\n      pop\n        /* \"#utility.yul\":6382:6748   */\n      swap2\n      swap1\n      pop\n      jump\t// out\n        /* \"#utility.yul\":6754:7173   */\n    tag_61:\n        /* \"#utility.yul\":6920:6924   */\n      0x00\n        /* \"#utility.yul\":6958:6960   */\n      0x20\n        /* \"#utility.yul\":6947:6956   */\n      dup3\n        /* \"#utility.yul\":6943:6961   */\n      add\n        /* \"#utility.yul\":6935:6961   */\n      swap1\n      pop\n        /* \"#utility.yul\":7007:7016   */\n      dup2\n        /* \"#utility.yul\":7001:7005   */\n      dup2\n        /* \"#utility.yul\":6997:7017   */\n      sub\n        /* \"#utility.yul\":6993:6994   */\n      0x00\n        /* \"#utility.yul\":6982:6991   */\n      dup4\n        /* \"#utility.yul\":6978:6995   */\n      add\n        /* \"#utility.yul\":6971:7018   */\n      mstore\n        /* \"#utility.yul\":7035:7166   */\n      tag_194\n        /* \"#utility.yul\":7161:7165   */\n      dup2\n        /* \"#utility.yul\":7035:7166   */\n      tag_111\n      jump\t// in\n    tag_194:\n        /* \"#utility.yul\":7027:7166   */\n      swap1\n      pop\n        /* \"#utility.yul\":6754:7173   */\n      swap2\n      swap1\n      pop\n      jump\t// out\n        /* \"#utility.yul\":7179:7327   */\n    tag_112:\n        /* \"#utility.yul\":7281:7292   */\n      0x00\n        /* \"#utility.yul\":7318:7321   */\n      dup2\n        /* \"#utility.yul\":7303:7321   */\n      swap1\n      pop\n        /* \"#utility.yul\":7179:7327   */\n      swap3\n      swap2\n      pop\n      pop\n      jump\t// out\n        /* \"#utility.yul\":7333:7723   */\n    tag_113:\n        /* \"#utility.yul\":7439:7442   */\n      0x00\n        /* \"#utility.yul\":7467:7506   */\n      tag_197\n        /* \"#utility.yul\":7500:7505   */\n      dup3\n        /* \"#utility.yul\":7467:7506   */\n      tag_86\n      jump\t// in\n    tag_197:\n        /* \"#utility.yul\":7522:7611   */\n      tag_198\n        /* \"#utility.yul\":7604:7610   */\n      dup2\n        /* \"#utility.yul\":7599:7602   */\n      dup6\n        /* \"#utility.yul\":7522:7611   */\n      tag_112\n      jump\t// in\n    tag_198:\n        /* \"#utility.yul\":7515:7611   */\n      swap4\n      pop\n        /* \"#utility.yul\":7620:7685   */\n      tag_199\n        /* \"#utility.yul\":7678:7684   */\n      dup2\n        /* \"#utility.yul\":7673:7676   */\n      dup6\n        /* \"#utility.yul\":7666:7670   */\n      0x20\n        /* \"#utility.yul\":7659:7664   */\n      dup7\n        /* \"#utility.yul\":7655:7671   */\n      add\n        /* \"#utility.yul\":7620:7685   */\n      tag_88\n      jump\t// in\n    tag_199:\n        /* \"#utility.yul\":7710:7716   */\n      dup1\n        /* \"#utility.yul\":7705:7708   */\n      dup5\n        /* \"#utility.yul\":7701:7717   */\n      add\n        /* \"#utility.yul\":7694:7717   */\n      swap2\n      pop\n        /* \"#utility.yul\":7443:7723   */\n      pop\n        /* \"#utility.yul\":7333:7723   */\n      swap3\n      swap2\n      pop\n      pop\n      jump\t// out\n        /* \"#utility.yul\":7729:8004   */\n    tag_65:\n        /* \"#utility.yul\":7861:7864   */\n      0x00\n        /* \"#utility.yul\":7883:7978   */\n      tag_201\n        /* \"#utility.yul\":7974:7977   */\n      dup3\n        /* \"#utility.yul\":7965:7971   */\n      dup5\n        /* \"#utility.yul\":7883:7978   */\n      tag_113\n      jump\t// in\n    tag_201:\n        /* \"#utility.yul\":7876:7978   */\n      swap2\n      pop\n        /* \"#utility.yul\":7995:7998   */\n      dup2\n        /* \"#utility.yul\":7988:7998   */\n      swap1\n      pop\n        /* \"#utility.yul\":7729:8004   */\n      swap3\n      swap2\n      pop\n      pop\n      jump\t// out\n        /* \"#utility.yul\":8010:8192   */\n    tag_114:\n        /* \"#utility.yul\":8150:8184   */\n      0x4f776e61626c653a2063616c6c6572206973206e6f7420746865206f776e6572\n        /* \"#utility.yul\":8146:8147   */\n      0x00\n        /* \"#utility.yul\":8138:8144   */\n      dup3\n        /* \"#utility.yul\":8134:8148   */\n      add\n        /* \"#utility.yul\":8127:8185   */\n      mstore\n        /* \"#utility.yul\":8010:8192   */\n      pop\n      jump\t// out\n        /* \"#utility.yul\":8198:8564   */\n    tag_115:\n        /* \"#utility.yul\":8340:8343   */\n      0x00\n        /* \"#utility.yul\":8361:8428   */\n      tag_204\n        /* \"#utility.yul\":8425:8427   */\n      0x20\n        /* \"#utility.yul\":8420:8423   */\n      dup4\n        /* \"#utility.yul\":8361:8428   */\n      tag_87\n      jump\t// in\n    tag_204:\n        /* \"#utility.yul\":8354:8428   */\n      swap2\n      pop\n        /* \"#utility.yul\":8437:8530   */\n      tag_205\n        /* \"#utility.yul\":8526:8529   */\n      dup3\n        /* \"#utility.yul\":8437:8530   */\n      tag_114\n      jump\t// in\n    tag_205:\n        /* \"#utility.yul\":8555:8557   */\n      0x20\n        /* \"#utility.yul\":8550:8553   */\n      dup3\n        /* \"#utility.yul\":8546:8558   */\n      add\n        /* \"#utility.yul\":8539:8558   */\n      swap1\n      pop\n        /* \"#utility.yul\":8198:8564   */\n      swap2\n      swap1\n      pop\n      jump\t// out\n        /* \"#utility.yul\":8570:8989   */\n    tag_76:\n        /* \"#utility.yul\":8736:8740   */\n      0x00\n        /* \"#utility.yul\":8774:8776   */\n      0x20\n        /* \"#utility.yul\":8763:8772   */\n      dup3\n        /* \"#utility.yul\":8759:8777   */\n      add\n        /* \"#utility.yul\":8751:8777   */\n      swap1\n      pop\n        /* \"#utility.yul\":8823:8832   */\n      dup2\n        /* \"#utility.yul\":8817:8821   */\n      dup2\n        /* \"#utility.yul\":8813:8833   */\n      sub\n        /* \"#utility.yul\":8809:8810   */\n      0x00\n        /* \"#utility.yul\":8798:8807   */\n      dup4\n        /* \"#utility.yul\":8794:8811   */\n      add\n        /* \"#utility.yul\":8787:8834   */\n      mstore\n        /* \"#utility.yul\":8851:8982   */\n      tag_207\n        /* \"#utility.yul\":8977:8981   */\n      dup2\n        /* \"#utility.yul\":8851:8982   */\n      tag_115\n      jump\t// in\n    tag_207:\n        /* \"#utility.yul\":8843:8982   */\n      swap1\n      pop\n        /* \"#utility.yul\":8570:8989   */\n      swap2\n      swap1\n      pop\n      jump\t// out\n        /* \"#utility.yul\":8995:9418   */\n    tag_80:\n        /* \"#utility.yul\":9136:9140   */\n      0x00\n        /* \"#utility.yul\":9174:9176   */\n      0x40\n        /* \"#utility.yul\":9163:9172   */\n      dup3\n        /* \"#utility.yul\":9159:9177   */\n      add\n        /* \"#utility.yul\":9151:9177   */\n      swap1\n      pop\n        /* \"#utility.yul\":9187:9258   */\n      tag_209\n        /* \"#utility.yul\":9255:9256   */\n      0x00\n        /* \"#utility.yul\":9244:9253   */\n      dup4\n        /* \"#utility.yul\":9240:9257   */\n      add\n        /* \"#utility.yul\":9231:9237   */\n      dup6\n        /* \"#utility.yul\":9187:9258   */\n      tag_100\n      jump\t// in\n    tag_209:\n        /* \"#utility.yul\":9305:9314   */\n      dup2\n        /* \"#utility.yul\":9299:9303   */\n      dup2\n        /* \"#utility.yul\":9295:9315   */\n      sub\n        /* \"#utility.yul\":9290:9292   */\n      0x20\n        /* \"#utility.yul\":9279:9288   */\n      dup4\n        /* \"#utility.yul\":9275:9293   */\n      add\n        /* \"#utility.yul\":9268:9316   */\n      mstore\n        /* \"#utility.yul\":9333:9411   */\n      tag_210\n        /* \"#utility.yul\":9406:9410   */\n      dup2\n        /* \"#utility.yul\":9397:9403   */\n      dup5\n        /* \"#utility.yul\":9333:9411   */\n      tag_90\n      jump\t// in\n    tag_210:\n        /* \"#utility.yul\":9325:9411   */\n      swap1\n      pop\n        /* \"#utility.yul\":8995:9418   */\n      swap4\n      swap3\n      pop\n      pop\n      pop\n      jump\t// out\n        /* \"#utility.yul\":9424:9501   */\n    tag_116:\n        /* \"#utility.yul\":9461:9468   */\n      0x00\n        /* \"#utility.yul\":9490:9495   */\n      dup2\n        /* \"#utility.yul\":9479:9495   */\n      swap1\n      pop\n        /* \"#utility.yul\":9424:9501   */\n      swap2\n      swap1\n      pop\n      jump\t// out\n        /* \"#utility.yul\":9507:9629   */\n    tag_117:\n        /* \"#utility.yul\":9580:9604   */\n      tag_213\n        /* \"#utility.yul\":9598:9603   */\n      dup2\n        /* \"#utility.yul\":9580:9604   */\n      tag_116\n      jump\t// in\n    tag_213:\n        /* \"#utility.yul\":9573:9578   */\n      dup2\n        /* \"#utility.yul\":9570:9605   */\n      eq\n        /* \"#utility.yul\":9560:9623   */\n      tag_214\n      jumpi\n        /* \"#utility.yul\":9619:9620   */\n      0x00\n        /* \"#utility.yul\":9616:9617   */\n      dup1\n        /* \"#utility.yul\":9609:9621   */\n      revert\n        /* \"#utility.yul\":9560:9623   */\n    tag_214:\n        /* \"#utility.yul\":9507:9629   */\n      pop\n      jump\t// out\n        /* \"#utility.yul\":9635:9778   */\n    tag_118:\n        /* \"#utility.yul\":9692:9697   */\n      0x00\n        /* \"#utility.yul\":9723:9729   */\n      dup2\n        /* \"#utility.yul\":9717:9730   */\n      mload\n        /* \"#utility.yul\":9708:9730   */\n      swap1\n      pop\n        /* \"#utility.yul\":9739:9772   */\n      tag_216\n        /* \"#utility.yul\":9766:9771   */\n      dup2\n        /* \"#utility.yul\":9739:9772   */\n      tag_117\n      jump\t// in\n    tag_216:\n        /* \"#utility.yul\":9635:9778   */\n      swap3\n      swap2\n      pop\n      pop\n      jump\t// out\n        /* \"#utility.yul\":9784:10135   */\n    tag_84:\n        /* \"#utility.yul\":9854:9860   */\n      0x00\n        /* \"#utility.yul\":9903:9905   */\n      0x20\n        /* \"#utility.yul\":9891:9900   */\n      dup3\n        /* \"#utility.yul\":9882:9889   */\n      dup5\n        /* \"#utility.yul\":9878:9901   */\n      sub\n        /* \"#utility.yul\":9874:9906   */\n      slt\n        /* \"#utility.yul\":9871:9990   */\n      iszero\n      tag_218\n      jumpi\n        /* \"#utility.yul\":9909:9988   */\n      tag_219\n      tag_94\n      jump\t// in\n    tag_219:\n        /* \"#utility.yul\":9871:9990   */\n    tag_218:\n        /* \"#utility.yul\":10029:10030   */\n      0x00\n        /* \"#utility.yul\":10054:10118   */\n      tag_220\n        /* \"#utility.yul\":10110:10117   */\n      dup5\n        /* \"#utility.yul\":10101:10107   */\n      dup3\n        /* \"#utility.yul\":10090:10099   */\n      dup6\n        /* \"#utility.yul\":10086:10108   */\n      add\n        /* \"#utility.yul\":10054:10118   */\n      tag_118\n      jump\t// in\n    tag_220:\n        /* \"#utility.yul\":10044:10118   */\n      swap2\n      pop\n        /* \"#utility.yul\":10000:10128   */\n      pop\n        /* \"#utility.yul\":9784:10135   */\n      swap3\n      swap2\n      pop\n      pop\n      jump\t// out\n    stop\n    data_de92b8a89dac12ea52ddec58c03704772ee6c86cd34460d30b76ff2e32e1792f 697066733a2f2f516d61727a465273326337707254376757464632427063513674755a6a793754635637417a734e5475786f567938\n    data_f3f0243c9f470de3688c78ea3917e06e3b0b8c640611af8b348d9c5afb37be79 43796672696e20466f756e6472792046756c6c20436f757273653a2049274d2050524f4f4d4d50505054544949494e4e4e474747474747\n\n    auxdata: 0xa264697066735822122095971ea00f0cdd67798609eafacbffb5fb7c7378131da97fe490ccc87cedecec64736f6c634300081a0033\n}\n",
				"bytecode": {
					"linkReferences": {},
					"object": "60a060405234801561000f575f80fd5b50604051610d78380380610d7883398181016040528101906100319190610214565b8061004e6100436100ee60201b60201c565b6100f560201b60201c565b5f73ffffffffffffffffffffffffffffffffffffffff168173ffffffffffffffffffffffffffffffffffffffff16036100b3576040517f449c81fb00000000000000000000000000000000000000000000000000000000815260040160405180910390fd5b8073ffffffffffffffffffffffffffffffffffffffff1660808173ffffffffffffffffffffffffffffffffffffffff1681525050505061023f565b5f33905090565b5f805f9054906101000a900473ffffffffffffffffffffffffffffffffffffffff169050815f806101000a81548173ffffffffffffffffffffffffffffffffffffffff021916908373ffffffffffffffffffffffffffffffffffffffff1602179055508173ffffffffffffffffffffffffffffffffffffffff168173ffffffffffffffffffffffffffffffffffffffff167f8be0079c531659141344cd1fd0a4f28419497f9722a3daafe3b4186f6b6457e060405160405180910390a35050565b5f80fd5b5f73ffffffffffffffffffffffffffffffffffffffff82169050919050565b5f6101e3826101ba565b9050919050565b6101f3816101d9565b81146101fd575f80fd5b50565b5f8151905061020e816101ea565b92915050565b5f60208284031215610229576102286101b6565b5b5f61023684828501610200565b91505092915050565b608051610b216102575f395f6104e80152610b215ff3fe608060405234801561000f575f80fd5b5060043610610091575f3560e01c8063715018a611610064578063715018a61461011f5780637284e416146101295780638da5cb5b14610147578063f2fde38b14610165578063fa4554351461018157610091565b806314b42c77146100955780633702a874146100b357806351c94ed3146100d157806370756af214610101575b5f80fd5b61009d61019d565b6040516100aa91906105fc565b60405180910390f35b6100bb6101da565b6040516100c89190610634565b60405180910390f35b6100eb60048036038101906100e691906106b8565b610200565b6040516100f891906105fc565b60405180910390f35b610109610218565b60405161011691906105fc565b60405180910390f35b610127610238565b005b61013161024b565b60405161013e91906105fc565b60405180910390f35b61014f61026b565b60405161015c91906106f2565b60405180910390f35b61017f600480360381019061017a91906106b8565b610292565b005b61019b60048036038101906101969190610837565b610314565b005b60606040518060400160405280601181526020017f4f6e6520776974682074686520626f7473000000000000000000000000000000815250905090565b7fb68fe43f0d1a0d7aef123722670be50268e15365401c442f8806ef83b612976b5f1b81565b606060405180602001604052805f8152509050919050565b6060604051806060016040528060358152602001610a8060359139905090565b6102406103a7565b6102495f610425565b565b6060604051806060016040528060378152602001610ab560379139905090565b5f805f9054906101000a900473ffffffffffffffffffffffffffffffffffffffff16905090565b61029a6103a7565b5f73ffffffffffffffffffffffffffffffffffffffff168173ffffffffffffffffffffffffffffffffffffffff1603610308576040517f08c379a00000000000000000000000000000000000000000000000000000000081526004016102ff9061091d565b60405180910390fd5b61031181610425565b50565b7fb68fe43f0d1a0d7aef123722670be50268e15365401c442f8806ef83b612976b5f1b826040516020016103489190610975565b60405160208183030381529060405280519060200120036103715761036c816104e6565b6103a3565b6040517f739f607400000000000000000000000000000000000000000000000000000000815260040160405180910390fd5b5050565b6103af610585565b73ffffffffffffffffffffffffffffffffffffffff166103cd61026b565b73ffffffffffffffffffffffffffffffffffffffff1614610423576040517f08c379a000000000000000000000000000000000000000000000000000000000815260040161041a906109d5565b60405180910390fd5b565b5f805f9054906101000a900473ffffffffffffffffffffffffffffffffffffffff169050815f806101000a81548173ffffffffffffffffffffffffffffffffffffffff021916908373ffffffffffffffffffffffffffffffffffffffff1602179055508173ffffffffffffffffffffffffffffffffffffffff168173ffffffffffffffffffffffffffffffffffffffff167f8be0079c531659141344cd1fd0a4f28419497f9722a3daafe3b4186f6b6457e060405160405180910390a35050565b7f000000000000000000000000000000000000000000000000000000000000000073ffffffffffffffffffffffffffffffffffffffff166311f87b1933836040518363ffffffff1660e01b81526004016105419291906109f3565b6020604051808303815f875af115801561055d573d5f803e3d5ffd5b505050506040513d601f19601f820116820180604052508101906105819190610a54565b5050565b5f33905090565b5f81519050919050565b5f82825260208201905092915050565b8281835e5f83830152505050565b5f601f19601f8301169050919050565b5f6105ce8261058c565b6105d88185610596565b93506105e88185602086016105a6565b6105f1816105b4565b840191505092915050565b5f6020820190508181035f83015261061481846105c4565b905092915050565b5f819050919050565b61062e8161061c565b82525050565b5f6020820190506106475f830184610625565b92915050565b5f604051905090565b5f80fd5b5f80fd5b5f73ffffffffffffffffffffffffffffffffffffffff82169050919050565b5f6106878261065e565b9050919050565b6106978161067d565b81146106a1575f80fd5b50565b5f813590506106b28161068e565b92915050565b5f602082840312156106cd576106cc610656565b5b5f6106da848285016106a4565b91505092915050565b6106ec8161067d565b82525050565b5f6020820190506107055f8301846106e3565b92915050565b5f80fd5b5f80fd5b7f4e487b71000000000000000000000000000000000000000000000000000000005f52604160045260245ffd5b610749826105b4565b810181811067ffffffffffffffff8211171561076857610767610713565b5b80604052505050565b5f61077a61064d565b90506107868282610740565b919050565b5f67ffffffffffffffff8211156107a5576107a4610713565b5b6107ae826105b4565b9050602081019050919050565b828183375f83830152505050565b5f6107db6107d68461078b565b610771565b9050828152602081018484840111156107f7576107f661070f565b5b6108028482856107bb565b509392505050565b5f82601f83011261081e5761081d61070b565b5b813561082e8482602086016107c9565b91505092915050565b5f806040838503121561084d5761084c610656565b5b5f83013567ffffffffffffffff81111561086a5761086961065a565b5b6108768582860161080a565b925050602083013567ffffffffffffffff8111156108975761089661065a565b5b6108a38582860161080a565b9150509250929050565b7f4f776e61626c653a206e6577206f776e657220697320746865207a65726f20615f8201527f6464726573730000000000000000000000000000000000000000000000000000602082015250565b5f610907602683610596565b9150610912826108ad565b604082019050919050565b5f6020820190508181035f830152610934816108fb565b9050919050565b5f81905092915050565b5f61094f8261058c565b610959818561093b565b93506109698185602086016105a6565b80840191505092915050565b5f6109808284610945565b915081905092915050565b7f4f776e61626c653a2063616c6c6572206973206e6f7420746865206f776e65725f82015250565b5f6109bf602083610596565b91506109ca8261098b565b602082019050919050565b5f6020820190508181035f8301526109ec816109b3565b9050919050565b5f604082019050610a065f8301856106e3565b8181036020830152610a1881846105c4565b90509392505050565b5f819050919050565b610a3381610a21565b8114610a3d575f80fd5b50565b5f81519050610a4e81610a2a565b92915050565b5f60208284031215610a6957610a68610656565b5b5f610a7684828501610a40565b9150509291505056fe697066733a2f2f516d61727a465273326337707254376757464632427063513674755a6a793754635637417a734e5475786f56793843796672696e20466f756e6472792046756c6c20436f757273653a2049274d2050524f4f4d4d50505054544949494e4e4e474747474747a264697066735822122095971ea00f0cdd67798609eafacbffb5fb7c7378131da97fe490ccc87cedecec64736f6c634300081a0033",
					"opcodes": "PUSH1 0xA0 PUSH1 0x40 MSTORE CALLVALUE DUP1 ISZERO PUSH2 0xF JUMPI PUSH0 DUP1 REVERT JUMPDEST POP PUSH1 0x40 MLOAD PUSH2 0xD78 CODESIZE SUB DUP1 PUSH2 0xD78 DUP4 CODECOPY DUP2 DUP2 ADD PUSH1 0x40 MSTORE DUP2 ADD SWAP1 PUSH2 0x31 SWAP2 SWAP1 PUSH2 0x214 JUMP JUMPDEST DUP1 PUSH2 0x4E PUSH2 0x43 PUSH2 0xEE PUSH1 0x20 SHL PUSH1 0x20 SHR JUMP JUMPDEST PUSH2 0xF5 PUSH1 0x20 SHL PUSH1 0x20 SHR JUMP JUMPDEST PUSH0 PUSH20 0xFFFFFFFFFFFFFFFFFFFFFFFFFFFFFFFFFFFFFFFF AND DUP2 PUSH20 0xFFFFFFFFFFFFFFFFFFFFFFFFFFFFFFFFFFFFFFFF AND SUB PUSH2 0xB3 JUMPI PUSH1 0x40 MLOAD PUSH32 0x449C81FB00000000000000000000000000000000000000000000000000000000 DUP2 MSTORE PUSH1 0x4 ADD PUSH1 0x40 MLOAD DUP1 SWAP2 SUB SWAP1 REVERT JUMPDEST DUP1 PUSH20 0xFFFFFFFFFFFFFFFFFFFFFFFFFFFFFFFFFFFFFFFF AND PUSH1 0x80 DUP2 PUSH20 0xFFFFFFFFFFFFFFFFFFFFFFFFFFFFFFFFFFFFFFFF AND DUP2 MSTORE POP POP POP POP PUSH2 0x23F JUMP JUMPDEST PUSH0 CALLER SWAP1 POP SWAP1 JUMP JUMPDEST PUSH0 DUP1 PUSH0 SWAP1 SLOAD SWAP1 PUSH2 0x100 EXP SWAP1 DIV PUSH20 0xFFFFFFFFFFFFFFFFFFFFFFFFFFFFFFFFFFFFFFFF AND SWAP1 POP DUP2 PUSH0 DUP1 PUSH2 0x100 EXP DUP2 SLOAD DUP2 PUSH20 0xFFFFFFFFFFFFFFFFFFFFFFFFFFFFFFFFFFFFFFFF MUL NOT AND SWAP1 DUP4 PUSH20 0xFFFFFFFFFFFFFFFFFFFFFFFFFFFFFFFFFFFFFFFF AND MUL OR SWAP1 SSTORE POP DUP2 PUSH20 0xFFFFFFFFFFFFFFFFFFFFFFFFFFFFFFFFFFFFFFFF AND DUP2 PUSH20 0xFFFFFFFFFFFFFFFFFFFFFFFFFFFFFFFFFFFFFFFF AND PUSH32 0x8BE0079C531659141344CD1FD0A4F28419497F9722A3DAAFE3B4186F6B6457E0 PUSH1 0x40 MLOAD PUSH1 0x40 MLOAD DUP1 SWAP2 SUB SWAP1 LOG3 POP POP JUMP JUMPDEST PUSH0 DUP1 REVERT JUMPDEST PUSH0 PUSH20 0xFFFFFFFFFFFFFFFFFFFFFFFFFFFFFFFFFFFFFFFF DUP3 AND SWAP1 POP SWAP2 SWAP1 POP JUMP JUMPDEST PUSH0 PUSH2 0x1E3 DUP3 PUSH2 0x1BA JUMP JUMPDEST SWAP1 POP SWAP2 SWAP1 POP JUMP JUMPDEST PUSH2 0x1F3 DUP2 PUSH2 0x1D9 JUMP JUMPDEST DUP2 EQ PUSH2 0x1FD JUMPI PUSH0 DUP1 REVERT JUMPDEST POP JUMP JUMPDEST PUSH0 DUP2 MLOAD SWAP1 POP PUSH2 0x20E DUP2 PUSH2 0x1EA JUMP JUMPDEST SWAP3 SWAP2 POP POP JUMP JUMPDEST PUSH0 PUSH1 0x20 DUP3 DUP5 SUB SLT ISZERO PUSH2 0x229 JUMPI PUSH2 0x228 PUSH2 0x1B6 JUMP JUMPDEST JUMPDEST PUSH0 PUSH2 0x236 DUP5 DUP3 DUP6 ADD PUSH2 0x200 JUMP JUMPDEST SWAP2 POP POP SWAP3 SWAP2 POP POP JUMP JUMPDEST PUSH1 0x80 MLOAD PUSH2 0xB21 PUSH2 0x257 PUSH0 CODECOPY PUSH0 PUSH2 0x4E8 ADD MSTORE PUSH2 0xB21 PUSH0 RETURN INVALID PUSH1 0x80 PUSH1 0x40 MSTORE CALLVALUE DUP1 ISZERO PUSH2 0xF JUMPI PUSH0 DUP1 REVERT JUMPDEST POP PUSH1 0x4 CALLDATASIZE LT PUSH2 0x91 JUMPI PUSH0 CALLDATALOAD PUSH1 0xE0 SHR DUP1 PUSH4 0x715018A6 GT PUSH2 0x64 JUMPI DUP1 PUSH4 0x715018A6 EQ PUSH2 0x11F JUMPI DUP1 PUSH4 0x7284E416 EQ PUSH2 0x129 JUMPI DUP1 PUSH4 0x8DA5CB5B EQ PUSH2 0x147 JUMPI DUP1 PUSH4 0xF2FDE38B EQ PUSH2 0x165 JUMPI DUP1 PUSH4 0xFA455435 EQ PUSH2 0x181 JUMPI PUSH2 0x91 JUMP JUMPDEST DUP1 PUSH4 0x14B42C77 EQ PUSH2 0x95 JUMPI DUP1 PUSH4 0x3702A874 EQ PUSH2 0xB3 JUMPI DUP1 PUSH4 0x51C94ED3 EQ PUSH2 0xD1 JUMPI DUP1 PUSH4 0x70756AF2 EQ PUSH2 0x101 JUMPI JUMPDEST PUSH0 DUP1 REVERT JUMPDEST PUSH2 0x9D PUSH2 0x19D JUMP JUMPDEST PUSH1 0x40 MLOAD PUSH2 0xAA SWAP2 SWAP1 PUSH2 0x5FC JUMP JUMPDEST PUSH1 0x40 MLOAD DUP1 SWAP2 SUB SWAP1 RETURN JUMPDEST PUSH2 0xBB PUSH2 0x1DA JUMP JUMPDEST PUSH1 0x40 MLOAD PUSH2 0xC8 SWAP2 SWAP1 PUSH2 0x634 JUMP JUMPDEST PUSH1 0x40 MLOAD DUP1 SWAP2 SUB SWAP1 RETURN JUMPDEST PUSH2 0xEB PUSH1 0x4 DUP1 CALLDATASIZE SUB DUP2 ADD SWAP1 PUSH2 0xE6 SWAP2 SWAP1 PUSH2 0x6B8 JUMP JUMPDEST PUSH2 0x200 JUMP JUMPDEST PUSH1 0x40 MLOAD PUSH2 0xF8 SWAP2 SWAP1 PUSH2 0x5FC JUMP JUMPDEST PUSH1 0x40 MLOAD DUP1 SWAP2 SUB SWAP1 RETURN JUMPDEST PUSH2 0x109 PUSH2 0x218 JUMP JUMPDEST PUSH1 0x40 MLOAD PUSH2 0x116 SWAP2 SWAP1 PUSH2 0x5FC JUMP JUMPDEST PUSH1 0x40 MLOAD DUP1 SWAP2 SUB SWAP1 RETURN JUMPDEST PUSH2 0x127 PUSH2 0x238 JUMP JUMPDEST STOP JUMPDEST PUSH2 0x131 PUSH2 0x24B JUMP JUMPDEST PUSH1 0x40 MLOAD PUSH2 0x13E SWAP2 SWAP1 PUSH2 0x5FC JUMP JUMPDEST PUSH1 0x40 MLOAD DUP1 SWAP2 SUB SWAP1 RETURN JUMPDEST PUSH2 0x14F PUSH2 0x26B JUMP JUMPDEST PUSH1 0x40 MLOAD PUSH2 0x15C SWAP2 SWAP1 PUSH2 0x6F2 JUMP JUMPDEST PUSH1 0x40 MLOAD DUP1 SWAP2 SUB SWAP1 RETURN JUMPDEST PUSH2 0x17F PUSH1 0x4 DUP1 CALLDATASIZE SUB DUP2 ADD SWAP1 PUSH2 0x17A SWAP2 SWAP1 PUSH2 0x6B8 JUMP JUMPDEST PUSH2 0x292 JUMP JUMPDEST STOP JUMPDEST PUSH2 0x19B PUSH1 0x4 DUP1 CALLDATASIZE SUB DUP2 ADD SWAP1 PUSH2 0x196 SWAP2 SWAP1 PUSH2 0x837 JUMP JUMPDEST PUSH2 0x314 JUMP JUMPDEST STOP JUMPDEST PUSH1 0x60 PUSH1 0x40 MLOAD DUP1 PUSH1 0x40 ADD PUSH1 0x40 MSTORE DUP1 PUSH1 0x11 DUP2 MSTORE PUSH1 0x20 ADD PUSH32 0x4F6E6520776974682074686520626F7473000000000000000000000000000000 DUP2 MSTORE POP SWAP1 POP SWAP1 JUMP JUMPDEST PUSH32 0xB68FE43F0D1A0D7AEF123722670BE50268E15365401C442F8806EF83B612976B PUSH0 SHL DUP2 JUMP JUMPDEST PUSH1 0x60 PUSH1 0x40 MLOAD DUP1 PUSH1 0x20 ADD PUSH1 0x40 MSTORE DUP1 PUSH0 DUP2 MSTORE POP SWAP1 POP SWAP2 SWAP1 POP JUMP JUMPDEST PUSH1 0x60 PUSH1 0x40 MLOAD DUP1 PUSH1 0x60 ADD PUSH1 0x40 MSTORE DUP1 PUSH1 0x35 DUP2 MSTORE PUSH1 0x20 ADD PUSH2 0xA80 PUSH1 0x35 SWAP2 CODECOPY SWAP1 POP SWAP1 JUMP JUMPDEST PUSH2 0x240 PUSH2 0x3A7 JUMP JUMPDEST PUSH2 0x249 PUSH0 PUSH2 0x425 JUMP JUMPDEST JUMP JUMPDEST PUSH1 0x60 PUSH1 0x40 MLOAD DUP1 PUSH1 0x60 ADD PUSH1 0x40 MSTORE DUP1 PUSH1 0x37 DUP2 MSTORE PUSH1 0x20 ADD PUSH2 0xAB5 PUSH1 0x37 SWAP2 CODECOPY SWAP1 POP SWAP1 JUMP JUMPDEST PUSH0 DUP1 PUSH0 SWAP1 SLOAD SWAP1 PUSH2 0x100 EXP SWAP1 DIV PUSH20 0xFFFFFFFFFFFFFFFFFFFFFFFFFFFFFFFFFFFFFFFF AND SWAP1 POP SWAP1 JUMP JUMPDEST PUSH2 0x29A PUSH2 0x3A7 JUMP JUMPDEST PUSH0 PUSH20 0xFFFFFFFFFFFFFFFFFFFFFFFFFFFFFFFFFFFFFFFF AND DUP2 PUSH20 0xFFFFFFFFFFFFFFFFFFFFFFFFFFFFFFFFFFFFFFFF AND SUB PUSH2 0x308 JUMPI PUSH1 0x40 MLOAD PUSH32 0x8C379A000000000000000000000000000000000000000000000000000000000 DUP2 MSTORE PUSH1 0x4 ADD PUSH2 0x2FF SWAP1 PUSH2 0x91D JUMP JUMPDEST PUSH1 0x40 MLOAD DUP1 SWAP2 SUB SWAP1 REVERT JUMPDEST PUSH2 0x311 DUP2 PUSH2 0x425 JUMP JUMPDEST POP JUMP JUMPDEST PUSH32 0xB68FE43F0D1A0D7AEF123722670BE50268E15365401C442F8806EF83B612976B PUSH0 SHL DUP3 PUSH1 0x40 MLOAD PUSH1 0x20 ADD PUSH2 0x348 SWAP2 SWAP1 PUSH2 0x975 JUMP JUMPDEST PUSH1 0x40 MLOAD PUSH1 0x20 DUP2 DUP4 SUB SUB DUP2 MSTORE SWAP1 PUSH1 0x40 MSTORE DUP1 MLOAD SWAP1 PUSH1 0x20 ADD KECCAK256 SUB PUSH2 0x371 JUMPI PUSH2 0x36C DUP2 PUSH2 0x4E6 JUMP JUMPDEST PUSH2 0x3A3 JUMP JUMPDEST PUSH1 0x40 MLOAD PUSH32 0x739F607400000000000000000000000000000000000000000000000000000000 DUP2 MSTORE PUSH1 0x4 ADD PUSH1 0x40 MLOAD DUP1 SWAP2 SUB SWAP1 REVERT JUMPDEST POP POP JUMP JUMPDEST PUSH2 0x3AF PUSH2 0x585 JUMP JUMPDEST PUSH20 0xFFFFFFFFFFFFFFFFFFFFFFFFFFFFFFFFFFFFFFFF AND PUSH2 0x3CD PUSH2 0x26B JUMP JUMPDEST PUSH20 0xFFFFFFFFFFFFFFFFFFFFFFFFFFFFFFFFFFFFFFFF AND EQ PUSH2 0x423 JUMPI PUSH1 0x40 MLOAD PUSH32 0x8C379A000000000000000000000000000000000000000000000000000000000 DUP2 MSTORE PUSH1 0x4 ADD PUSH2 0x41A SWAP1 PUSH2 0x9D5 JUMP JUMPDEST PUSH1 0x40 MLOAD DUP1 SWAP2 SUB SWAP1 REVERT JUMPDEST JUMP JUMPDEST PUSH0 DUP1 PUSH0 SWAP1 SLOAD SWAP1 PUSH2 0x100 EXP SWAP1 DIV PUSH20 0xFFFFFFFFFFFFFFFFFFFFFFFFFFFFFFFFFFFFFFFF AND SWAP1 POP DUP2 PUSH0 DUP1 PUSH2 0x100 EXP DUP2 SLOAD DUP2 PUSH20 0xFFFFFFFFFFFFFFFFFFFFFFFFFFFFFFFFFFFFFFFF MUL NOT AND SWAP1 DUP4 PUSH20 0xFFFFFFFFFFFFFFFFFFFFFFFFFFFFFFFFFFFFFFFF AND MUL OR SWAP1 SSTORE POP DUP2 PUSH20 0xFFFFFFFFFFFFFFFFFFFFFFFFFFFFFFFFFFFFFFFF AND DUP2 PUSH20 0xFFFFFFFFFFFFFFFFFFFFFFFFFFFFFFFFFFFFFFFF AND PUSH32 0x8BE0079C531659141344CD1FD0A4F28419497F9722A3DAAFE3B4186F6B6457E0 PUSH1 0x40 MLOAD PUSH1 0x40 MLOAD DUP1 SWAP2 SUB SWAP1 LOG3 POP POP JUMP JUMPDEST PUSH32 0x0 PUSH20 0xFFFFFFFFFFFFFFFFFFFFFFFFFFFFFFFFFFFFFFFF AND PUSH4 0x11F87B19 CALLER DUP4 PUSH1 0x40 MLOAD DUP4 PUSH4 0xFFFFFFFF AND PUSH1 0xE0 SHL DUP2 MSTORE PUSH1 0x4 ADD PUSH2 0x541 SWAP3 SWAP2 SWAP1 PUSH2 0x9F3 JUMP JUMPDEST PUSH1 0x20 PUSH1 0x40 MLOAD DUP1 DUP4 SUB DUP2 PUSH0 DUP8 GAS CALL ISZERO DUP1 ISZERO PUSH2 0x55D JUMPI RETURNDATASIZE PUSH0 DUP1 RETURNDATACOPY RETURNDATASIZE PUSH0 REVERT JUMPDEST POP POP POP POP PUSH1 0x40 MLOAD RETURNDATASIZE PUSH1 0x1F NOT PUSH1 0x1F DUP3 ADD AND DUP3 ADD DUP1 PUSH1 0x40 MSTORE POP DUP2 ADD SWAP1 PUSH2 0x581 SWAP2 SWAP1 PUSH2 0xA54 JUMP JUMPDEST POP POP JUMP JUMPDEST PUSH0 CALLER SWAP1 POP SWAP1 JUMP JUMPDEST PUSH0 DUP2 MLOAD SWAP1 POP SWAP2 SWAP1 POP JUMP JUMPDEST PUSH0 DUP3 DUP3 MSTORE PUSH1 0x20 DUP3 ADD SWAP1 POP SWAP3 SWAP2 POP POP JUMP JUMPDEST DUP3 DUP2 DUP4 MCOPY PUSH0 DUP4 DUP4 ADD MSTORE POP POP POP JUMP JUMPDEST PUSH0 PUSH1 0x1F NOT PUSH1 0x1F DUP4 ADD AND SWAP1 POP SWAP2 SWAP1 POP JUMP JUMPDEST PUSH0 PUSH2 0x5CE DUP3 PUSH2 0x58C JUMP JUMPDEST PUSH2 0x5D8 DUP2 DUP6 PUSH2 0x596 JUMP JUMPDEST SWAP4 POP PUSH2 0x5E8 DUP2 DUP6 PUSH1 0x20 DUP7 ADD PUSH2 0x5A6 JUMP JUMPDEST PUSH2 0x5F1 DUP2 PUSH2 0x5B4 JUMP JUMPDEST DUP5 ADD SWAP2 POP POP SWAP3 SWAP2 POP POP JUMP JUMPDEST PUSH0 PUSH1 0x20 DUP3 ADD SWAP1 POP DUP2 DUP2 SUB PUSH0 DUP4 ADD MSTORE PUSH2 0x614 DUP2 DUP5 PUSH2 0x5C4 JUMP JUMPDEST SWAP1 POP SWAP3 SWAP2 POP POP JUMP JUMPDEST PUSH0 DUP2 SWAP1 POP SWAP2 SWAP1 POP JUMP JUMPDEST PUSH2 0x62E DUP2 PUSH2 0x61C JUMP JUMPDEST DUP3 MSTORE POP POP JUMP JUMPDEST PUSH0 PUSH1 0x20 DUP3 ADD SWAP1 POP PUSH2 0x647 PUSH0 DUP4 ADD DUP5 PUSH2 0x625 JUMP JUMPDEST SWAP3 SWAP2 POP POP JUMP JUMPDEST PUSH0 PUSH1 0x40 MLOAD SWAP1 POP SWAP1 JUMP JUMPDEST PUSH0 DUP1 REVERT JUMPDEST PUSH0 DUP1 REVERT JUMPDEST PUSH0 PUSH20 0xFFFFFFFFFFFFFFFFFFFFFFFFFFFFFFFFFFFFFFFF DUP3 AND SWAP1 POP SWAP2 SWAP1 POP JUMP JUMPDEST PUSH0 PUSH2 0x687 DUP3 PUSH2 0x65E JUMP JUMPDEST SWAP1 POP SWAP2 SWAP1 POP JUMP JUMPDEST PUSH2 0x697 DUP2 PUSH2 0x67D JUMP JUMPDEST DUP2 EQ PUSH2 0x6A1 JUMPI PUSH0 DUP1 REVERT JUMPDEST POP JUMP JUMPDEST PUSH0 DUP2 CALLDATALOAD SWAP1 POP PUSH2 0x6B2 DUP2 PUSH2 0x68E JUMP JUMPDEST SWAP3 SWAP2 POP POP JUMP JUMPDEST PUSH0 PUSH1 0x20 DUP3 DUP5 SUB SLT ISZERO PUSH2 0x6CD JUMPI PUSH2 0x6CC PUSH2 0x656 JUMP JUMPDEST JUMPDEST PUSH0 PUSH2 0x6DA DUP5 DUP3 DUP6 ADD PUSH2 0x6A4 JUMP JUMPDEST SWAP2 POP POP SWAP3 SWAP2 POP POP JUMP JUMPDEST PUSH2 0x6EC DUP2 PUSH2 0x67D JUMP JUMPDEST DUP3 MSTORE POP POP JUMP JUMPDEST PUSH0 PUSH1 0x20 DUP3 ADD SWAP1 POP PUSH2 0x705 PUSH0 DUP4 ADD DUP5 PUSH2 0x6E3 JUMP JUMPDEST SWAP3 SWAP2 POP POP JUMP JUMPDEST PUSH0 DUP1 REVERT JUMPDEST PUSH0 DUP1 REVERT JUMPDEST PUSH32 0x4E487B7100000000000000000000000000000000000000000000000000000000 PUSH0 MSTORE PUSH1 0x41 PUSH1 0x4 MSTORE PUSH1 0x24 PUSH0 REVERT JUMPDEST PUSH2 0x749 DUP3 PUSH2 0x5B4 JUMP JUMPDEST DUP2 ADD DUP2 DUP2 LT PUSH8 0xFFFFFFFFFFFFFFFF DUP3 GT OR ISZERO PUSH2 0x768 JUMPI PUSH2 0x767 PUSH2 0x713 JUMP JUMPDEST JUMPDEST DUP1 PUSH1 0x40 MSTORE POP POP POP JUMP JUMPDEST PUSH0 PUSH2 0x77A PUSH2 0x64D JUMP JUMPDEST SWAP1 POP PUSH2 0x786 DUP3 DUP3 PUSH2 0x740 JUMP JUMPDEST SWAP2 SWAP1 POP JUMP JUMPDEST PUSH0 PUSH8 0xFFFFFFFFFFFFFFFF DUP3 GT ISZERO PUSH2 0x7A5 JUMPI PUSH2 0x7A4 PUSH2 0x713 JUMP JUMPDEST JUMPDEST PUSH2 0x7AE DUP3 PUSH2 0x5B4 JUMP JUMPDEST SWAP1 POP PUSH1 0x20 DUP2 ADD SWAP1 POP SWAP2 SWAP1 POP JUMP JUMPDEST DUP3 DUP2 DUP4 CALLDATACOPY PUSH0 DUP4 DUP4 ADD MSTORE POP POP POP JUMP JUMPDEST PUSH0 PUSH2 0x7DB PUSH2 0x7D6 DUP5 PUSH2 0x78B JUMP JUMPDEST PUSH2 0x771 JUMP JUMPDEST SWAP1 POP DUP3 DUP2 MSTORE PUSH1 0x20 DUP2 ADD DUP5 DUP5 DUP5 ADD GT ISZERO PUSH2 0x7F7 JUMPI PUSH2 0x7F6 PUSH2 0x70F JUMP JUMPDEST JUMPDEST PUSH2 0x802 DUP5 DUP3 DUP6 PUSH2 0x7BB JUMP JUMPDEST POP SWAP4 SWAP3 POP POP POP JUMP JUMPDEST PUSH0 DUP3 PUSH1 0x1F DUP4 ADD SLT PUSH2 0x81E JUMPI PUSH2 0x81D PUSH2 0x70B JUMP JUMPDEST JUMPDEST DUP2 CALLDATALOAD PUSH2 0x82E DUP5 DUP3 PUSH1 0x20 DUP7 ADD PUSH2 0x7C9 JUMP JUMPDEST SWAP2 POP POP SWAP3 SWAP2 POP POP JUMP JUMPDEST PUSH0 DUP1 PUSH1 0x40 DUP4 DUP6 SUB SLT ISZERO PUSH2 0x84D JUMPI PUSH2 0x84C PUSH2 0x656 JUMP JUMPDEST JUMPDEST PUSH0 DUP4 ADD CALLDATALOAD PUSH8 0xFFFFFFFFFFFFFFFF DUP2 GT ISZERO PUSH2 0x86A JUMPI PUSH2 0x869 PUSH2 0x65A JUMP JUMPDEST JUMPDEST PUSH2 0x876 DUP6 DUP3 DUP7 ADD PUSH2 0x80A JUMP JUMPDEST SWAP3 POP POP PUSH1 0x20 DUP4 ADD CALLDATALOAD PUSH8 0xFFFFFFFFFFFFFFFF DUP2 GT ISZERO PUSH2 0x897 JUMPI PUSH2 0x896 PUSH2 0x65A JUMP JUMPDEST JUMPDEST PUSH2 0x8A3 DUP6 DUP3 DUP7 ADD PUSH2 0x80A JUMP JUMPDEST SWAP2 POP POP SWAP3 POP SWAP3 SWAP1 POP JUMP JUMPDEST PUSH32 0x4F776E61626C653A206E6577206F776E657220697320746865207A65726F2061 PUSH0 DUP3 ADD MSTORE PUSH32 0x6464726573730000000000000000000000000000000000000000000000000000 PUSH1 0x20 DUP3 ADD MSTORE POP JUMP JUMPDEST PUSH0 PUSH2 0x907 PUSH1 0x26 DUP4 PUSH2 0x596 JUMP JUMPDEST SWAP2 POP PUSH2 0x912 DUP3 PUSH2 0x8AD JUMP JUMPDEST PUSH1 0x40 DUP3 ADD SWAP1 POP SWAP2 SWAP1 POP JUMP JUMPDEST PUSH0 PUSH1 0x20 DUP3 ADD SWAP1 POP DUP2 DUP2 SUB PUSH0 DUP4 ADD MSTORE PUSH2 0x934 DUP2 PUSH2 0x8FB JUMP JUMPDEST SWAP1 POP SWAP2 SWAP1 POP JUMP JUMPDEST PUSH0 DUP2 SWAP1 POP SWAP3 SWAP2 POP POP JUMP JUMPDEST PUSH0 PUSH2 0x94F DUP3 PUSH2 0x58C JUMP JUMPDEST PUSH2 0x959 DUP2 DUP6 PUSH2 0x93B JUMP JUMPDEST SWAP4 POP PUSH2 0x969 DUP2 DUP6 PUSH1 0x20 DUP7 ADD PUSH2 0x5A6 JUMP JUMPDEST DUP1 DUP5 ADD SWAP2 POP POP SWAP3 SWAP2 POP POP JUMP JUMPDEST PUSH0 PUSH2 0x980 DUP3 DUP5 PUSH2 0x945 JUMP JUMPDEST SWAP2 POP DUP2 SWAP1 POP SWAP3 SWAP2 POP POP JUMP JUMPDEST PUSH32 0x4F776E61626C653A2063616C6C6572206973206E6F7420746865206F776E6572 PUSH0 DUP3 ADD MSTORE POP JUMP JUMPDEST PUSH0 PUSH2 0x9BF PUSH1 0x20 DUP4 PUSH2 0x596 JUMP JUMPDEST SWAP2 POP PUSH2 0x9CA DUP3 PUSH2 0x98B JUMP JUMPDEST PUSH1 0x20 DUP3 ADD SWAP1 POP SWAP2 SWAP1 POP JUMP JUMPDEST PUSH0 PUSH1 0x20 DUP3 ADD SWAP1 POP DUP2 DUP2 SUB PUSH0 DUP4 ADD MSTORE PUSH2 0x9EC DUP2 PUSH2 0x9B3 JUMP JUMPDEST SWAP1 POP SWAP2 SWAP1 POP JUMP JUMPDEST PUSH0 PUSH1 0x40 DUP3 ADD SWAP1 POP PUSH2 0xA06 PUSH0 DUP4 ADD DUP6 PUSH2 0x6E3 JUMP JUMPDEST DUP2 DUP2 SUB PUSH1 0x20 DUP4 ADD MSTORE PUSH2 0xA18 DUP2 DUP5 PUSH2 0x5C4 JUMP JUMPDEST SWAP1 POP SWAP4 SWAP3 POP POP POP JUMP JUMPDEST PUSH0 DUP2 SWAP1 POP SWAP2 SWAP1 POP JUMP JUMPDEST PUSH2 0xA33 DUP2 PUSH2 0xA21 JUMP JUMPDEST DUP2 EQ PUSH2 0xA3D JUMPI PUSH0 DUP1 REVERT JUMPDEST POP JUMP JUMPDEST PUSH0 DUP2 MLOAD SWAP1 POP PUSH2 0xA4E DUP2 PUSH2 0xA2A JUMP JUMPDEST SWAP3 SWAP2 POP POP JUMP JUMPDEST PUSH0 PUSH1 0x20 DUP3 DUP5 SUB SLT ISZERO PUSH2 0xA69 JUMPI PUSH2 0xA68 PUSH2 0x656 JUMP JUMPDEST JUMPDEST PUSH0 PUSH2 0xA76 DUP5 DUP3 DUP6 ADD PUSH2 0xA40 JUMP JUMPDEST SWAP2 POP POP SWAP3 SWAP2 POP POP JUMP INVALID PUSH10 0x7066733A2F2F516D6172 PUSH27 0x465273326337707254376757464632427063513674755A6A793754 PUSH4 0x5637417A PUSH20 0x4E5475786F56793843796672696E20466F756E64 PUSH19 0x792046756C6C20436F757273653A2049274D20 POP MSTORE 0x4F 0x4F 0x4D 0x4D POP POP POP SLOAD SLOAD BLOBHASH BLOBHASH BLOBHASH 0x4E 0x4E 0x4E SELFBALANCE SELFBALANCE SELFBALANCE SELFBALANCE SELFBALANCE SELFBALANCE LOG2 PUSH5 0x6970667358 0x22 SLT KECCAK256 SWAP6 SWAP8 0x1E LOG0 0xF 0xC 0xDD PUSH8 0x798609EAFACBFFB5 0xFB PUSH29 0x7378131DA97FE490CCC87CEDECEC64736F6C634300081A003300000000 "
				},
				"gasEstimates": {
					"creation": {
						"codeDepositCost": "569800",
						"executionCost": "infinite",
						"totalCost": "infinite"
					},
					"external": {
						"EXPECTED_BYTES()": "353",
						"attribute()": "infinite",
						"description()": "infinite",
						"extraDescription(address)": "infinite",
						"owner()": "2559",
						"renounceOwnership()": "30390",
						"solveChallenge(string,string)": "infinite",
						"specialImage()": "infinite",
						"transferOwnership(address)": "30797"
					}
				},
				"methodIdentifiers": {
					"EXPECTED_BYTES()": "3702a874",
					"attribute()": "14b42c77",
					"description()": "7284e416",
					"extraDescription(address)": "51c94ed3",
					"owner()": "8da5cb5b",
					"renounceOwnership()": "715018a6",
					"solveChallenge(string,string)": "fa455435",
					"specialImage()": "70756af2",
					"transferOwnership(address)": "f2fde38b"
				}
			},
			"storageLayout": {
				"storage": [
					{
						"astId": 145,
						"contract": "challenge one.sol:LessonFive",
						"label": "_owner",
						"offset": 0,
						"slot": "0",
						"type": "t_address"
					}
				],
				"types": {
					"t_address": {
						"encoding": "inplace",
						"label": "address",
						"numberOfBytes": "20"
					}
				}
			},
			"userdoc": {
				"kind": "user",
				"methods": {},
				"version": 1
			}
		}
	}
}