{
	"contracts/PriceConverter.sol": {
		"PriceConverter": {
			"abi": [
				{
					"inputs": [
						{
							"internalType": "uint256",
							"name": "ethAmount",
							"type": "uint256"
						}
					],
					"name": "conversion",
					"outputs": [
						{
							"internalType": "uint256",
							"name": "",
							"type": "uint256"
						}
					],
					"stateMutability": "view",
					"type": "function"
				},
				{
					"inputs": [],
					"name": "getPrice",
					"outputs": [
						{
							"internalType": "uint256",
							"name": "",
							"type": "uint256"
						}
					],
					"stateMutability": "view",
					"type": "function"
				},
				{
					"inputs": [],
					"name": "getVersion",
					"outputs": [
						{
							"internalType": "uint256",
							"name": "",
							"type": "uint256"
						}
					],
					"stateMutability": "view",
					"type": "function"
				}
			],
			"devdoc": {
				"kind": "dev",
				"methods": {},
				"version": 1
			},
			"evm": {
				"assembly": "    /* \"contracts/PriceConverter.sol\":177:921  library PriceConverter {... */\n  dataSize(sub_0)\n  dataOffset(sub_0)\n  0x0b\n  dup3\n  dup3\n  dup3\n  codecopy\n  dup1\n  mload\n  0x00\n  byte\n  0x73\n  eq\n  tag_1\n  jumpi\n  mstore(0x00, 0x4e487b7100000000000000000000000000000000000000000000000000000000)\n  mstore(0x04, 0x00)\n  revert(0x00, 0x24)\ntag_1:\n  mstore(0x00, address)\n  0x73\n  dup2\n  mstore8\n  dup3\n  dup2\n  return\nstop\n\nsub_0: assembly {\n        /* \"contracts/PriceConverter.sol\":177:921  library PriceConverter {... */\n      eq(address, deployTimeAddress())\n      mstore(0x40, 0x80)\n      jumpi(tag_1, lt(calldatasize, 0x04))\n      shr(0xe0, calldataload(0x00))\n      dup1\n      0x0d8e6e2c\n      eq\n      tag_2\n      jumpi\n      dup1\n      0x98d5fdca\n      eq\n      tag_3\n      jumpi\n      dup1\n      0xba4d0c99\n      eq\n      tag_4\n      jumpi\n    tag_1:\n      0x00\n      dup1\n      revert\n        /* \"contracts/PriceConverter.sol\":767:918  function getVersion() public view returns(uint256){... */\n    tag_2:\n      tag_5\n      tag_6\n      jump\t// in\n    tag_5:\n      mload(0x40)\n      tag_7\n      swap2\n      swap1\n      tag_8\n      jump\t// in\n    tag_7:\n      mload(0x40)\n      dup1\n      swap2\n      sub\n      swap1\n      return\n        /* \"contracts/PriceConverter.sol\":216:548  function getPrice () public view returns(uint256) {... */\n    tag_3:\n      tag_9\n      tag_10\n      jump\t// in\n    tag_9:\n      mload(0x40)\n      tag_11\n      swap2\n      swap1\n      tag_8\n      jump\t// in\n    tag_11:\n      mload(0x40)\n      dup1\n      swap2\n      sub\n      swap1\n      return\n        /* \"contracts/PriceConverter.sol\":554:761  function conversion (uint256 ethAmount) public view returns(uint256){... */\n    tag_4:\n      tag_12\n      0x04\n      dup1\n      calldatasize\n      sub\n      dup2\n      add\n      swap1\n      tag_13\n      swap2\n      swap1\n      tag_14\n      jump\t// in\n    tag_13:\n      tag_15\n      jump\t// in\n    tag_12:\n      mload(0x40)\n      tag_16\n      swap2\n      swap1\n      tag_8\n      jump\t// in\n    tag_16:\n      mload(0x40)\n      dup1\n      swap2\n      sub\n      swap1\n      return\n        /* \"contracts/PriceConverter.sol\":767:918  function getVersion() public view returns(uint256){... */\n    tag_6:\n        /* \"contracts/PriceConverter.sol\":809:816  uint256 */\n      0x00\n        /* \"contracts/PriceConverter.sol\":857:899  0x694AA1769357215DE4FAC081bf1f309aDC325306 */\n      0x694aa1769357215de4fac081bf1f309adc325306\n        /* \"contracts/PriceConverter.sol\":835:908  AggregatorV3Interface(0x694AA1769357215DE4FAC081bf1f309aDC325306).version */\n      0xffffffffffffffffffffffffffffffffffffffff\n      and\n      0x54fd4d50\n        /* \"contracts/PriceConverter.sol\":835:910  AggregatorV3Interface(0x694AA1769357215DE4FAC081bf1f309aDC325306).version() */\n      mload(0x40)\n      dup2\n      0xffffffff\n      and\n      0xe0\n      shl\n      dup2\n      mstore\n      0x04\n      add\n      0x20\n      mload(0x40)\n      dup1\n      dup4\n      sub\n      dup2\n      dup7\n      gas\n      staticcall\n      iszero\n      dup1\n      iszero\n      tag_19\n      jumpi\n      returndatasize\n      0x00\n      dup1\n      returndatacopy\n      revert(0x00, returndatasize)\n    tag_19:\n      pop\n      pop\n      pop\n      pop\n      mload(0x40)\n      returndatasize\n      not(0x1f)\n      0x1f\n      dup3\n      add\n      and\n      dup3\n      add\n      dup1\n      0x40\n      mstore\n      pop\n      dup2\n      add\n      swap1\n      tag_20\n      swap2\n      swap1\n      tag_21\n      jump\t// in\n    tag_20:\n        /* \"contracts/PriceConverter.sol\":828:910  return AggregatorV3Interface(0x694AA1769357215DE4FAC081bf1f309aDC325306).version() */\n      swap1\n      pop\n        /* \"contracts/PriceConverter.sol\":767:918  function getVersion() public view returns(uint256){... */\n      swap1\n      jump\t// out\n        /* \"contracts/PriceConverter.sol\":216:548  function getPrice () public view returns(uint256) {... */\n    tag_10:\n        /* \"contracts/PriceConverter.sol\":257:264  uint256 */\n      0x00\n        /* \"contracts/PriceConverter.sol\":339:370  AggregatorV3Interface pricefeed */\n      dup1\n        /* \"contracts/PriceConverter.sol\":395:437  0x694AA1769357215DE4FAC081bf1f309aDC325306 */\n      0x694aa1769357215de4fac081bf1f309adc325306\n        /* \"contracts/PriceConverter.sol\":339:438  AggregatorV3Interface pricefeed = AggregatorV3Interface(0x694AA1769357215DE4FAC081bf1f309aDC325306) */\n      swap1\n      pop\n        /* \"contracts/PriceConverter.sol\":451:463  int256 price */\n      0x00\n        /* \"contracts/PriceConverter.sol\":472:481  pricefeed */\n      dup2\n        /* \"contracts/PriceConverter.sol\":472:497  pricefeed.latestRoundData */\n      0xffffffffffffffffffffffffffffffffffffffff\n      and\n      0xfeaf968c\n        /* \"contracts/PriceConverter.sol\":472:499  pricefeed.latestRoundData() */\n      mload(0x40)\n      dup2\n      0xffffffff\n      and\n      0xe0\n      shl\n      dup2\n      mstore\n      0x04\n      add\n      0xa0\n      mload(0x40)\n      dup1\n      dup4\n      sub\n      dup2\n      dup7\n      gas\n      staticcall\n      iszero\n      dup1\n      iszero\n      tag_24\n      jumpi\n      returndatasize\n      0x00\n      dup1\n      returndatacopy\n      revert(0x00, returndatasize)\n    tag_24:\n      pop\n      pop\n      pop\n      pop\n      mload(0x40)\n      returndatasize\n      not(0x1f)\n      0x1f\n      dup3\n      add\n      and\n      dup3\n      add\n      dup1\n      0x40\n      mstore\n      pop\n      dup2\n      add\n      swap1\n      tag_25\n      swap2\n      swap1\n      tag_26\n      jump\t// in\n    tag_25:\n        /* \"contracts/PriceConverter.sol\":449:499  (,int256 price, , ,) = pricefeed.latestRoundData() */\n      pop\n      pop\n      pop\n      swap2\n      pop\n      pop\n        /* \"contracts/PriceConverter.sol\":535:539  1e10 */\n      0x02540be400\n        /* \"contracts/PriceConverter.sol\":527:532  price */\n      dup2\n        /* \"contracts/PriceConverter.sol\":527:539  price * 1e10 */\n      tag_27\n      swap2\n      swap1\n      tag_28\n      jump\t// in\n    tag_27:\n        /* \"contracts/PriceConverter.sol\":512:540  return uint256(price * 1e10) */\n      swap3\n      pop\n      pop\n      pop\n        /* \"contracts/PriceConverter.sol\":216:548  function getPrice () public view returns(uint256) {... */\n      swap1\n      jump\t// out\n        /* \"contracts/PriceConverter.sol\":554:761  function conversion (uint256 ethAmount) public view returns(uint256){... */\n    tag_15:\n        /* \"contracts/PriceConverter.sol\":614:621  uint256 */\n      0x00\n        /* \"contracts/PriceConverter.sol\":633:649  uint256 ethPrice */\n      dup1\n        /* \"contracts/PriceConverter.sol\":652:662  getPrice() */\n      tag_30\n        /* \"contracts/PriceConverter.sol\":652:660  getPrice */\n      tag_10\n        /* \"contracts/PriceConverter.sol\":652:662  getPrice() */\n      jump\t// in\n    tag_30:\n        /* \"contracts/PriceConverter.sol\":633:662  uint256 ethPrice = getPrice() */\n      swap1\n      pop\n        /* \"contracts/PriceConverter.sol\":673:692  uint256 ethAountUsd */\n      0x00\n        /* \"contracts/PriceConverter.sol\":720:724  1e18 */\n      0x0de0b6b3a7640000\n        /* \"contracts/PriceConverter.sol\":707:716  ethAmount */\n      dup5\n        /* \"contracts/PriceConverter.sol\":696:704  ethPrice */\n      dup4\n        /* \"contracts/PriceConverter.sol\":696:716  ethPrice * ethAmount */\n      tag_31\n      swap2\n      swap1\n      tag_32\n      jump\t// in\n    tag_31:\n        /* \"contracts/PriceConverter.sol\":695:724  (ethPrice * ethAmount) / 1e18 */\n      tag_33\n      swap2\n      swap1\n      tag_34\n      jump\t// in\n    tag_33:\n        /* \"contracts/PriceConverter.sol\":673:724  uint256 ethAountUsd = (ethPrice * ethAmount) / 1e18 */\n      swap1\n      pop\n        /* \"contracts/PriceConverter.sol\":742:753  ethAountUsd */\n      dup1\n        /* \"contracts/PriceConverter.sol\":735:753  return ethAountUsd */\n      swap3\n      pop\n      pop\n      pop\n        /* \"contracts/PriceConverter.sol\":554:761  function conversion (uint256 ethAmount) public view returns(uint256){... */\n      swap2\n      swap1\n      pop\n      jump\t// out\n        /* \"#utility.yul\":7:84   */\n    tag_35:\n        /* \"#utility.yul\":44:51   */\n      0x00\n        /* \"#utility.yul\":73:78   */\n      dup2\n        /* \"#utility.yul\":62:78   */\n      swap1\n      pop\n        /* \"#utility.yul\":7:84   */\n      swap2\n      swap1\n      pop\n      jump\t// out\n        /* \"#utility.yul\":90:216   */\n    tag_36:\n        /* \"#utility.yul\":185:209   */\n      tag_54\n        /* \"#utility.yul\":203:208   */\n      dup2\n        /* \"#utility.yul\":185:209   */\n      tag_35\n      jump\t// in\n    tag_54:\n        /* \"#utility.yul\":180:183   */\n      dup3\n        /* \"#utility.yul\":173:210   */\n      mstore\n        /* \"#utility.yul\":90:216   */\n      pop\n      pop\n      jump\t// out\n        /* \"#utility.yul\":222:460   */\n    tag_8:\n        /* \"#utility.yul\":323:327   */\n      0x00\n        /* \"#utility.yul\":361:363   */\n      0x20\n        /* \"#utility.yul\":350:359   */\n      dup3\n        /* \"#utility.yul\":346:364   */\n      add\n        /* \"#utility.yul\":338:364   */\n      swap1\n      pop\n        /* \"#utility.yul\":374:453   */\n      tag_56\n        /* \"#utility.yul\":450:451   */\n      0x00\n        /* \"#utility.yul\":439:448   */\n      dup4\n        /* \"#utility.yul\":435:452   */\n      add\n        /* \"#utility.yul\":426:432   */\n      dup5\n        /* \"#utility.yul\":374:453   */\n      tag_36\n      jump\t// in\n    tag_56:\n        /* \"#utility.yul\":222:460   */\n      swap3\n      swap2\n      pop\n      pop\n      jump\t// out\n        /* \"#utility.yul\":547:664   */\n    tag_38:\n        /* \"#utility.yul\":656:657   */\n      0x00\n        /* \"#utility.yul\":653:654   */\n      dup1\n        /* \"#utility.yul\":646:658   */\n      revert\n        /* \"#utility.yul\":793:915   */\n    tag_40:\n        /* \"#utility.yul\":866:890   */\n      tag_61\n        /* \"#utility.yul\":884:889   */\n      dup2\n        /* \"#utility.yul\":866:890   */\n      tag_35\n      jump\t// in\n    tag_61:\n        /* \"#utility.yul\":859:864   */\n      dup2\n        /* \"#utility.yul\":856:891   */\n      eq\n        /* \"#utility.yul\":846:909   */\n      tag_62\n      jumpi\n        /* \"#utility.yul\":905:906   */\n      0x00\n        /* \"#utility.yul\":902:903   */\n      dup1\n        /* \"#utility.yul\":895:907   */\n      revert\n        /* \"#utility.yul\":846:909   */\n    tag_62:\n        /* \"#utility.yul\":793:915   */\n      pop\n      jump\t// out\n        /* \"#utility.yul\":921:1060   */\n    tag_41:\n        /* \"#utility.yul\":967:972   */\n      0x00\n        /* \"#utility.yul\":1005:1011   */\n      dup2\n        /* \"#utility.yul\":992:1012   */\n      calldataload\n        /* \"#utility.yul\":983:1012   */\n      swap1\n      pop\n        /* \"#utility.yul\":1021:1054   */\n      tag_64\n        /* \"#utility.yul\":1048:1053   */\n      dup2\n        /* \"#utility.yul\":1021:1054   */\n      tag_40\n      jump\t// in\n    tag_64:\n        /* \"#utility.yul\":921:1060   */\n      swap3\n      swap2\n      pop\n      pop\n      jump\t// out\n        /* \"#utility.yul\":1066:1395   */\n    tag_14:\n        /* \"#utility.yul\":1125:1131   */\n      0x00\n        /* \"#utility.yul\":1174:1176   */\n      0x20\n        /* \"#utility.yul\":1162:1171   */\n      dup3\n        /* \"#utility.yul\":1153:1160   */\n      dup5\n        /* \"#utility.yul\":1149:1172   */\n      sub\n        /* \"#utility.yul\":1145:1177   */\n      slt\n        /* \"#utility.yul\":1142:1261   */\n      iszero\n      tag_66\n      jumpi\n        /* \"#utility.yul\":1180:1259   */\n      tag_67\n      tag_38\n      jump\t// in\n    tag_67:\n        /* \"#utility.yul\":1142:1261   */\n    tag_66:\n        /* \"#utility.yul\":1300:1301   */\n      0x00\n        /* \"#utility.yul\":1325:1378   */\n      tag_68\n        /* \"#utility.yul\":1370:1377   */\n      dup5\n        /* \"#utility.yul\":1361:1367   */\n      dup3\n        /* \"#utility.yul\":1350:1359   */\n      dup6\n        /* \"#utility.yul\":1346:1368   */\n      add\n        /* \"#utility.yul\":1325:1378   */\n      tag_41\n      jump\t// in\n    tag_68:\n        /* \"#utility.yul\":1315:1378   */\n      swap2\n      pop\n        /* \"#utility.yul\":1271:1388   */\n      pop\n        /* \"#utility.yul\":1066:1395   */\n      swap3\n      swap2\n      pop\n      pop\n      jump\t// out\n        /* \"#utility.yul\":1401:1544   */\n    tag_42:\n        /* \"#utility.yul\":1458:1463   */\n      0x00\n        /* \"#utility.yul\":1489:1495   */\n      dup2\n        /* \"#utility.yul\":1483:1496   */\n      mload\n        /* \"#utility.yul\":1474:1496   */\n      swap1\n      pop\n        /* \"#utility.yul\":1505:1538   */\n      tag_70\n        /* \"#utility.yul\":1532:1537   */\n      dup2\n        /* \"#utility.yul\":1505:1538   */\n      tag_40\n      jump\t// in\n    tag_70:\n        /* \"#utility.yul\":1401:1544   */\n      swap3\n      swap2\n      pop\n      pop\n      jump\t// out\n        /* \"#utility.yul\":1550:1901   */\n    tag_21:\n        /* \"#utility.yul\":1620:1626   */\n      0x00\n        /* \"#utility.yul\":1669:1671   */\n      0x20\n        /* \"#utility.yul\":1657:1666   */\n      dup3\n        /* \"#utility.yul\":1648:1655   */\n      dup5\n        /* \"#utility.yul\":1644:1667   */\n      sub\n        /* \"#utility.yul\":1640:1672   */\n      slt\n        /* \"#utility.yul\":1637:1756   */\n      iszero\n      tag_72\n      jumpi\n        /* \"#utility.yul\":1675:1754   */\n      tag_73\n      tag_38\n      jump\t// in\n    tag_73:\n        /* \"#utility.yul\":1637:1756   */\n    tag_72:\n        /* \"#utility.yul\":1795:1796   */\n      0x00\n        /* \"#utility.yul\":1820:1884   */\n      tag_74\n        /* \"#utility.yul\":1876:1883   */\n      dup5\n        /* \"#utility.yul\":1867:1873   */\n      dup3\n        /* \"#utility.yul\":1856:1865   */\n      dup6\n        /* \"#utility.yul\":1852:1874   */\n      add\n        /* \"#utility.yul\":1820:1884   */\n      tag_42\n      jump\t// in\n    tag_74:\n        /* \"#utility.yul\":1810:1884   */\n      swap2\n      pop\n        /* \"#utility.yul\":1766:1894   */\n      pop\n        /* \"#utility.yul\":1550:1901   */\n      swap3\n      swap2\n      pop\n      pop\n      jump\t// out\n        /* \"#utility.yul\":1907:2012   */\n    tag_43:\n        /* \"#utility.yul\":1943:1950   */\n      0x00\n        /* \"#utility.yul\":1983:2005   */\n      0xffffffffffffffffffff\n        /* \"#utility.yul\":1976:1981   */\n      dup3\n        /* \"#utility.yul\":1972:2006   */\n      and\n        /* \"#utility.yul\":1961:2006   */\n      swap1\n      pop\n        /* \"#utility.yul\":1907:2012   */\n      swap2\n      swap1\n      pop\n      jump\t// out\n        /* \"#utility.yul\":2018:2138   */\n    tag_44:\n        /* \"#utility.yul\":2090:2113   */\n      tag_77\n        /* \"#utility.yul\":2107:2112   */\n      dup2\n        /* \"#utility.yul\":2090:2113   */\n      tag_43\n      jump\t// in\n    tag_77:\n        /* \"#utility.yul\":2083:2088   */\n      dup2\n        /* \"#utility.yul\":2080:2114   */\n      eq\n        /* \"#utility.yul\":2070:2132   */\n      tag_78\n      jumpi\n        /* \"#utility.yul\":2128:2129   */\n      0x00\n        /* \"#utility.yul\":2125:2126   */\n      dup1\n        /* \"#utility.yul\":2118:2130   */\n      revert\n        /* \"#utility.yul\":2070:2132   */\n    tag_78:\n        /* \"#utility.yul\":2018:2138   */\n      pop\n      jump\t// out\n        /* \"#utility.yul\":2144:2285   */\n    tag_45:\n        /* \"#utility.yul\":2200:2205   */\n      0x00\n        /* \"#utility.yul\":2231:2237   */\n      dup2\n        /* \"#utility.yul\":2225:2238   */\n      mload\n        /* \"#utility.yul\":2216:2238   */\n      swap1\n      pop\n        /* \"#utility.yul\":2247:2279   */\n      tag_80\n        /* \"#utility.yul\":2273:2278   */\n      dup2\n        /* \"#utility.yul\":2247:2279   */\n      tag_44\n      jump\t// in\n    tag_80:\n        /* \"#utility.yul\":2144:2285   */\n      swap3\n      swap2\n      pop\n      pop\n      jump\t// out\n        /* \"#utility.yul\":2291:2367   */\n    tag_46:\n        /* \"#utility.yul\":2327:2334   */\n      0x00\n        /* \"#utility.yul\":2356:2361   */\n      dup2\n        /* \"#utility.yul\":2345:2361   */\n      swap1\n      pop\n        /* \"#utility.yul\":2291:2367   */\n      swap2\n      swap1\n      pop\n      jump\t// out\n        /* \"#utility.yul\":2373:2493   */\n    tag_47:\n        /* \"#utility.yul\":2445:2468   */\n      tag_83\n        /* \"#utility.yul\":2462:2467   */\n      dup2\n        /* \"#utility.yul\":2445:2468   */\n      tag_46\n      jump\t// in\n    tag_83:\n        /* \"#utility.yul\":2438:2443   */\n      dup2\n        /* \"#utility.yul\":2435:2469   */\n      eq\n        /* \"#utility.yul\":2425:2487   */\n      tag_84\n      jumpi\n        /* \"#utility.yul\":2483:2484   */\n      0x00\n        /* \"#utility.yul\":2480:2481   */\n      dup1\n        /* \"#utility.yul\":2473:2485   */\n      revert\n        /* \"#utility.yul\":2425:2487   */\n    tag_84:\n        /* \"#utility.yul\":2373:2493   */\n      pop\n      jump\t// out\n        /* \"#utility.yul\":2499:2640   */\n    tag_48:\n        /* \"#utility.yul\":2555:2560   */\n      0x00\n        /* \"#utility.yul\":2586:2592   */\n      dup2\n        /* \"#utility.yul\":2580:2593   */\n      mload\n        /* \"#utility.yul\":2571:2593   */\n      swap1\n      pop\n        /* \"#utility.yul\":2602:2634   */\n      tag_86\n        /* \"#utility.yul\":2628:2633   */\n      dup2\n        /* \"#utility.yul\":2602:2634   */\n      tag_47\n      jump\t// in\n    tag_86:\n        /* \"#utility.yul\":2499:2640   */\n      swap3\n      swap2\n      pop\n      pop\n      jump\t// out\n        /* \"#utility.yul\":2646:3617   */\n    tag_26:\n        /* \"#utility.yul\":2749:2755   */\n      0x00\n        /* \"#utility.yul\":2757:2763   */\n      dup1\n        /* \"#utility.yul\":2765:2771   */\n      0x00\n        /* \"#utility.yul\":2773:2779   */\n      dup1\n        /* \"#utility.yul\":2781:2787   */\n      0x00\n        /* \"#utility.yul\":2830:2833   */\n      0xa0\n        /* \"#utility.yul\":2818:2827   */\n      dup7\n        /* \"#utility.yul\":2809:2816   */\n      dup9\n        /* \"#utility.yul\":2805:2828   */\n      sub\n        /* \"#utility.yul\":2801:2834   */\n      slt\n        /* \"#utility.yul\":2798:2918   */\n      iszero\n      tag_88\n      jumpi\n        /* \"#utility.yul\":2837:2916   */\n      tag_89\n      tag_38\n      jump\t// in\n    tag_89:\n        /* \"#utility.yul\":2798:2918   */\n    tag_88:\n        /* \"#utility.yul\":2957:2958   */\n      0x00\n        /* \"#utility.yul\":2982:3045   */\n      tag_90\n        /* \"#utility.yul\":3037:3044   */\n      dup9\n        /* \"#utility.yul\":3028:3034   */\n      dup3\n        /* \"#utility.yul\":3017:3026   */\n      dup10\n        /* \"#utility.yul\":3013:3035   */\n      add\n        /* \"#utility.yul\":2982:3045   */\n      tag_45\n      jump\t// in\n    tag_90:\n        /* \"#utility.yul\":2972:3045   */\n      swap6\n      pop\n        /* \"#utility.yul\":2928:3055   */\n      pop\n        /* \"#utility.yul\":3094:3096   */\n      0x20\n        /* \"#utility.yul\":3120:3183   */\n      tag_91\n        /* \"#utility.yul\":3175:3182   */\n      dup9\n        /* \"#utility.yul\":3166:3172   */\n      dup3\n        /* \"#utility.yul\":3155:3164   */\n      dup10\n        /* \"#utility.yul\":3151:3173   */\n      add\n        /* \"#utility.yul\":3120:3183   */\n      tag_48\n      jump\t// in\n    tag_91:\n        /* \"#utility.yul\":3110:3183   */\n      swap5\n      pop\n        /* \"#utility.yul\":3065:3193   */\n      pop\n        /* \"#utility.yul\":3232:3234   */\n      0x40\n        /* \"#utility.yul\":3258:3322   */\n      tag_92\n        /* \"#utility.yul\":3314:3321   */\n      dup9\n        /* \"#utility.yul\":3305:3311   */\n      dup3\n        /* \"#utility.yul\":3294:3303   */\n      dup10\n        /* \"#utility.yul\":3290:3312   */\n      add\n        /* \"#utility.yul\":3258:3322   */\n      tag_42\n      jump\t// in\n    tag_92:\n        /* \"#utility.yul\":3248:3322   */\n      swap4\n      pop\n        /* \"#utility.yul\":3203:3332   */\n      pop\n        /* \"#utility.yul\":3371:3373   */\n      0x60\n        /* \"#utility.yul\":3397:3461   */\n      tag_93\n        /* \"#utility.yul\":3453:3460   */\n      dup9\n        /* \"#utility.yul\":3444:3450   */\n      dup3\n        /* \"#utility.yul\":3433:3442   */\n      dup10\n        /* \"#utility.yul\":3429:3451   */\n      add\n        /* \"#utility.yul\":3397:3461   */\n      tag_42\n      jump\t// in\n    tag_93:\n        /* \"#utility.yul\":3387:3461   */\n      swap3\n      pop\n        /* \"#utility.yul\":3342:3471   */\n      pop\n        /* \"#utility.yul\":3510:3513   */\n      0x80\n        /* \"#utility.yul\":3537:3600   */\n      tag_94\n        /* \"#utility.yul\":3592:3599   */\n      dup9\n        /* \"#utility.yul\":3583:3589   */\n      dup3\n        /* \"#utility.yul\":3572:3581   */\n      dup10\n        /* \"#utility.yul\":3568:3590   */\n      add\n        /* \"#utility.yul\":3537:3600   */\n      tag_45\n      jump\t// in\n    tag_94:\n        /* \"#utility.yul\":3527:3600   */\n      swap2\n      pop\n        /* \"#utility.yul\":3481:3610   */\n      pop\n        /* \"#utility.yul\":2646:3617   */\n      swap3\n      swap6\n      pop\n      swap3\n      swap6\n      swap1\n      swap4\n      pop\n      jump\t// out\n        /* \"#utility.yul\":3623:3803   */\n    tag_49:\n        /* \"#utility.yul\":3671:3748   */\n      0x4e487b7100000000000000000000000000000000000000000000000000000000\n        /* \"#utility.yul\":3668:3669   */\n      0x00\n        /* \"#utility.yul\":3661:3749   */\n      mstore\n        /* \"#utility.yul\":3768:3772   */\n      0x11\n        /* \"#utility.yul\":3765:3766   */\n      0x04\n        /* \"#utility.yul\":3758:3773   */\n      mstore\n        /* \"#utility.yul\":3792:3796   */\n      0x24\n        /* \"#utility.yul\":3789:3790   */\n      0x00\n        /* \"#utility.yul\":3782:3797   */\n      revert\n        /* \"#utility.yul\":3809:4365   */\n    tag_28:\n        /* \"#utility.yul\":3848:3855   */\n      0x00\n        /* \"#utility.yul\":3871:3890   */\n      tag_97\n        /* \"#utility.yul\":3888:3889   */\n      dup3\n        /* \"#utility.yul\":3871:3890   */\n      tag_46\n      jump\t// in\n    tag_97:\n        /* \"#utility.yul\":3866:3890   */\n      swap2\n      pop\n        /* \"#utility.yul\":3904:3923   */\n      tag_98\n        /* \"#utility.yul\":3921:3922   */\n      dup4\n        /* \"#utility.yul\":3904:3923   */\n      tag_46\n      jump\t// in\n    tag_98:\n        /* \"#utility.yul\":3899:3923   */\n      swap3\n      pop\n        /* \"#utility.yul\":3958:3959   */\n      dup3\n        /* \"#utility.yul\":3955:3956   */\n      dup3\n        /* \"#utility.yul\":3951:3960   */\n      mul\n        /* \"#utility.yul\":3980:4009   */\n      tag_99\n        /* \"#utility.yul\":3997:4008   */\n      dup2\n        /* \"#utility.yul\":3980:4009   */\n      tag_46\n      jump\t// in\n    tag_99:\n        /* \"#utility.yul\":3969:4009   */\n      swap2\n      pop\n        /* \"#utility.yul\":4067:4133   */\n      0x8000000000000000000000000000000000000000000000000000000000000000\n        /* \"#utility.yul\":4064:4065   */\n      dup5\n        /* \"#utility.yul\":4061:4134   */\n      eq\n        /* \"#utility.yul\":4057:4058   */\n      0x00\n        /* \"#utility.yul\":4054:4055   */\n      dup5\n        /* \"#utility.yul\":4050:4059   */\n      slt\n        /* \"#utility.yul\":4046:4135   */\n      and\n        /* \"#utility.yul\":4043:4158   */\n      iszero\n      tag_100\n      jumpi\n        /* \"#utility.yul\":4138:4156   */\n      tag_101\n      tag_49\n      jump\t// in\n    tag_101:\n        /* \"#utility.yul\":4043:4158   */\n    tag_100:\n        /* \"#utility.yul\":4308:4309   */\n      dup3\n        /* \"#utility.yul\":4299:4306   */\n      dup3\n        /* \"#utility.yul\":4294:4310   */\n      sdiv\n        /* \"#utility.yul\":4291:4292   */\n      dup5\n        /* \"#utility.yul\":4288:4311   */\n      eq\n        /* \"#utility.yul\":4268:4269   */\n      dup4\n        /* \"#utility.yul\":4261:4270   */\n      iszero\n        /* \"#utility.yul\":4241:4325   */\n      or\n        /* \"#utility.yul\":4218:4358   */\n      tag_102\n      jumpi\n        /* \"#utility.yul\":4338:4356   */\n      tag_103\n      tag_49\n      jump\t// in\n    tag_103:\n        /* \"#utility.yul\":4218:4358   */\n    tag_102:\n        /* \"#utility.yul\":3856:4365   */\n      pop\n        /* \"#utility.yul\":3809:4365   */\n      swap3\n      swap2\n      pop\n      pop\n      jump\t// out\n        /* \"#utility.yul\":4371:4781   */\n    tag_32:\n        /* \"#utility.yul\":4411:4418   */\n      0x00\n        /* \"#utility.yul\":4434:4454   */\n      tag_105\n        /* \"#utility.yul\":4452:4453   */\n      dup3\n        /* \"#utility.yul\":4434:4454   */\n      tag_35\n      jump\t// in\n    tag_105:\n        /* \"#utility.yul\":4429:4454   */\n      swap2\n      pop\n        /* \"#utility.yul\":4468:4488   */\n      tag_106\n        /* \"#utility.yul\":4486:4487   */\n      dup4\n        /* \"#utility.yul\":4468:4488   */\n      tag_35\n      jump\t// in\n    tag_106:\n        /* \"#utility.yul\":4463:4488   */\n      swap3\n      pop\n        /* \"#utility.yul\":4523:4524   */\n      dup3\n        /* \"#utility.yul\":4520:4521   */\n      dup3\n        /* \"#utility.yul\":4516:4525   */\n      mul\n        /* \"#utility.yul\":4545:4575   */\n      tag_107\n        /* \"#utility.yul\":4563:4574   */\n      dup2\n        /* \"#utility.yul\":4545:4575   */\n      tag_35\n      jump\t// in\n    tag_107:\n        /* \"#utility.yul\":4534:4575   */\n      swap2\n      pop\n        /* \"#utility.yul\":4724:4725   */\n      dup3\n        /* \"#utility.yul\":4715:4722   */\n      dup3\n        /* \"#utility.yul\":4711:4726   */\n      div\n        /* \"#utility.yul\":4708:4709   */\n      dup5\n        /* \"#utility.yul\":4705:4727   */\n      eq\n        /* \"#utility.yul\":4685:4686   */\n      dup4\n        /* \"#utility.yul\":4678:4687   */\n      iszero\n        /* \"#utility.yul\":4658:4741   */\n      or\n        /* \"#utility.yul\":4635:4774   */\n      tag_108\n      jumpi\n        /* \"#utility.yul\":4754:4772   */\n      tag_109\n      tag_49\n      jump\t// in\n    tag_109:\n        /* \"#utility.yul\":4635:4774   */\n    tag_108:\n        /* \"#utility.yul\":4419:4781   */\n      pop\n        /* \"#utility.yul\":4371:4781   */\n      swap3\n      swap2\n      pop\n      pop\n      jump\t// out\n        /* \"#utility.yul\":4787:4967   */\n    tag_50:\n        /* \"#utility.yul\":4835:4912   */\n      0x4e487b7100000000000000000000000000000000000000000000000000000000\n        /* \"#utility.yul\":4832:4833   */\n      0x00\n        /* \"#utility.yul\":4825:4913   */\n      mstore\n        /* \"#utility.yul\":4932:4936   */\n      0x12\n        /* \"#utility.yul\":4929:4930   */\n      0x04\n        /* \"#utility.yul\":4922:4937   */\n      mstore\n        /* \"#utility.yul\":4956:4960   */\n      0x24\n        /* \"#utility.yul\":4953:4954   */\n      0x00\n        /* \"#utility.yul\":4946:4961   */\n      revert\n        /* \"#utility.yul\":4973:5158   */\n    tag_34:\n        /* \"#utility.yul\":5013:5014   */\n      0x00\n        /* \"#utility.yul\":5030:5050   */\n      tag_112\n        /* \"#utility.yul\":5048:5049   */\n      dup3\n        /* \"#utility.yul\":5030:5050   */\n      tag_35\n      jump\t// in\n    tag_112:\n        /* \"#utility.yul\":5025:5050   */\n      swap2\n      pop\n        /* \"#utility.yul\":5064:5084   */\n      tag_113\n        /* \"#utility.yul\":5082:5083   */\n      dup4\n        /* \"#utility.yul\":5064:5084   */\n      tag_35\n      jump\t// in\n    tag_113:\n        /* \"#utility.yul\":5059:5084   */\n      swap3\n      pop\n        /* \"#utility.yul\":5103:5104   */\n      dup3\n        /* \"#utility.yul\":5093:5128   */\n      tag_114\n      jumpi\n        /* \"#utility.yul\":5108:5126   */\n      tag_115\n      tag_50\n      jump\t// in\n    tag_115:\n        /* \"#utility.yul\":5093:5128   */\n    tag_114:\n        /* \"#utility.yul\":5150:5151   */\n      dup3\n        /* \"#utility.yul\":5147:5148   */\n      dup3\n        /* \"#utility.yul\":5143:5152   */\n      div\n        /* \"#utility.yul\":5138:5152   */\n      swap1\n      pop\n        /* \"#utility.yul\":4973:5158   */\n      swap3\n      swap2\n      pop\n      pop\n      jump\t// out\n\n    auxdata: 0xa2646970667358221220bbbc245e0c7b2a6117a5e481dd914c83d2c8679d15d38f0b3951013c83ec0f8464736f6c634300081a0033\n}\n",
				"bytecode": {
					"linkReferences": {},
					"object": "61054761004d600b8282823980515f1a6073146041577f4e487b71000000000000000000000000000000000000000000000000000000005f525f60045260245ffd5b305f52607381538281f3fe730000000000000000000000000000000000000000301460806040526004361061004a575f3560e01c80630d8e6e2c1461004e57806398d5fdca1461006c578063ba4d0c991461008a575b5f80fd5b6100566100ba565b6040516100639190610236565b60405180910390f35b610074610141565b6040516100819190610236565b60405180910390f35b6100a4600480360381019061009f919061027d565b6101e6565b6040516100b19190610236565b60405180910390f35b5f73694aa1769357215de4fac081bf1f309adc32530673ffffffffffffffffffffffffffffffffffffffff166354fd4d506040518163ffffffff1660e01b8152600401602060405180830381865afa158015610118573d5f803e3d5ffd5b505050506040513d601f19601f8201168201806040525081019061013c91906102bc565b905090565b5f8073694aa1769357215de4fac081bf1f309adc32530690505f8173ffffffffffffffffffffffffffffffffffffffff1663feaf968c6040518163ffffffff1660e01b815260040160a060405180830381865afa1580156101a4573d5f803e3d5ffd5b505050506040513d601f19601f820116820180604052508101906101c89190610359565b5050509150506402540be400816101df91906103fd565b9250505090565b5f806101f0610141565b90505f670de0b6b3a764000084836102089190610473565b61021291906104e1565b90508092505050919050565b5f819050919050565b6102308161021e565b82525050565b5f6020820190506102495f830184610227565b92915050565b5f80fd5b61025c8161021e565b8114610266575f80fd5b50565b5f8135905061027781610253565b92915050565b5f602082840312156102925761029161024f565b5b5f61029f84828501610269565b91505092915050565b5f815190506102b681610253565b92915050565b5f602082840312156102d1576102d061024f565b5b5f6102de848285016102a8565b91505092915050565b5f69ffffffffffffffffffff82169050919050565b610305816102e7565b811461030f575f80fd5b50565b5f81519050610320816102fc565b92915050565b5f819050919050565b61033881610326565b8114610342575f80fd5b50565b5f815190506103538161032f565b92915050565b5f805f805f60a086880312156103725761037161024f565b5b5f61037f88828901610312565b955050602061039088828901610345565b94505060406103a1888289016102a8565b93505060606103b2888289016102a8565b92505060806103c388828901610312565b9150509295509295909350565b7f4e487b71000000000000000000000000000000000000000000000000000000005f52601160045260245ffd5b5f61040782610326565b915061041283610326565b925082820261042081610326565b91507f800000000000000000000000000000000000000000000000000000000000000084145f84121615610457576104566103d0565b5b828205841483151761046c5761046b6103d0565b5b5092915050565b5f61047d8261021e565b91506104888361021e565b92508282026104968161021e565b915082820484148315176104ad576104ac6103d0565b5b5092915050565b7f4e487b71000000000000000000000000000000000000000000000000000000005f52601260045260245ffd5b5f6104eb8261021e565b91506104f68361021e565b925082610506576105056104b4565b5b82820490509291505056fea2646970667358221220bbbc245e0c7b2a6117a5e481dd914c83d2c8679d15d38f0b3951013c83ec0f8464736f6c634300081a0033",
					"opcodes": "PUSH2 0x547 PUSH2 0x4D PUSH1 0xB DUP3 DUP3 DUP3 CODECOPY DUP1 MLOAD PUSH0 BYTE PUSH1 0x73 EQ PUSH1 0x41 JUMPI PUSH32 0x4E487B7100000000000000000000000000000000000000000000000000000000 PUSH0 MSTORE PUSH0 PUSH1 0x4 MSTORE PUSH1 0x24 PUSH0 REVERT JUMPDEST ADDRESS PUSH0 MSTORE PUSH1 0x73 DUP2 MSTORE8 DUP3 DUP2 RETURN INVALID PUSH20 0x0 ADDRESS EQ PUSH1 0x80 PUSH1 0x40 MSTORE PUSH1 0x4 CALLDATASIZE LT PUSH2 0x4A JUMPI PUSH0 CALLDATALOAD PUSH1 0xE0 SHR DUP1 PUSH4 0xD8E6E2C EQ PUSH2 0x4E JUMPI DUP1 PUSH4 0x98D5FDCA EQ PUSH2 0x6C JUMPI DUP1 PUSH4 0xBA4D0C99 EQ PUSH2 0x8A JUMPI JUMPDEST PUSH0 DUP1 REVERT JUMPDEST PUSH2 0x56 PUSH2 0xBA JUMP JUMPDEST PUSH1 0x40 MLOAD PUSH2 0x63 SWAP2 SWAP1 PUSH2 0x236 JUMP JUMPDEST PUSH1 0x40 MLOAD DUP1 SWAP2 SUB SWAP1 RETURN JUMPDEST PUSH2 0x74 PUSH2 0x141 JUMP JUMPDEST PUSH1 0x40 MLOAD PUSH2 0x81 SWAP2 SWAP1 PUSH2 0x236 JUMP JUMPDEST PUSH1 0x40 MLOAD DUP1 SWAP2 SUB SWAP1 RETURN JUMPDEST PUSH2 0xA4 PUSH1 0x4 DUP1 CALLDATASIZE SUB DUP2 ADD SWAP1 PUSH2 0x9F SWAP2 SWAP1 PUSH2 0x27D JUMP JUMPDEST PUSH2 0x1E6 JUMP JUMPDEST PUSH1 0x40 MLOAD PUSH2 0xB1 SWAP2 SWAP1 PUSH2 0x236 JUMP JUMPDEST PUSH1 0x40 MLOAD DUP1 SWAP2 SUB SWAP1 RETURN JUMPDEST PUSH0 PUSH20 0x694AA1769357215DE4FAC081BF1F309ADC325306 PUSH20 0xFFFFFFFFFFFFFFFFFFFFFFFFFFFFFFFFFFFFFFFF AND PUSH4 0x54FD4D50 PUSH1 0x40 MLOAD DUP2 PUSH4 0xFFFFFFFF AND PUSH1 0xE0 SHL DUP2 MSTORE PUSH1 0x4 ADD PUSH1 0x20 PUSH1 0x40 MLOAD DUP1 DUP4 SUB DUP2 DUP7 GAS STATICCALL ISZERO DUP1 ISZERO PUSH2 0x118 JUMPI RETURNDATASIZE PUSH0 DUP1 RETURNDATACOPY RETURNDATASIZE PUSH0 REVERT JUMPDEST POP POP POP POP PUSH1 0x40 MLOAD RETURNDATASIZE PUSH1 0x1F NOT PUSH1 0x1F DUP3 ADD AND DUP3 ADD DUP1 PUSH1 0x40 MSTORE POP DUP2 ADD SWAP1 PUSH2 0x13C SWAP2 SWAP1 PUSH2 0x2BC JUMP JUMPDEST SWAP1 POP SWAP1 JUMP JUMPDEST PUSH0 DUP1 PUSH20 0x694AA1769357215DE4FAC081BF1F309ADC325306 SWAP1 POP PUSH0 DUP2 PUSH20 0xFFFFFFFFFFFFFFFFFFFFFFFFFFFFFFFFFFFFFFFF AND PUSH4 0xFEAF968C PUSH1 0x40 MLOAD DUP2 PUSH4 0xFFFFFFFF AND PUSH1 0xE0 SHL DUP2 MSTORE PUSH1 0x4 ADD PUSH1 0xA0 PUSH1 0x40 MLOAD DUP1 DUP4 SUB DUP2 DUP7 GAS STATICCALL ISZERO DUP1 ISZERO PUSH2 0x1A4 JUMPI RETURNDATASIZE PUSH0 DUP1 RETURNDATACOPY RETURNDATASIZE PUSH0 REVERT JUMPDEST POP POP POP POP PUSH1 0x40 MLOAD RETURNDATASIZE PUSH1 0x1F NOT PUSH1 0x1F DUP3 ADD AND DUP3 ADD DUP1 PUSH1 0x40 MSTORE POP DUP2 ADD SWAP1 PUSH2 0x1C8 SWAP2 SWAP1 PUSH2 0x359 JUMP JUMPDEST POP POP POP SWAP2 POP POP PUSH5 0x2540BE400 DUP2 PUSH2 0x1DF SWAP2 SWAP1 PUSH2 0x3FD JUMP JUMPDEST SWAP3 POP POP POP SWAP1 JUMP JUMPDEST PUSH0 DUP1 PUSH2 0x1F0 PUSH2 0x141 JUMP JUMPDEST SWAP1 POP PUSH0 PUSH8 0xDE0B6B3A7640000 DUP5 DUP4 PUSH2 0x208 SWAP2 SWAP1 PUSH2 0x473 JUMP JUMPDEST PUSH2 0x212 SWAP2 SWAP1 PUSH2 0x4E1 JUMP JUMPDEST SWAP1 POP DUP1 SWAP3 POP POP POP SWAP2 SWAP1 POP JUMP JUMPDEST PUSH0 DUP2 SWAP1 POP SWAP2 SWAP1 POP JUMP JUMPDEST PUSH2 0x230 DUP2 PUSH2 0x21E JUMP JUMPDEST DUP3 MSTORE POP POP JUMP JUMPDEST PUSH0 PUSH1 0x20 DUP3 ADD SWAP1 POP PUSH2 0x249 PUSH0 DUP4 ADD DUP5 PUSH2 0x227 JUMP JUMPDEST SWAP3 SWAP2 POP POP JUMP JUMPDEST PUSH0 DUP1 REVERT JUMPDEST PUSH2 0x25C DUP2 PUSH2 0x21E JUMP JUMPDEST DUP2 EQ PUSH2 0x266 JUMPI PUSH0 DUP1 REVERT JUMPDEST POP JUMP JUMPDEST PUSH0 DUP2 CALLDATALOAD SWAP1 POP PUSH2 0x277 DUP2 PUSH2 0x253 JUMP JUMPDEST SWAP3 SWAP2 POP POP JUMP JUMPDEST PUSH0 PUSH1 0x20 DUP3 DUP5 SUB SLT ISZERO PUSH2 0x292 JUMPI PUSH2 0x291 PUSH2 0x24F JUMP JUMPDEST JUMPDEST PUSH0 PUSH2 0x29F DUP5 DUP3 DUP6 ADD PUSH2 0x269 JUMP JUMPDEST SWAP2 POP POP SWAP3 SWAP2 POP POP JUMP JUMPDEST PUSH0 DUP2 MLOAD SWAP1 POP PUSH2 0x2B6 DUP2 PUSH2 0x253 JUMP JUMPDEST SWAP3 SWAP2 POP POP JUMP JUMPDEST PUSH0 PUSH1 0x20 DUP3 DUP5 SUB SLT ISZERO PUSH2 0x2D1 JUMPI PUSH2 0x2D0 PUSH2 0x24F JUMP JUMPDEST JUMPDEST PUSH0 PUSH2 0x2DE DUP5 DUP3 DUP6 ADD PUSH2 0x2A8 JUMP JUMPDEST SWAP2 POP POP SWAP3 SWAP2 POP POP JUMP JUMPDEST PUSH0 PUSH10 0xFFFFFFFFFFFFFFFFFFFF DUP3 AND SWAP1 POP SWAP2 SWAP1 POP JUMP JUMPDEST PUSH2 0x305 DUP2 PUSH2 0x2E7 JUMP JUMPDEST DUP2 EQ PUSH2 0x30F JUMPI PUSH0 DUP1 REVERT JUMPDEST POP JUMP JUMPDEST PUSH0 DUP2 MLOAD SWAP1 POP PUSH2 0x320 DUP2 PUSH2 0x2FC JUMP JUMPDEST SWAP3 SWAP2 POP POP JUMP JUMPDEST PUSH0 DUP2 SWAP1 POP SWAP2 SWAP1 POP JUMP JUMPDEST PUSH2 0x338 DUP2 PUSH2 0x326 JUMP JUMPDEST DUP2 EQ PUSH2 0x342 JUMPI PUSH0 DUP1 REVERT JUMPDEST POP JUMP JUMPDEST PUSH0 DUP2 MLOAD SWAP1 POP PUSH2 0x353 DUP2 PUSH2 0x32F JUMP JUMPDEST SWAP3 SWAP2 POP POP JUMP JUMPDEST PUSH0 DUP1 PUSH0 DUP1 PUSH0 PUSH1 0xA0 DUP7 DUP9 SUB SLT ISZERO PUSH2 0x372 JUMPI PUSH2 0x371 PUSH2 0x24F JUMP JUMPDEST JUMPDEST PUSH0 PUSH2 0x37F DUP9 DUP3 DUP10 ADD PUSH2 0x312 JUMP JUMPDEST SWAP6 POP POP PUSH1 0x20 PUSH2 0x390 DUP9 DUP3 DUP10 ADD PUSH2 0x345 JUMP JUMPDEST SWAP5 POP POP PUSH1 0x40 PUSH2 0x3A1 DUP9 DUP3 DUP10 ADD PUSH2 0x2A8 JUMP JUMPDEST SWAP4 POP POP PUSH1 0x60 PUSH2 0x3B2 DUP9 DUP3 DUP10 ADD PUSH2 0x2A8 JUMP JUMPDEST SWAP3 POP POP PUSH1 0x80 PUSH2 0x3C3 DUP9 DUP3 DUP10 ADD PUSH2 0x312 JUMP JUMPDEST SWAP2 POP POP SWAP3 SWAP6 POP SWAP3 SWAP6 SWAP1 SWAP4 POP JUMP JUMPDEST PUSH32 0x4E487B7100000000000000000000000000000000000000000000000000000000 PUSH0 MSTORE PUSH1 0x11 PUSH1 0x4 MSTORE PUSH1 0x24 PUSH0 REVERT JUMPDEST PUSH0 PUSH2 0x407 DUP3 PUSH2 0x326 JUMP JUMPDEST SWAP2 POP PUSH2 0x412 DUP4 PUSH2 0x326 JUMP JUMPDEST SWAP3 POP DUP3 DUP3 MUL PUSH2 0x420 DUP2 PUSH2 0x326 JUMP JUMPDEST SWAP2 POP PUSH32 0x8000000000000000000000000000000000000000000000000000000000000000 DUP5 EQ PUSH0 DUP5 SLT AND ISZERO PUSH2 0x457 JUMPI PUSH2 0x456 PUSH2 0x3D0 JUMP JUMPDEST JUMPDEST DUP3 DUP3 SDIV DUP5 EQ DUP4 ISZERO OR PUSH2 0x46C JUMPI PUSH2 0x46B PUSH2 0x3D0 JUMP JUMPDEST JUMPDEST POP SWAP3 SWAP2 POP POP JUMP JUMPDEST PUSH0 PUSH2 0x47D DUP3 PUSH2 0x21E JUMP JUMPDEST SWAP2 POP PUSH2 0x488 DUP4 PUSH2 0x21E JUMP JUMPDEST SWAP3 POP DUP3 DUP3 MUL PUSH2 0x496 DUP2 PUSH2 0x21E JUMP JUMPDEST SWAP2 POP DUP3 DUP3 DIV DUP5 EQ DUP4 ISZERO OR PUSH2 0x4AD JUMPI PUSH2 0x4AC PUSH2 0x3D0 JUMP JUMPDEST JUMPDEST POP SWAP3 SWAP2 POP POP JUMP JUMPDEST PUSH32 0x4E487B7100000000000000000000000000000000000000000000000000000000 PUSH0 MSTORE PUSH1 0x12 PUSH1 0x4 MSTORE PUSH1 0x24 PUSH0 REVERT JUMPDEST PUSH0 PUSH2 0x4EB DUP3 PUSH2 0x21E JUMP JUMPDEST SWAP2 POP PUSH2 0x4F6 DUP4 PUSH2 0x21E JUMP JUMPDEST SWAP3 POP DUP3 PUSH2 0x506 JUMPI PUSH2 0x505 PUSH2 0x4B4 JUMP JUMPDEST JUMPDEST DUP3 DUP3 DIV SWAP1 POP SWAP3 SWAP2 POP POP JUMP INVALID LOG2 PUSH5 0x6970667358 0x22 SLT KECCAK256 0xBB 0xBC 0x24 MCOPY 0xC PUSH28 0x2A6117A5E481DD914C83D2C8679D15D38F0B3951013C83EC0F846473 PUSH16 0x6C634300081A00330000000000000000 "
				},
				"gasEstimates": {
					"creation": {
						"codeDepositCost": "270200",
						"executionCost": "335",
						"totalCost": "270535"
					},
					"external": {
						"conversion(uint256)": "infinite",
						"getPrice()": "infinite",
						"getVersion()": "infinite"
					}
				},
				"methodIdentifiers": {
					"conversion(uint256)": "ba4d0c99",
					"getPrice()": "98d5fdca",
					"getVersion()": "0d8e6e2c"
				}
			},
			"storageLayout": {
				"storage": [],
				"types": null
			},
			"userdoc": {
				"kind": "user",
				"methods": {},
				"version": 1
			}
		}
	}
}